:020000040800F2
:1000000000000220DD5A0008715A0008735A0008E7
:10001000755A0008775A0008795A00080000000055
:100020000000000000000000000000007B5A0008F3
:100030007D5A0008000000007F5A0008815A00081D
:100040002D5B00082D5B00082D5B00082D5B000870
:100050002D5B00082D5B00082D5B00082D5B000860
:100060002D5B00082D5B00082D5B00082D5B000850
:100070002D5B00082D5B00082D5B00082D5B000840
:100080002D5B00082D5B00082D5B00082D5B000830
:100090002D5B00082D5B00082D5B00082D5B000820
:1000A0002D5B00082D5B00082D5B00082D5B000810
:1000B0002D5B00082D5B00082D5B00082D5B000800
:1000C0002D5B00082D5B00082D5B00082D5B0008F0
:1000D0002D5B00082D5B00082D5B00082D5B0008E0
:1000E0002D5B00082D5B00082D5B00082D5B0008D0
:1000F0002D5B00082D5B00082D5B00082D5B0008C0
:100100002D5B00082D5B00082D5B00082D5B0008AF
:100110002D5B00082D5B00082D5B00082D5B00089F
:100120002D5B00082D5B00082D5B00082D5B00088F
:100130002D5B000800000000000000002D5B00089F
:100140002D5B00082D5B00082D5B00082D5B00086F
:100150002D5B00082D5B00082D5B00082D5B00085F
:100160002D5B00082D5B00082D5B00082D5B00084F
:100170002D5B00082D5B00082D5B000800000000CF
:10018000000000002D5B00080000000000000000DF
:100190002D5B000800000000000000002D5B00083F
:1001A0000000000000000000000000002D5B0008BF
:1001B0002D5B00082D5B00082D5B00082D5B0008FF
:0401C0002D5B0008AB
:1001C40010B5054C237833B9044B13B10448AFF38D
:1001D40000800123237010BD1000002000000000E7
:1001E400785B000808B5034B1BB103490348AFF320
:1001F400008008BD0000000014000020785B0008A7
:1002040053B94AB9002908BF00281CBF4FF0FF3179
:100214004FF0FF3000F07AB9ADF1080C6DE904CE6F
:1002240000F006F8DDF804E0DDE9022304B07047CD
:100234002DE9F0478C460D460446089E002B51D10B
:100244008A4217466DD9B2FA82FEBEF1000F0BD076
:10025400CEF1200C01FA0EF520FA0CFC02FA0EF78E
:100264004CEA050C00FA0EF44FEA174A250CBCFBC5
:10027400FAF81FFA87F90AFB18CC45EA0C4508FB83
:1002840009F3AB420AD9ED1908F1FF3280F023815A
:10029400AB4240F22081A8F102083D44ED1AA4B219
:1002A400B5FBFAF00AFB105544EA054400FB09F9D2
:1002B400A14509D9E41900F1FF3380F00A81A14571
:1002C40040F2078102383C44A4EB090440EA0840A8
:1002D4000021002E61D024FA0EF4002334607360F0
:1002E400BDE8F0878B4207D9002E54D0002186E860
:1002F40021000846BDE8F087B3FA83F1002940F0F5
:100304008E80AB4202D3824200F2FA80841A65EBFB
:1003140003050120AC46002E3FD086E81010BDE84E
:10032400F08712B90127B7FBF2F7B7FA87FEBEF1DF
:10033400000F34D1EB1B3A0C1FFA87FC0121B3FBED
:10034400F2F8250C02FB183345EA03450CFB08F3CD
:10035400AB4207D9ED1908F1FF3002D2AB4200F2EB
:10036400D1808046ED1AA3B2B5FBF2F002FB105522
:1003740043EA05440CFB00FCA44507D9E41900F149
:10038400FF3302D2A44500F2B8801846A4EB0C0453
:1003940040EA08409DE731463046BDE8F087CEF19B
:1003A400200405FA0EF307FA0EF720FA04F83A0CC3
:1003B40025FA04F448EA0308B4FBF2F14FEA1845BD
:1003C40002FB11441FFA87FC45EA044501FB0CF3C8
:1003D400AB4200FA0EF409D9ED1901F1FF3080F0B7
:1003E4008A80AB4240F2878002393D44EB1A1FFAFF
:1003F40088F5B3FBF2F002FB103345EA034500FB3A
:100404000CF3AB4207D9ED1900F1FF386FD2AB42C0
:100414006DD902383D44EB1A40EA01418FE7C1F13E
:10042400200722FA07F88B4005FA01F448EA03038F
:1004340020FA07FE4FEA134CFD404EEA040EB5FBCA
:10044400FCF94FEA1E440CFB19551FFA83F844EAE1
:10045400054509FB08F4AC4202FA01F200FA01FA7C
:1004640008D9ED1809F1FF3043D2AC4241D9A9F1C2
:1004740002091D442D1B1FFA8EFEB5FBFCF00CFB7C
:1004840010554EEA054400FB08F8A04507D9E418C6
:1004940000F1FF3529D2A04527D902381C4440EA8F
:1004A4000940A4EB0804A0FB02894C45C6464D460E
:1004B40015D312D056B1BAEB0E0364EB050404FA5B
:1004C40007F7CB401F43CC40376074600021BDE880
:1004D400F0871846F8E69046E0E6C245EAD2B8EB63
:1004E400020E69EB03050138E4E72846D7E74046E6
:1004F40091E78146BEE7014678E702383C4445E788
:10050400084608E7A8F102083D442BE7704700BFFE
:1005140038B50E4A0E4B054618784FF47A73B3FB80
:10052400F0F31068B0FBF3F000F0E8FB044658B9B0
:100534000F2D09D8024629464FF0FF3000F0AAFBE0
:10054400044B20461D6038BD012038BD0C0000203E
:10055400000000200400002008B50B4B1A6842F488
:1005640000721A601A6842F480621A601A6842F4CF
:1005740080721A60032000F07BFB0020FFF7C8FFA5
:1005840004F098FF002008BD003C0240034A044BDD
:1005940011681B780B441360704700BF6002002091
:1005A40000000020014B1868704700BF6002002063
:1005B40038B50446FFF7F6FF631C1CBF054B1B78D8
:1005C400054618BFE418FFF7EDFF401B8442FAD834
:1005D40038BD00BF0000002010B50446002800F01C
:1005E4009980036C23B9436480F83C3004F0AAFF7B
:1005F400236CDB0600F18C80236C23F4885323F0F6
:10060400020343F002032364434B5A6822F440324A
:100614005A605A6861680A435A60236821695A68B3
:1006240022F480725A605A6842EA01225A605A6877
:10063400A16822F040725A605A680A435A609A6864
:10064400E16822F400629A609A680A439A60334926
:10065400A26A8A4250D0996821F0706199609968C1
:100664000A439A609A68E16A22F040529A609A6852
:100674000A439A609A68A16922F002029A609A6811
:1006840042EA41029A60226A002A3DD05A68616AAD
:1006940042F400625A605A6822F460425A605A680E
:1006A400013942EA41325A60DA6AE16922F470029D
:1006B400DA62DA6A013942EA0152DA629A68216B33
:1006C40022F400729A609A6842EA41229A609A6817
:1006D400616922F480629A609A68002042EA812269
:1006E4009A606064236C23F0030343F001032364E2
:1006F400002384F83C3010BD9A6822F070629A603E
:100704009A6822F04052B4E75A6822F40062CAE7B9
:100714000120EDE7012010BD002301400100000F7E
:10072400F7B50023019390F83C30012B6AD00D6893
:1007340004688A680123092D80F83C30AEB22AD9B6
:1007440006EB4603E7681E3B4FF0070E0EFA03FE66
:1007540027EA0E07E760E76802FA03F33B43E36026
:100764004A68062A4FEA820325D81344676B591F47
:100774001F238B4027EA03036363626B06FA01F1CC
:10078400114361632D4B9C4234D0002380F83C30EC
:10079400184603B0F0BD276905EB45034FF0070E7B
:1007A4000EFA03FE27EA0E072761276902FA03F30C
:1007B4003B432361D4E70C2A0ED81344216BA3F1E5
:1007C40023021F23934021EA03032363236B06FAC6
:1007D40002F21A432263D5E71344E16A413B1F2224
:1007E4009A4021EA0202E262E26A06FA03F1114344
:1007F400E162C7E7122D07D1114A536843F480031D
:100804005360C2E70220C4E70E4B9D4201D0112D74
:10081400BBD10B494A689D4242F400024A60B4D1FC
:10082400094B0A4A1B68B3FBF2F20A2353430193B0
:10083400019B002BA9D0019B013BF8E7002001405C
:1008440000230140120000100C00002040420F0061
:1008540038B5044600286ED090F820300BB904F067
:10086400BFFE2268136823F002031360FFF79AFEA9
:10087400054623685A68910751D41A6842F0010268
:100884001A60FFF78FFE054623685A68D20754D5CD
:10089400227E012A1A680CBF42F0800222F08002F4
:1008A4001A60627E012A1A680CBF42F0400222F0EC
:1008B40040021A60A27E012A1A680CBF42F020028C
:1008C40022F020021A60E27E012A1A680CBF22F08C
:1008D400100242F010021A60227F012A1A680CBF2B
:1008E40042F0080222F008021A60627F012A1A68A4
:1008F4000CBF42F0040222F004021A60E168A2680C
:100904000A4321690A4361690A43616801390A4358
:10091400DA6100200123606284F8203038BDFFF7DB
:1009240041FE401B0A28A4D9636A43F4003363627E
:10093400052384F82030012038BDFFF733FE401B27
:100944000A28A1D9F0E7000090F82030012B30B537
:1009540003D090F82030022B77D13F4BD3F80022FC
:1009640042F00102C3F80022D3F8002222F47C52A0
:10097400C3F80022D3F80022486A42EA0022C3F8EE
:1009840000224869D3F81C5201248440E2431540F4
:10099400C3F81C52CD69002D36D1D3F80C52154042
:1009A400C3F80C52C000CD688B8800F1804000F57C
:1009B400C84043EA0543C0F840328D680B8843EAD7
:1009C4000543C0F844328869234B002835D1D3F855
:1009D40004021040C3F80402086990BBD3F814025F
:1009E4000240C3F814220B6A1B4A012B02BFD2F83F
:1009F4001C322343C2F81C32D2F8003223F0010324
:100A0400C2F80032002030BD012DDCD1D3F80C52E5
:100A14002543C3F80C520B688D8845EA0345C3008F
:100A240003F1804303F5C8438889C3F840528D68B5
:100A340040EA0540C3F84402C5E7D3F80402204362
:100A4400C8E7D3F814222243CBE7436A43F4802354
:100A54004362012030BD00BF0064004038B590F807
:100A64002030012B04461FD10268022380F8203075
:100A7400136823F001031360FFF794FD0546236810
:100A8400586810F0010001D1606238BDFFF78AFD9B
:100A9400401B0A28F3D9636A43F4003363620523D5
:100AA40084F82030012038BD436A43F400234362B4
:100AB400F8E7F0B590F82040012C03D090F82040DE
:100AC400022C41D10468A5686F0105D4A5682E01E4
:100AD40002D4A568ED0031D5A0680125C0F30160FA
:100AE40085401D608D68CF6800F118030DBB0D684B
:100AF40047EA45551B010001E55023180D69097D9E
:100B0400C3F88451012902BFD3F8841141F48071E0
:100B1400C3F8841104445168C4F88C111268C4F8F1
:100B24008821D3F8802142F00102C3F880210020FB
:100B3400F0BD4E683D4345EAC605DBE7436A43F42E
:100B4400001343620120F0BD436A43F48023F8E7B5
:100B5400F0B590F82040012C03D090F82040022CEE
:100B640070D1066841B9F468A40709D1436A43F413
:100B7400001343620120F0BD012901D13469F3E778
:100B84000C013519D5F8B07107F004079760002FF0
:100B94004BD1D5F8B0717F0D1760D5F8B071C7F39C
:100BA4004007D760D5F8B47107F00F071761D5F87F
:100BB400B471D5F8B4512644C7F307272D0C9761B7
:100BC4005561D6F8B8211A7002682244D2F8B821C7
:100BD400120A5A7002682244D2F8B821120C9A7090
:100BE40002682244D2F8B821120EDA700268224454
:100BF400D2F8BC211A7102682244D2F8BC21120A2C
:100C04005A7102682244D2F8BC21120C9A7102680B
:100C14001444D4F8BC21120EDA7159B90268D368AD
:100C240043F02003D3600020F0BDD5F8B071FF0875
:100C34005760B2E70129F6D10268136943F0200333
:100C44001361F0E7436A43F4802392E790F820307D
:100C5400012B03D090F82030022B07D1036819B977
:100C6400D86800F0030070471869FAE7002070475D
:100C7400074AD36823F4E0631B041B0C43F0BF63EF
:100C8400000243F4003300F4E0600343D360704790
:100C940000ED00E0174B30B5DC68C4F30224C4F166
:100CA4000703251D042B28BF0423062D4FF001053F
:100CB40005FA03F303F1FF338CBF033C002419400E
:100CC400A14005FA04F4013C2240002842EA010252
:100CD4004FEA0212AFBF00F1604000F00F00064B74
:100CE400D2B2A5BF00F56140D2B21A5480F80023F5
:100CF40030BD00BF00ED00E014ED00E00138B0F1BC
:100D0400807F0AD2064B074A5860F02182F82310EC
:100D14000020072298601A6070470120704700BFC6
:100D240010E000E000ED00E0044B1A6804280CBF5A
:100D340042F0040222F004021A60704710E000E05E
:100D4400704708B5FFF7FCFF08BD00002DE9F04F20
:100D540085B00B68DFF8A081654ADFF8A0910193A4
:100D640000234FF0010E019C0EFA03FE0EEA040666
:100D7400B64540F0AA804C6824F01007022F16D123
:100D84004FEAD30A00EB8A0A03F0070BDAF8205083
:100D94004FEA8B0B4FF00F0C0CFA0BFC25EA0C0CF2
:100DA4000D6905FA0BF545EA0C05CAF820504FEA1F
:100DB400430A0325D0F800B005FA0AF5ED4304F020
:100DC400030C0BEA050B0CFA0AFC013F4CEA0B0C72
:100DD400012FC0F800C011D8876807EA050BCF6857
:100DE40007FA0AFC4CEA0B078760476827EA0E0EED
:100DF400C4F300179F4047EA0E074760C7683D40A9
:100E04008F6807FA0AF73D43C560E5005DD54FF0EA
:100E1400000BCDF80CB0D8F84470364D47F4804739
:100E2400C8F84470D8F8447007F480470397039FC8
:100E340023F0030707F1804707F59C3703F0030C01
:100E4400D7F808A04FEA8C0C4FF00F0E0EFA0CFEE8
:100E5400A8422AEA0E0E3FD005F58065A8423DD08F
:100E640005F58065A8423BD005F58065A84239D0D8
:100E740005F58065A84237D0484537D005F50065AB
:100E8400A84214BF0725062505FA0CF545EA0E0508
:100E9400BD601568F74314F4803F0CBF3D403543F3
:100EA4001560556814F4003F0CBF3D403543556050
:100EB400956814F4801F0CBF3D4035439560D56898
:100EC400A40254BF3D403543D5600133102B7FF459
:100ED40048AF05B0BDE8F08F5D46D5E70125D3E7FF
:100EE4000225D1E70325CFE70425CDE70525CBE788
:100EF400003C01400000024000380240001402405F
:100F040070B50446002862D090F83D3003F0FF022B
:100F14001BB980F83C2004F097FB22682D4E2E4D1F
:100F2400242384F83D30136823F00103136000F098
:100F3400F5F863682268B0FBF5F5B34284BF4FF45B
:100F440096716943556091BF691C4FF47A75B1FB82
:100F5400F5F10131B342116221D85B00B0FBF3F02B
:100F6400C0F30B03032B98BF0420216AE369D0610B
:100F74000B431360E16823690B439360A1696369C0
:100F84000B43D360136843F0010313600020202354
:100F9400206484F83D30206384F83E0070BDA1686D
:100FA40049B903EB4303B0FBF3F0C0F30B0363B1A4
:100FB40040F40040D9E719214B43B0FBF3F0C0F3F0
:100FC4000B0313B140F44040CFE70120CDE70120EB
:100FD40070BD00BFA086010040420F002DE9F04122
:100FE4000D46044610B90120BDE8F081444B1A684F
:100FF40002F00F028A4228D321688F072DD4C80734
:1010040040D43F4B1A6802F00F02954266D322681F
:1010140051076CD4130707D53A4A2169936823F41E
:10102400604343EAC103936000F0A0FA354B364AAB
:101034009B68C3F30313D35CD840344B186000207F
:10104400FFF766FA0020BDE8F081CAB21A701B6887
:1010540003F00F039942C6D1CEE72A4B11F0040FD7
:101064001EBF9A6842F4E0529A600E0742BF9A6823
:1010740042F460429A609A68A06822F0F002024347
:101084009A60BCE762681F4B012A1DD11B6813F4E8
:10109400003FA8D01B4EB36823F003031343B3608F
:1010A400FFF780FA41F288380746B368626803F0B4
:1010B4000C03B3EB820FA4D0FFF774FAC01B4045B6
:1010C400F3D90320BDE8F081911E01291B6802D8E1
:1010D40013F0007FDDE713F0020FDAE7EAB21A70CB
:1010E4001B6803F00F039D427FF47DAF8FE7054932
:1010F400E0688B6823F4E05303438B608AE700BF06
:10110400003C024000380240C05C00080C00002093
:10111400014B1868704700BF0C000020044B054ABF
:101124009B68C3F38223D35C034A1068D84070479A
:1011340000380240D05C00080C000020044B054A33
:101144009B68C3F34233D35C034A1068D8407047AA
:1011540000380240D05C00080C00002003682DE930
:10116400F74313F0010604460BD0AA49866BD1F865
:101174008C2022F0C0623243B6FA86F6C1F88C2085
:1011840076099D070BD5A348E16BD0F88C2022F09B
:10119400C0520A430029C0F88C2008BF012613F06E
:1011A400040512D09B49256BD1F88C20B5F5801F1E
:1011B40022F4401242EA050218BFB5FA85F5C1F8D7
:1011C4008C2012BF6D090025012618070FD5914800
:1011D400616BD0F88C2022F440020A43B1F5800FF1
:1011E400C0F88C2000F00981002908BF0125990668
:1011F40033D500230193874B874F1A6C42F08052FA
:101204001A641B6C03F080530193019B3B6843F405
:1012140080733B60FFF7C6F980463B68DA0540F10E
:10122400EE807C4F3B6F13F4407340F0FB80236CE3
:1012340003F44072B2F5407F764A40F0168191681B
:1012440023F0704021F4F81120F4407001439160C0
:10125400116FC3F30B030B4313672368D90642BF13
:101264006E4B94F858201A6023681A0608D5694909
:10127400E06CD1F8942022F440020243C1F8942097
:101284005F0608D56349A06CD1F8942022F08062EF
:101294000243C1F89420D8050CD55E48616DD0F89E
:1012A400942022F000620A43B1F1006FC0F8942048
:1012B40008BF0125990508D55649606CD1F89420DA
:1012C40022F080520243C1F894205A0500F1D180E3
:1012D400012E40F0DC80524E4E4F00233360FFF766
:1012E40061F980463B681B0100F125812268D00723
:1012F40001D5A36B1BB1910715D5E36B9BB9454988
:10130400D1F88430D1F8840003F4403300F07060E5
:10131400034360680343A06843EA8013606943EAB7
:101324000073C1F88430530703D5236BB3F5801FD2
:1013340005D0170720D5636BB3F5800F1CD1354951
:10134400D1F88430D1F8840003F4403300F0E04055
:10135400034360680343A06843EA8013206943EAB7
:101364000063C1F88430D1F88C00A36A20F01F0018
:10137400013B0343C1F88C3050051BD5236DB3F1F9
:10138400005F17D123486768D0F88410D0F8843000
:1013940003F0E0433B43A768C1F30141013143EA51
:1013A400871343EA4163E1684908013943EA014389
:1013B400C0F88430110511D52369A2681B0643EADD
:1013C400821362681343626943EA0273E268520853
:1013D400013A43EA02430F4AC2F8843001233360DE
:1013E400FFF7E0F80B4E074633681A0153D4FFF7B2
:1013F400D9F8C01B0228F7D908E00126F7E6FFF761
:10140400D1F8A0EB080002287FF607AF032003B051
:10141400BDE8F0830038024000700040E01147420C
:1014240068004742226C02F4407293423FF4FFAEDC
:101434003B6F4B4A0121116023F44073002111607A
:101444003B673B6FDB077FF5F2AEFFF7ABF841F28A
:10145400883980463B6F98073FF5E9AEFFF7A2F85D
:10146400A0EB08004845F5D9D0E7916821F4F811BC
:10147400EDE63C48216DD0F8942022F000520A4356
:10148400B1F1005FC0F894207FF422AF23E7B3F5F5
:10149400006F3FF420AF012D4BD1334D314E00236B
:1014A4002B60FFF77FF8074633689B004BD4216815
:1014B4004E0701D5236B1BB108071AD5636BC3B95B
:1014C400284AA069D2F8883003F440330343E06922
:1014D40043EA8013606A43EA0063C2F88830D2F8B2
:1014E4008C30E06A23F4F853013843EA0023C2F84D
:1014F4008C30CA0514D5636DB3F1006F10D119494E
:10150400A269D1F8883003F070631343E26943EAB7
:101514008213226A5208013A43EA0243C1F888302E
:1015240001232B60FFF73EF80E4C054623689B0011
:101534000FD500206BE7FFF735F8A0EB0800022871
:101544007FF6D0AE62E7FFF72DF8C01B0228ABD9B7
:101554005CE7FFF727F8401B0228E7D956E700BFEE
:10156400400E47420038024070004742204908B507
:101574008B6803F00C03082B07D00C2B20D01D4ADA
:101584001D48042B18BF104608BD4A684B684968BB
:1015940013F4800314BF18481648C1F3881118BF08
:1015A400002302F03F02A1FB0001FEF729FE104BCD
:1015B4005B68C3F3014301335B00B0FBF3F008BD88
:1015C4004A684B68496813F4800314BF0A48094801
:1015D400C1F3881118BF002302F03F02A1FB0001F0
:1015E400FEF70EFE024B5B68C3F30273E5E700BF30
:1015F400003802400024F40040787D0103682DE99E
:10160400F341DF07044610D423689E0767D4236898
:101614001A0700F1B28023685B0700F1D080A26949
:10162400002A40F0398100201EE0974B9A6802F0AE
:101634000C02042A10D09A6802F00C02082A02D183
:101644005B685D0208D4904B9A6802F00C020C2A85
:101654000DD15A6850020AD58B4B1B689903D3D518
:101664006368002BD0D1012002B0BDE8F08162682C
:10167400B2F5803F11D11A6842F480321A60FEF745
:1016840091FF814D06462B689A03BDD4FEF78AFF6D
:10169400801B6428F7D90320E6E77B4DB2F5A02F21
:1016A4002B6807D143F480232B602B6843F48033E9
:1016B4002B60E4E723F480332B602B6823F480232E
:1016C4002B60002ADBD1FEF76DFF06462B689B03D7
:1016D4009AD5FEF767FF801B6428F7D9DBE76A4BCE
:1016E4009A6812F00C0F10D09A6802F00C02082AC3
:1016F40002D15B685F0208D5634A936803F00C0368
:101704000C2B11D153685E020ED45F4B1A689507F7
:1017140002D5E268012AA6D11A68216922F0F802EA
:1017240042EAC1021A6072E7E268584BB2B1012280
:101734001A60FEF737FF544D06462B68980707D505
:101744002B68226923F0F80343EAC2032B605EE7A7
:10175400FEF728FF801B0228EFD99CE71A60FEF7EA
:1017640021FF494D06462B6899077FF550AFFEF7D8
:1017740019FF801B0228F6D98DE76269444B7AB1C0
:1017840001221A60FEF70EFF3F4D06466B6F9F075E
:101794003FF541AFFEF706FF801B0228F6D97AE732
:1017A4001A60FEF7FFFE384D06466B6F98077FF50B
:1017B40032AFFEF7F7FE801B0228F6D96BE7324BF7
:1017C4001A6C12F0805228D101921A6C42F08052A5
:1017D4001A641B6C03F080530193019B01262D4D69
:1017E4002B68D9051BD5A368274D012B27D12B6F57
:1017F40043F001032B67FEF7D5FE234D074641F264
:1018040088382B6F9B0739D5002E3FF408AF1E4A4A
:10181400136C23F08053136401E70026DFE72B6881
:1018240043F480732B60FEF7BDFE07462B68DA0590
:10183400D9D4FEF7B7FEC01B0228F7D92BE7052B36
:1018440004D12B6F43F004032B67D0E72A6F22F0F7
:1018540001022A672A6F22F004022A67002BCAD1E8
:10186400FEF7A0FE41F2883807462B6F9807CBD5C8
:10187400FEF798FEC01B4045F7D90CE7FEF792FE31
:10188400C01B4045BDD906E700380240000047426E
:10189400800E474200700040234DAB6803F00C03F8
:1018A400082B3FF4E0AE214E0023022A33602DD1F1
:1018B400FEF778FE07462B68990121D4226AE36972
:1018C4001343626A43EA8213E26A43EA0263226BC5
:1018D40043EA0273A26A144C5208013A43EA0243EF
:1018E4006B6001233360FEF75DFE054623689A01B1
:1018F4003FF599AEFEF756FE401B0228F6D9CAE61C
:10190400FEF750FEC01B0228D5D9C4E6FEF74AFEF6
:1019140004462B689B017FF586AEFEF743FE001B51
:101924000228F6D9B7E600BF0038024060004742FB
:101934002DE9F04389B005460E46FEF733FE002339
:101944008146082128680093019301F004FB0446B2
:1019540040BB296D2868090401F008FC044608BB53
:101964004FF0FF330293082303933023049302239D
:1019740005930690012302A92868079301F0D8FA79
:10198400286801F024FC044660B9074640F22A485E
:101994002868436B13EA080F436B07D0190718D55F
:1019A40008248463204609B0BDE8F0839B0207D570
:1019B40001F000FA08AB03EB8703013743F8200C6E
:1019C400FEF7F0FDA0EB09000130E1D14FF0004437
:1019D400E8E7436B9A0701D50224E2E7436B9B06D1
:1019E40001D52024DDE740F2FF538363009B1BBA3B
:1019F4007360019B1BBA3360D4E72DE9F04F87B0C5
:101A040004460D4691469846109EFEF7CBFD0746C8
:101A14002DB9A36B43F00063A363012010E094F895
:101A24003400C0B2012840F0C180E26D09EB080324
:101A340000219342A16306D9A36B43F00073A3630F
:101A440007B0BDE8F08F032384F834302068636C5A
:101A5400C162012B4FF4007118BF4FEA492901F00C
:101A64007AFA50B1236840F2FF529A63A36B184389
:101A7400A063012084F83400E2E74FF0FF330093C1
:101A84004FEA48230193049090234FF0010A4FF04A
:101A9400020B694620680293CDF80CB0CDF814A06F
:101AA40001F046FAD04525D9C4F830B0494620683B
:101AB40001F081FA0028D5D12068436B13F4957F97
:101AC400436B1ED0DB0509D5B8F1010F06D9636C51
:101AD400032B03D001F0B8FA0028C3D123685A6B52
:101AE400100730D540F2FF529A63A36B43F008030A
:101AF400A363BEE7C4F830A04946206801F043FA66
:101B0400D8E71A040BD5A5F1040905F11C0A2068CD
:101B140001F050F949F8040FD145F8D1203566B9E0
:101B2400236840F2FF529A63A36B43F00043A3631C
:101B3400012384F83430032082E7FEF733FDC01B11
:101B44008642B9D8ECE75A6B910706D540F2FF52AA
:101B54009A63A36B43F00203CAE75A6B920618D543
:101B640040F2FF529A63A36B43F02003C0E701F0F5
:101B740021F945F8040B3EB9236840F2FF529A63F9
:101B8400A36B43F00043B3E7FEF70CFDC01B864292
:101B9400F2D92068436B13F40013E8D140F2FF52EA
:101BA4008263012284F83420184649E7A36B43F08A
:101BB400005331E72DE9F04387B004460D469146C2
:101BC4001E460E9FFEF7EEFC80462DB9A36B43F034
:101BD4000063A363012010E094F83400C0B201282C
:101BE40040F09D80E26D09EB060300219342A1635E
:101BF40006D9A36B43F00073A36307B0BDE8F08379
:101C0400032384F834302068636CC162012B4FF4E1
:101C1400007118BF4FEA492901F09DF950B12368BA
:101C240040F2FF529A63A36B1843A063012084F827
:101C34003400E2E7012E33D9202323634946206888
:101C440001F0E9F90028EAD14FF0FF330093730261
:101C54000193902302930390049001236946206822
:101C6400059301F065F92068436B13F48D7F436B92
:101C74001DD0DD0508D5012E06D9636C032B03D0D6
:101C840001F0E2F90028CAD123685A6B11072DD557
:101C940040F2FF529A63A36B43F00803A363C5E7C2
:101CA400102323634946206801F09DF9CAE75B04C9
:101CB40009D5A94620354946206809F1040901F0EF
:101CC4007CF84D45F7D157B9236840F2FF529A6327
:101CD400A36BA363012384F8343003208DE7FEF75C
:101CE40061FCA0EB08008742BDD8EDE75A6B920770
:101CF40006D540F2FF529A63A36B43F00203CDE78B
:101D0400586B40F2FF5210F010009A6303D0A36B9B
:101D140043F01003C2E7012384F834306DE7A36B6A
:101D240043F0005355E7436E9A0F0A70C3F383627E
:101D34004A70C3F301628A70C3F30742CA70C3F3E3
:101D44000722DBB20A714B71836E1A0E1201CA802C
:101D5400CA8830B592B2C3F303542243CA80C3F392
:101D640003420A72C3F30722D4094C72C2F38014EB
:101D74008C72C2F34014CC72C2F300140C730024AE
:101D84004C73446C002C40F08380920202F4406255
:101D94000A610A699B0003F47F7313430B61C26EEB
:101DA4000B6943EA92730B61C2F3C2630B75C2F30E
:101DB40002634B75C2F342538B75C2F38243CB75F6
:101DC400D30B03F006030B760C7EC2F30723C2F396
:101DD400C03222430A760A690C7E01320234A240E0
:101DE40042650D7A0124AC408465640A6243C2658D
:101DF4004FF400720266C3F380125B0003F07E03AB
:101E04004A768B76C36E8A7EC3F3C014224303F0F2
:101E14007F038A76CB76036FDA0F0A77C3F34172B6
:101E24004A77C3F382628A779A0D02F00C02CA776A
:101E3400CA7FC3F381500243CA77C3F3405281F887
:101E440020200020C3F3004281F8210081F82220E1
:101E5400C3F3C03281F82320C3F3803281F82420F5
:101E6400C3F3403281F82520C3F3003281F82620E1
:101E7400C3F3812281F82720C3F30122C3F346036D
:101E840081F8282081F82930012381F82A3030BDD7
:101E9400012C1AD11B0403F47C130B61C36E0A6971
:101EA4001C0E42EA04220A610C69C3F3074222436E
:101EB4000A610A69920202F580624265C2654FF4C2
:101EC4000072C3F30723826594E7036840F2FF526C
:101ED4009A63836B43F080538363012380F8343027
:101EE400184630BDF0B599B0002576230C930A95B9
:101EF4000B950AAB044693E807008DE807006F4E84
:101F040007950895099507AB0ECB206800F036FFBE
:101F140001273560206800F055FF37600220FEF786
:101F240047FB2068069501F0C1F8064668B92068A9
:101F340001F0E4F880B3A6644FF6FF75069B5A1CC3
:101F4400AB42069208D14FF08076012084F8340029
:101F5400A16B0E43A66381E00021206801F006F91D
:101F6400014610B14FF08056EFE7206801F016F9F2
:101F740001460028F6D1206800F03FFF0028DDDA92
:101F84000023636420680123ADF8163000F01EFFBF
:101F940010BB4FF080656BE0A7644FF6FF75069B9E
:101FA4005A1CAB420692CED00021206801F0DEF824
:101FB40006460028C9D14FF08041206801F0EEF8B0
:101FC40006460028C1D10146206800F016FFC30F61
:101FD400E5D04200D4D5D4E7636C032B1AD0206833
:101FE40001F00DF90546002842D10146206800F0B1
:101FF40004FF04216067206800F0FFFE0821A06749
:10200400206800F0FAFE0C21E067206800F0F5FE7D
:10201400C4F88000636C032B22D1636C032B2ED194
:102024000421206800F0E9FE000DE0640DA92046BB
:10203400FFF779FE226D20681204002301F01EF8D8
:102044000546A8B904F1100393E807008DE80700DA
:10205400231D0ECB206800F091FE284619B0F0BD78
:102064000DF11601206801F0F5F805460028D4D0DA
:10207400012084F83400A36B1D43A563EEE7BDF88B
:10208400161021652068090401F0CEF805460028E1
:10209400EED10146206800F0B0FE0421606620689D
:1020A40000F0ABFE0821A066206800F0A6FE0C211B
:1020B400E066206800F0A1FE2067B1E7A080254219
:1020C40010B50446A0B190F8343003F0FF0213B900
:1020D400027703F0F1FA032384F834302046FFF743
:1020E40001FF00200123A063206384F8343010BD75
:1020F400012010BD436C0B60836C4B60C36C8B6020
:10210400036DCB60436D0B61836D4B61C36D8B615C
:10211400036ECB610020704770B5032380F8343020
:10212400436C032B8AB004460E4602D0B1F5805F9F
:1021340003D1A36B43F0805356E0B1F5006F2DD16A
:10214400002100680491059100F057FE800120D41D
:1021540004A92046FFF7ECFB60B9059B59031AD587
:10216400216D2068090401F001F818B902212068E2
:1021740001F0F4F8A36B1843A063A56B002D35D0D0
:10218400236840F2FF5201209A6384F834000AB0B5
:1021940070BD3046EEE74FF08060EBE709BB0068A6
:1021A4000491059100F029FE820114D404A920466B
:1021B400FFF7BEFB60B9059BDB030FD5216D2068DB
:1021C400090400F0D3FF18B90146206801F0C6F8ED
:1021D400A16B0843D0E74FF40060F9E74FF080604B
:1021E400F6E7836B43F00063A363C6E76368049375
:1021F400A3680593E368069363690893A369099345
:1022040007960AAB13E907008DE8070004AB0ECB71
:10221400206800F0B3FD012384F834302846B6E783
:10222400016D10B509040446006801F067F8014621
:1022340028B9206800F0E1FDC0F3432010BDA36B72
:102244001943A1630020F7E710B50446002836D0EF
:102254000023836290F8513003F0FF021BB980F829
:10226400502003F069FA2168A068A269022384F867
:1022740051300B6823F040030B6063680343E0684C
:1022840003432069034360690343E0690343206A0D
:102294000343A06A034302F4007003430B60120C6F
:1022A400636A02F004021A434A60CB6923F40063B0
:1022B400CB6100200123606584F8513010BD0120FA
:1022C40010BD0000036A23F001030362036A42683D
:1022D40070B584690D6824F0730425438C6823F079
:1022E400020323430C4CA04209D004F58064A042AD
:1022F40005D042604A6885614263036270BDCC6860
:102304008E6923F0080323434C6922F4407234435A
:1023140023F004032243ECE700000140036A23F4A2
:1023240080730362036A426870B5C4690D6824F05F
:10233400730425438C6823F4007343EA04230E4C8E
:10234400A04209D004F58064A04205D042604A68E6
:10235400C561C263036270BDCC688E6923F40063F7
:1023640043EA04234C6922F44052344323F4806347
:1023740042EA0412EAE700BF00000140036A23F4C2
:102384008053036230B5046A4368C2690D6822F45D
:10239400E64242EA05228D6824F4005444EA0534F6
:1023A400094DA84209D005F58065A84205D04360CF
:1023B4004B68C2610364046230BD4D6923F48043F9
:1023C40043EA8513F3E700BF00000140036848684F
:1023D4009A6822F0700230B502430C6822F00702BA
:1023E400224350289A6021D002D8402810D030BD12
:1023F40060282DD070283DD1CA688C689868096916
:10240400224320F47F4042EA012202439A6030BD15
:10241400186A1A6A096922F001021A629A6922F09A
:10242400F00242EA01129A61186230BD88680D69AF
:10243400196A1C6A24F001041C629A6921F00A01D9
:1024440022F0F00242EA051201439A61196230BD9A
:10245400186A8C680D6920F01000186299691A6A6C
:1024640021F4704122F0A00241EA053142EA04124B
:1024740099611A6230BD7047704790F83830012B6B
:1024840070B54FF002031CD080F839300368012284
:1024940080F838209A6822F47F4222F077029A600A
:1024A4000A68402A79D019D8102A00F093800AD8F3
:1024B400002A00F08980012380F83930002380F855
:1024C4003830184670BD202A00F08A80302AF2D1B4
:1024D4009A6822F0700242F0370236E0702A36D051
:1024E4001BD8502A42D0602AE5D11C6A4D68CE68B8
:1024F40024F010041C6299691A6A21F4704122F0D4
:10250400A00242EA051241EA063199611A629A6808
:1025140022F0700242F0670217E0B2F5805F11D03A
:10252400B2F5005FC7D18A684D689C68C9682A43C0
:1025340024F47F4442EA012222439A609A6842F4D6
:10254400804202E09A6822F007029A60B3E78A6840
:102554004D689C68C9682A4324F47F4442EA0122F6
:1025640022439A609A6842F07702EEE74C68CE689C
:10257400196A1D6A25F001051D629A6921F00A0194
:1025840022F0F00242EA061221439A6119629A6823
:1025940022F0700242F05702D7E74C68CE68196AFD
:1025A4001D6A25F001051D629A6921F00A0122F0D5
:1025B400F00242EA061221439A6119629A6822F0F3
:1025C400700242F04702C0E79A6822F0700242F0BB
:1025D4000702BAE79A6822F0700242F01702B4E7E1
:1025E4009A6822F0700242F02702AEE738B590F8FC
:1025F4003830012B04464FF0020315D0012580F832
:10260400385080F83930FFF7E1FE2368DA6822F0A9
:102614004002DA60DA68002022F48042DA6084F84A
:10262400395084F8380038BD184638BD2E4A03683E
:10263400904212D0B0F1804F0FD0A2F57C4290426C
:102644000BD002F58062904207D002F5806290427E
:1026540003D002F5784290421DD14A6823F07003FA
:102664001343214A904204D1CA6823F440731343AC
:1026740028E0B0F1804FF7D01C4A9042F4D002F524
:1026840080629042F0D002F580629042ECD002F574
:1026940078429042E8D0164A9042E5D002F5806232
:1026A4009042E1D002F580629042DDD0A2F59832EA
:1026B4009042D9D002F580629042D5D002F5806272
:1026C4009042D1D003608B68C3620B688362064B6F
:1026D400984206D003F58063984202D001234361F7
:1026E40070470B690363F9E70000014000040040F0
:1026F4000040014010B50446A0B190F8393003F011
:10270400FF021BB980F8382003F04AF8022384F84A
:1027140039302068211DFFF789FF012384F83930FF
:10272400002010BD012010BD10B50446A0B190F8E2
:10273400393003F0FF021BB980F83820FFF79BFE05
:10274400022384F839302068211DFFF76FFF01232D
:1027540084F83930002010BD012010BD10B50446A6
:10276400A0B190F8393003F0FF021BB980F838208B
:10277400FFF782FE022384F839302068211DFFF719
:1027840055FF012384F83930002010BD012010BD0D
:1027940070B5046A1A4E24F0010404628469056A5F
:1027A400B04224F003041AD0B0F1804F17D0A6F53C
:1027B4007C46B04213D006F58066B0420FD006F5D1
:1027C4008066B0420BD006F57846B04207D006F5D5
:1027D4007056B04203D0A6F59436B0420DD12243D0
:1027E4001B0122F0F002DBB225F00A0501F00A0118
:1027F4001A4329438261016270BD44F00102EFE78C
:1028040000000140F8B590F83830012B04460D461D
:102814004FF0020019D0012384F8383084F83900CD
:10282400A2B9CB68206806C9FFF7B2FF2368A9687C
:102834009A6922F00C029A619A690A439A61012307
:10284400002084F8393084F83800F8BD042A8E68F2
:102854002368E86882C91FD11A6A22F010021A623A
:102864009A691D6A22F4407242EA0722000380B288
:1028740022F470420901024301F0A00125F0A000F6
:1028840001439A6119629A6922F440629A619A69D1
:1028940042EA06269E61D2E7082A1A6A1CD122F46B
:1028A40080721A62DA691D6A22F003023A43000157
:1028B400C0B222F0F0020902024301F4206125F4BF
:1028C40020600143DA611962DA6922F00C02DA61EC
:1028D400DA691643DE61B2E722F480521A62DA69D9
:1028E4001D6A22F4407242EA0722000322F4704275
:1028F40080B20903104301F4204125F4204211431E
:10290400D8611962DA6922F44062DA61DA6942EA6A
:102914000626DFE7036A23F010030362036A4268B2
:1029240070B584690D6824F4E64444EA05258C688E
:1029340023F0200343EA04130D4CA04209D004F50C
:102944008064A04205D042604A6885618263036264
:1029540070BDCC688E6923F0800343EA04134C698C
:1029640022F44062344323F0400342EA8402EAE75B
:102974000000014038B590F83830012B04464FF080
:10298400020018D0012384F8383084F839001D4639
:102994000C2A0BD8DFE802F0070A0A0A100A0A0A0E
:1029A400140A0A0A18002068FFF78CFC002084F837
:1029B400395084F8380038BD2068FFF7ABFFF5E7DD
:1029C4002068FFF7ABFCF1E72068FFF7D7FCEDE7E1
:1029D40090F83830012B10B54FF0020318D080F86E
:1029E400393003680C685A68496822F070025A60EA
:1029F4005A6822435A609A6822F080029A609A6860
:102A04000A439A60012380F83930002380F8383073
:102A1400184610BD90F83830012B1FD0CB688A6857
:102A240023F4407313434A6823F4806313430A680E
:102A340023F4006313430A6923F4805313434A695C
:102A440023F4005313438A6923F440431343026875
:102A54005364002380F838301846704702207047CA
:102A64002DE9F0470668C2683369C16923F440530D
:102A740013433361044683680069F2680343606961
:102A840022F41642034322F00C020B431343F36077
:102A94007369A26923F440731343B1F5004F736162
:102AA4007A4B7CD19E4203D003F580639E4244D18D
:102AB400FEF744FB192505FB00F360684FF0640939
:102AC4004000B3FBF0F3B3FBF9F34FEA0318FEF74E
:102AD40035FB636868435B00B0FBF3F7FEF72EFB3E
:102AE400636868435B00B0FBF3F3B3FBF9F309FBE2
:102AF4001373DB003233B3FBF9F35B0003F4F877B1
:102B0400FEF71CFB626868435200B0FBF2FAFEF762
:102B140015FB636868435B00B0FBF3F3B3FBF9F3A5
:102B240009FB13A3DB003233B3FBF9F303F0070310
:102B340043443B44B360BDE8F087FEF7EFFA192540
:102B440005FB00F360684FF064094000B3FBF0F349
:102B5400B3FBF9F34FEA0318FEF7E0FA636868433E
:102B64005B00B0FBF3F7FEF7D9FA636868435B00D8
:102B7400B0FBF3F3B3FBF9F309FB1373DB0032335C
:102B8400B3FBF9F35B0003F4F877FEF7C7FA626866
:102B940068435200B0FBF2FAFEF7C0FAB9E79E426E
:102BA40002D03B4B9E4240D1FEF7C8FA6768192514
:102BB4004FF0640905FB00F3BF00B3FBF7F3B3FB6D
:102BC400F9F31F01FEF7BAFA636868439B00B0FB90
:102BD400F3F8FEF7B3FA636868439B00B0FBF3F3C2
:102BE400B3FBF9F309FB13831B013233B3FBF9F392
:102BF40003F0F008FEF7A2FA626868439200B0FBA3
:102C0400F2FAFEF79BFA636868439B00B0FBF3F3A8
:102C1400B3FBF9F309FB13A31B013233B3FBF9F341
:102C240003F00F0343EA080383E7FEF777FA6768C4
:102C340019254FF0640905FB00F3BF00B3FBF7F35C
:102C4400B3FBF9F31F01FEF769FA636868439B005D
:102C5400B0FBF3F8FEF762FA636868439B00B0FBCD
:102C6400F3F3B3FBF9F309FB13831B013233B3FB17
:102C7400F9F303F0F008FEF751FA62686843920032
:102C8400B0FBF2FAFEF74AFABDE700BF00100140BC
:102C94000014014010B5044640B390F8393003F0F5
:102CA400FF021BB980F8382002F06CFE226824234E
:102CB40084F83930D36823F40053D3602046FFF7F7
:102CC400CFFE23681A6922F490421A615A6922F0ED
:102CD4002A025A61DA6842F40052DA6000202023A2
:102CE400E06384F8393084F83A3010BD012010BD17
:102CF400114B4FF4FA521B68B3FBF2F241F28833E2
:102D0400534313F1FF3314D3426B12F0450FF8D041
:102D1400436B5B0703D50423836318467047436BF7
:102D240013F0010301D00123F6E740F2FF5282635E
:102D3400F3E74FF00043F0E70C0000200E4B4FF494
:102D4400FA521B68B3FBF2F241F28833534313F196
:102D5400FF330ED3426B12F0450FF8D0436B13F0E0
:102D6400040315BF042340F2FF52836382631846B1
:102D740070474FF0004070470C00002084B010B53D
:102D840003AC84E80E000499039B42680B43059945
:102D94000B4306990B4307990B430899BDE8104070
:102DA40022F4FD420B4322F07F021343436004B03C
:102DB40000207047D0F8800070470B68C0F880305E
:102DC400002070470323036000207047006800F070
:102DD400030070470B6810B583608C684B68C26849
:102DE4002343CC680969234322F47F620B4322F016
:102DF4000F021343C360002010BD82B0143001449D
:102E0400002301930191019B186802B070470000F0
:102E1400454B10B51B684FF4FA54B3FBF4F35A4313
:102E2400002A4AD0436B13F0450F02F1FF32F7D06A
:102E3400436B5C0703D504238363184610BD436BBF
:102E440013F0010301D00123F6E70269D2B29142E3
:102E540036D140F2FF5219468263FFF7CEFF334B5F
:102E64000340002BE9D000282CDB42002DD4840041
:102E74002DD4C1002DD402012ED444012FD4C1017C
:102E840030D4020231D4440232D4810233D4C20297
:102E940034D4440335D4810336D4C20337D4040470
:102EA40038D4410439D482043AD410F0080F14BF42
:102EB4004FF400034FF48033BFE74FF00043BCE707
:102EC4000123BAE74FF00073B7E74023B5E7802347
:102ED400B3E74FF48073B0E74FF40073ADE74FF4FA
:102EE4008063AAE74FF40063A7E74FF48053A4E795
:102EF4004FF40053A1E74FF480439EE74FF400439F
:102F04009BE74FF4003398E74FF4802395E74FF4A1
:102F1400002392E74FF480138FE74FF400138CE7FC
:102F24004FF4800389E700BF0C00002008E0FFFD98
:102F34000B6810B543624B688362CC688B68C26AC5
:102F440023430C69496923430B4322F0F7021343DB
:102F5400C362002010BD30B587B040230393002323
:102F6400054601911024049301A94FF4806305934D
:102F74000294FFF72FFF41F2883221462846FFF7DB
:102F840047FF07B030BD30B587B04023039300231B
:102F9400054601911124049301A94FF4806305931C
:102FA4000294FFF717FF41F2883221462846FFF7C3
:102FB4002FFF07B030BD30B587B040230393002303
:102FC400054601911224049301A94FF480630593EB
:102FD4000294FFF7FFFE41F2883221462846FFF7AC
:102FE40017FF07B030BD30B587B0402303930023EB
:102FF400054601911824049301A94FF480630593B5
:103004000294FFF7E7FE41F2883221462846FFF793
:10301400FFFE07B030BD30B587B0402303930023D3
:10302400054601911924049301A94FF48063059383
:103034000294FFF7CFFE41F2883221462846FFF77B
:10304400E7FE07B030BD000030B587B00023054669
:1030540001930C244022049301A94FF4806303924A
:1030640005930294FFF7B6FE034A21462846FFF76C
:10307400CFFE07B030BD00BF00E1F50530B587B025
:1030840040230393002305460724049301A94FF426
:103094008063019205930294FFF79CFE41F288320B
:1030A40021462846FFF7B4FE07B030BD10B586B000
:1030B4000023019302930393049301A94FF48063C3
:1030C40005930446FFF786FE0B4B4FF4FA521B6838
:1030D400B3FBF2F241F28833534313F1FF3308D3C5
:1030E400626B1206F9D540F2FF53A363002006B0C9
:1030F40010BD4FF00040FAE70C00002010B586B078
:103104004FF4D573019308230293402303930023C0
:10311400049301A94FF4806305930446FFF75AFE14
:10312400114B4FF4FA521B68B3FBF2F241F28833AD
:10313400534313F1FF3314D3626B12F0450FF8D0ED
:10314400626B12F0040204D04023A363042006B08F
:1031540010BD606B10F04000F9D04023A36310460B
:10316400F5E74FF00040F2E70C00002030B587B0DF
:10317400402303930023054601913724049301A9B6
:103184004FF4806305930294FFF724FE41F28832E2
:1031940021462846FFF73CFE07B030BD10B586B087
:1031A4002923029341F000414023039341F4801109
:1031B400002304460191049301A94FF4806305930D
:1031C400FFF708FE2046FFF7B9FD06B010BD30B585
:1031D40087B000230546019333244022049301A9B8
:1031E4004FF48063039205930294FFF7F3FD41F2D9
:1031F400883221462846FFF70BFE07B030BD10B5D4
:1032040086B0002302220446019302920493C02252
:103214004FF4806301A903920593FFF7DBFD204679
:10322400FFF766FD06B010BD10B586B00923029302
:10323400C0230393002304460191049301A94FF48E
:1032440080630593FFF7C6FD2046FFF751FD06B0E6
:1032540010BD000030B587B0002303220193029211
:10326400049340224FF480630D4601A90392059311
:103274000446FFF7AFFD204B4FF4FA521B68B3FB33
:10328400F2F241F28833534313F1FF332BD3626BD1
:1032940012F0450FF8D0636B5A0703D50420A063DE
:1032A40007B030BD616B11F0010101D00120F6E7D8
:1032B4002369DBB2032B19D140F2FF53A3632046E9
:1032C400FFF79BFD10F4604303D1000C28801846DF
:1032D400E6E743040CD410F4004F14BF4FF48050BD
:1032E4004FF48030DCE74FF00040D9E70120D7E706
:1032F4004FF40050D4E700BF0C00002030B587B075
:10330400402303930023054601910D24049301A94E
:103314004FF4806305930294FFF75CFD41F2883219
:1033240021462846FFF774FD07B030BD30B587B09D
:10333400402303930023054601910624049301A925
:103344004FF4806305930294FFF744FD41F2883201
:1033540021462846FFF75CFD07B030BDFFF7E6BF06
:10336400034B1A1803EB8003107A5B685B681847F9
:1033740054000020064B1A5C42B901221A541A1850
:1033840003EB8003107A5B681B68184700207047C2
:103394005400002030B4054C251804EB8004606808
:1033A4008468287AA44630BC604700BF54000020DB
:1033B40030B4054C251804EB80046068C468287A8E
:1033C400A44630BC604700BF54000020054B10B435
:1033D4001C1803EB8003207A5B685DF8044B1B69BF
:1033E400184700BF5400002042884378007843EA1D
:1033F400022340EA032070470B0A017043700B0C50
:10340400090E8370C1707047024400F8011B90429A
:10341400FBD17047154BF0B500252A461C461E68A3
:10342400A6B10768BE4212D15F688668B7420ED162
:103434009F684669B7420AD1B1B904EB0212938975
:10344400B3F5807F14BF00201020F0BD01250132A8
:10345400022A03F11003E2D10DB10020F0BD0229CC
:103464000CBF00201220F0BD1020F0BD3000002061
:103474001C4AF0B50568002316461468AC4207D10F
:1034840057688468A74203D197684469A7421DD04E
:103494000133022B02F11002EFD1336813B1336907
:1034A400EBB901231C0132193551846840699060DD
:1034B40000205460908179B906EB0312928901329D
:1034C40092B206EB0316581CB281F0BD0029F3D06A
:1034D40006EB0312928912B94FF48072F1E70020CF
:1034E400F0BD00BF30000020013801280ED8094A81
:1034F4000301D118898921F4807080B208B1481E73
:1035040080B2D118888118B9D05070470220704712
:10351400002070473000002043690239023B994281
:103524003DBF4389806A01FB030000207047C36AE2
:1035340002680433490A5289B1FBF2F1186830B1C8
:10354400814202D3091A0833F8E7586808447047DF
:10355400026810B552B111460B4611F8014B202CEC
:103564000CD93A2CF8D1511C8B4202D04FF0FF30C9
:1035740010BD1278302AF9D101330360002010BD48
:1035840038B50D46044618B900232B60092038BD10
:103594000368002BF8D01A78002AF5D0D9888288DD
:1035A4009142F1D15878FFF7DBFE10F00100EBD126
:1035B40023682B6038BD01380A4411F8013B00F838
:1035C400013F9142F9D17047CA7E8B7E032843EABA
:1035D400022301BF487D0A7D42EA002243EA0243F6
:1035E40018467047C2F307238A76CB760378032BF9
:1035F40001BF120C0A75120A4A757047F8B5C56AFC
:1036040000F13007044601232A4639464078FFF783
:10361400CFFEA0B9236AA269E070EB1A934201D3EA
:103624000020F8BDA678012EFAD9A36960781D445C
:103634002A4601233946FFF7BBFE013EF3E701208A
:10364400F8BDC3780BB1FFF7D9BF18467047F8B57A
:103654000446FFF7F6FF0546002842D12378032BE2
:1036640037D12779012F34D104F1300601464FF4C4
:1036740000723046FFF7C8FE552384F82E32AA2381
:1036840084F82F3252234122722184F8303084F896
:103694003130612384F8323084F8332084F81622E0
:1036A40084F8173284F8141284F8151204F506709D
:1036B4002169FFF7A1FEE16804F50770FFF79CFE9E
:1036C400E26960780132E2623B463146FFF770FE00
:1036D4002571002211466078FFF778FE003018BF8C
:1036E4000120F8BDC36A8B4270B506460D4612D060
:1036F400FFF7A7FF044660B92A46012306F130010B
:103704007078FFF747FE00281CBF4FF0FF350124F7
:10371400F562204670BD0024FBE70000002310B5CD
:10372400C3704FF0FF33C3620446FFF7DBFF30BBC7
:1037340094F82F2294F82E3243EA02234AF65522B3
:1037440093421ED194F83030E92B05D0236B104AF4
:1037540003F0FF13934216D104F16600FFF744FE11
:103764000C4B20F07F4098420FD004F18200FFF709
:103774003BFE094B984214BF0220002010BD0420D8
:1037840010BD032010BD022010BD002010BD00BFDD
:10379400EB00900046415400464154332DE9F04378
:1037A400002385B00B600F461546FFF7D1FE061EB9
:1037B400C0F24081A34B53F82640002C00F03C811A
:1037C4003C60237805F0FE0573B16078FFF7C8FD0F
:1037D400C10709D4002D00F0318110F0040000D09D
:1037E4000A2005B0BDE8F0830023F0B223706070B6
:1037F400FFF7C0FDC20700F123810DB14307EFD4E9
:1038040000212046FFF78AFF022840F0F78004F5E4
:10381400FB75002115F8040C10B12846FFF7E4FDF0
:103824004DF821000131042905F11005F2D10025DC
:103834005DF82560002E00F0D88031462046FFF761
:103844006DFF012800F2D28094F83C2094F83B30BC
:1038540043EA0223B3F5007F40F0D48094F8473064
:1038640094F8465055EA032504D104F15400FFF7B7
:10387400BBFD054694F84090A56109F1FF33012B87
:1038840084F8029000F2BE8094F83D70BBB263816C
:10389400002B00F0B7807B1E3B4240F0B38094F8CD
:1038A400423094F8418048EA032818F00F0FA4F836
:1038B400088040F0A78094F8441094F8430050EA3C
:1038C400012003D104F15000FFF78EFD94F83F303E
:1038D40094F83E2052EA032200F0948005FB09F399
:1038E40002EB181E9E447045C0F08C80A0EB0E01C4
:1038F400B1FBF7F1002900F085804FF6F5708142A5
:1039040000F2848040F6F577B9428CBF0227012784
:103914000231324406EB0E00032F6161E66122623C
:10392400A06275D194F85B2094F85A3053EA0223CC
:1039340068D1B8F1000F65D104F15C00FFF754FDC4
:103944006062890001F2FF11B5EB512F5AD34FF099
:10395400FF332361E360032F4FF0800323712FD1E2
:1039640094F8612094F8603043EA0223012B27D1B4
:10397400711C2046FFF7B6FE10BB94F82F2294F872
:103984002E32207143EA02234AF65522934217D17C
:1039940004F13000FFF728FD2B4B984210D104F5B9
:1039A4000570FFF721FD294B984209D104F50670F3
:1039B400FFF71AFD206104F50770FFF715FDE060BD
:1039C400234A2770138801339BB21380E380214B71
:1039D4001A68944204BF00221A601A6994424FF094
:1039E40000007FF4FEAE1861FBE603200135042DD0
:1039F4007FF41EAF042805D10120F2E60428FBD091
:103A0400012801D90D20ECE600261DE703277FE7F6
:103A1400B8F1000FF6D0022F4FEA410018BF40184A
:103A2400134418BF01F0010163620CBF014601EBAE
:103A3400500187E70B20D4E60C20D2E62846D0E6D6
:103A44000320CEE62C000020525261417272416183
:103A5400500000203000002001292DE9F0470546E0
:103A64000C46174672D9436999426FD20378022BE8
:103A74003FD0032B50D0012B68D101EB5108016AD0
:103A840001EB5821FFF72EFE064638BB05F130093D
:103A940008F1010AC8F3080814F001041FBF19F85B
:103AA400083003F00F023B0103F0F00314BF13438B
:103AB400FBB209F80830296A0123EB7001EB5A21A3
:103AC4002846FFF70FFE064640B9CAF3080A44B178
:103AD400C7F3071709F80A700123EB703046BDE8F5
:103AE400F08719F80A30C7F3032723F00F031F43A5
:103AF400F0E7016A01EB1421FFF7F4FD0646002804
:103B0400ECD1640005F1300304F4FF741A191F5555
:103B1400C7F307275770DFE7016A01EBD411FFF7FA
:103B2400E1FD06460028D9D1A40005F1300304F4D0
:103B3400FE741C442046FFF757FC27F0704700F042
:103B4400704139432046FFF757FCC5E70226C5E715
:103B54000129F8B505460C4652D9436999424FD21A
:103B64000378022B29D0032B38D0012B48D101EB49
:103B74005106016A01EB5621FFF7B4FD10B14FF075
:103B8400FF30F8BD771C296AC6F308062E4401EB02
:103B94005721284696F83060FFF7A4FD0028EED19F
:103BA400C7F308073D44E30795F8300046EA0020D0
:103BB4004CBF0009C0F30B00F8BD016A01EB1421EE
:103BC400FFF790FD0028DAD16400303504F4FF7467
:103BD4002B19285D5B7840EA0320F8BD016A01EBEC
:103BE400D411FFF77FFD0028C9D1A40005F13000EE
:103BF40004F4FE742044FFF7F7FB20F07040F8BD96
:103C04000120F8BD2DE9F041804605680F4671B9E1
:103C1400EE68F6B16B699E4228BF012634466B6993
:103C240001349C4218D3012E15D8002409E02846FB
:103C3400FFF78EFF0128044637D9431C04D14FF007
:103C4400FF342046BDE8F0816B699842F9D33E46C3
:103C5400E4E70126E2E702242146D8F80000FFF752
:103C640077FF30B1012820D00130E8D0B442D6D15A
:103C7400DBE74FF0FF3221462846FFF7EDFE90B90F
:103C840057B96A692B69EC60023A93420FD92B79D0
:103C940043F001032B71D4E7224639462846FFF747
:103CA400DBFE0028EDD00128C9D00124C9E7013B7F
:103CB4002B61ECE7F8B50D46012D0746114601D8F6
:103CC4000220F8BD046863699D42F9D22AB14FF01D
:103CD400FF322046FFF7C0FE08BB29463868FFF7CD
:103CE40037FF064608B90020F8BD0128E8D0431C78
:103CF40014D0002229462046FFF7AEFE78B9626947
:103D04002369911E8B4205D201332361237943F049
:103D14000103237196423546DFD3E4E70120F8BD61
:103D2400826838B5002305460468436192B9237854
:103D3400022B01D9636A73B923890BB9022038BDF8
:103D4400636AEB61EB69AA61002BF7D030342C6213
:103D5400002038BD134661891A4661B911462868A6
:103D6400FFF7F6FE431C02460BD00128E6D963692F
:103D74009842F3D3E2E719462046FFF7CDFBE8610A
:103D8400E0E7012038BDC3692DE9F04705460F4639
:103D9400ABB1426902F12008B8F5001F0FD2C8F395
:103DA40008090468B9F1000F4FD181690133C36177
:103DB40041B92389B3EB581F47D80023EB61042092
:103DC400BDE8F0876389013B13EA58233DD12046BF
:103DD400FFF7BEFE0128064602D80220BDE8F087A0
:103DE400421C02D10120BDE8F0876369984226D3C2
:103DF400002FE2D0A9692846FFF704FF06460028F1
:103E040037D00128E9D0431CECD02046FFF719FC39
:103E140007460028E6D101464FF4007204F1300051
:103E2400FFF7F2FA31462046FFF776FB4FF0010A1E
:103E3400E06263899F4210D3E36ADF1BE762AE61ED
:103E440031462046FFF768FBE86130344C44C5F83E
:103E540014802C620020BDE8F08784F803A020467B
:103E6400FFF7CCFB0028BDD1E36A01330137E362DD
:103E7400DFE70720BDE8F0872DE9F843076804462B
:103E84000B782F2B0D4601F10101F9D05C2BF7D0F3
:103E94000023A3602B781F2B59D9DFF85C8104F130
:103EA40024060B2220213046FFF7AEFA002205F14A
:103EB400FF3E114608201EF8013F202B01F10101AD
:103EC4000BD92F2B4BD16818411B10F801EBBEF115
:103ED4002F0FF9D0BEF15C0FF6D00D44002A54D058
:103EE40094F82420D4F80090E52A04BF052284F82D
:103EF4002420212B34BF0423002384F82F302046B0
:103F0400FFF70EFF002845D1E1694846FFF7EAFBB9
:103F140000283FD1236A1A78002A46D0DA7A02F0C0
:103F24003F02A271DA7A11070CD403F10B0E314669
:103F340013F8012B11F801CB9E45A2EB0C0227D0FC
:103F4400002AF5D000212046FFF71DFFDAE7802381
:103F540084F82F302046BDE8F843FFF7E1BE5C2B20
:103F6400B1D02E2B36D090420FD913F0800F18BF4A
:103F7400803BDFF8889018BF18F8033019F801CF98
:103F8400BCF1000F2BD06345F8D10620BDE8F883BF
:103F9400002AD7D194F82F3048B1042829D113F03E
:103FA400040F08BF0520BDE8F8830420F2E75A0790
:103FB4001FD4A379DB060AD563693878C3F30803F1
:103FC40007F130011944FFF7FFFAA06067E7052005
:103FD400BDE8F8830B28D8D008220B206BE7A3F1A7
:103FE400610CBCF1190F01D8203BDBB2B354013290
:103FF40061E7BDE8F88300BF905B00085F5C0008E0
:1040040070B505460668FFF78BFE044628BBE969D0
:104014003046FFF767FB0446F8B92B6A1B78E52B9B
:1040240014D1E9693046FFF75DFB044660B90146E7
:104034002022286AFFF7E8F90B2205F12401286AF7
:10404400FFF7B9FA0123F370204670BD002BE8D0C6
:1040540001212846FFF797FED7E7042C08BF072461
:10406400F2E700007FB5019004A8009140F8041D18
:104074001646FFF76DFA051E1FDB124951F825405D
:104084005CB1114B1A68944204BF00221A601A6989
:104094000020944208BF18612070019808B10023E1
:1040A400037041F8250030B1012E08D1002201A986
:1040B4006846FFF773FB04B070BD0B20FBE70020DC
:1040C400F9E700BF2C000020300000202DE9F04764
:1040D40090B0904601910446002800F0CE8002F092
:1040E4003F052A4603A901A8FFF758FB074638BB3A
:1040F40010AE039B46F8303D01993046FFF7BCFEF5
:1041040058B99DF93F30002B1EDB15F03E0F14BF4C
:10411400012100213046FFF77DF918F01C0F73D000
:10412400A0B1042809D1714B1A68002A00F0DA8082
:104134001B69002B00F0D680122045F0080570B1F1
:1041440000232360074692E00620E6E79DF8163038
:1041540013F0110F63D118F0040F40F0BD8028074D
:104164003CD500F099FD024601460C980E30FFF74D
:1041740043F90C9811461630FFF73EF90C9BDDF815
:104184000C902022DA72DDF830A099F80000514634
:10419400FFF71AFA0022514680464846FFF722FAF2
:1041A4000C9B00221A775A779A77DA77039B0121BE
:1041B400D970B8F1000F11D041463046D3F82C9095
:1041C400FFF778FD0028BBD149460398FFF78AFA28
:1041D400039A08F1FF33D3600028B1D1039B280769
:1041E400DB6A636248BF45F0400515F0FE0F0C9B87
:1041F400A36214BF012100213046FFF739F9206181
:1042040000283CD102209BE7002899D19DF8163064
:10421400DA0663D418F0020FE0D0DB07DED50720FE
:104224008EE72068FFF794FC0128014623D9421C3D
:1042340050425041A5EB0805002849D0E16100280F
:104244007FF47EAFC5F308038BB1DDF80C804046E4
:10425400FFF762F90028D5D000EB55222262012332
:10426400314698F80100FFF795F8002838D1384610
:1042740010B0BDE8F0870220DCE70927F7E7039ECA
:10428400DDF8308030784146FFF79EF9A06008F1F0
:104294001C00FFF7A9F8F3882660002104F130061A
:1042A400E060A380E162257561752162A1614FF42C
:1042B40000723046FFF7A8F8AB06D8D5E568002DA4
:1042C400D5D0039BA168B3F80A80A5614FEA4828BA
:1042D400A845A6D30020B1E7082031E704202FE742
:1042E40001202DE73046FFF78BFE26E73000002043
:1042F4002DE9F04F9B4685B000238946CBF800306A
:1043040003A904461746FFF73BF9064658BB667DEA
:104314004EBB237D9A0740F1AE80A369FB4228BFC0
:10432400DF4304F1300AD7B1A169C1F30803002BBC
:1043340040F08F80039B5B89013B13EA5123019377
:1043440024D131B9A068A0B901462046FFF75AFC30
:1043540004E0E36A5BB12046FFF7E9F848B9237D3E
:1043640043F040032375304605B0BDE8F08FE169A2
:10437400EBE7012802D102266675F4E7431C01D15C
:104384000126F9E7A368E06103B9A06094F9143049
:10439400002B0CDA0398226A407801235146FFF778
:1043A40007F80028ECD1237D03F07F032375039BDA
:1043B400E16900931846FFF7AFF80028DBD0019BB2
:1043C4007D0A03EB000832D0009B019A5B890098B8
:1043D4002A449A4288BF019A407888BF9D1A2B4686
:1043E40042464946FEF7E4FF0028C9D1216AA1EB01
:1043F40008018D420AD94FF4007209EB412150465D
:10440400FFF7D9F8237D03F07F0323756D02A369B9
:10441400E2682B44A3619A422CBFE260E360DBF8BC
:1044240000302B44A944CBF800307F1B7BE7236A80
:1044340098450CD0A269E3689A4208D200980123F7
:10444400424651464078FEF7A5FF002898D1C4F8AB
:104454002080A069C0F30800C0F50075BD4228BFE4
:104464003D462A4649465044FFF7A5F8237D63F0AC
:104474007F032375CBE7072675E7F7B501A9044643
:10448400FFF77EF8054600283AD1237D5A0637D532
:104494001B060CD50198226A4078012304F13001EF
:1044A400FEF786FF78BB237D03F07F03237500F0BE
:1044B400F3FB616A07460198FFF714F90546F8B95A
:1044C400A66AF37A43F02003F372A26820683146A7
:1044D400FFF788F8E16806F11C00FEF78DFF394606
:1044E40006F11600FEF788FF0198B5740123F574F0
:1044F400C370FFF7ACF8237D23F040030546237512
:10450400284603B0F0BD0125FAE713B50446FFF7CA
:10451400B4FF48B901A92046FFF732F820B9206951
:10452400FEF7E2FF00B9206002B010BD2DE9F04FA4
:104534008DB00CAF0D4647F80C0D384616461C4698
:10454400FFF706F80028C0F29382BE4B53F82030E0
:104554000BB100221A705FFA80FA5046FEF70AFF88
:10456400C30700F18782470700F186820AAA032164
:104574005046FEF72BFF30B90A9A531EB3F5004F8D
:1045840001D21A4201D001230A9346B1AE4BA6F5DB
:1045940000729A4203D913200DB0BDE8F08F731E48
:1045A4003342F8D1169B23F4FF7323F001030393E2
:1045B4000BB90E20F0E70BAA01215046FEF706FFC7
:1045C400002840F03C8115F0080302930B9B0CBFBC
:1045D4004FF03F094FF000099945EAD8A3EB0903CE
:1045E4007F2B0B93E5D9720A802AD4D815F00201E7
:1045F400049105D005F00701022961D0E8075FD5D1
:10460400E907C8D50227190B0691590C05910A9997
:10461400481E49420890079140F6F57C4FF6F57E16
:10462400032F53D1002A4FD18848012630F8021FA6
:1046340011B1059D8D4245D2B3FBF6F184488D003E
:10464400A1F57F41F63905F2072581424FEA552548
:10465400AFD8002101914FF0200B0BEB0901009121
:1046640001996818009900EB010808990798032F2D
:10467400414401EA000108BF0098A1EB080101BF11
:1046840040188B440146009118BF6D18C9EB061100
:1046940008EB010083428CD3A3EB0B080199A8EB30
:1046A4000508032FA8EB0108B8FBF6F833D1F04551
:1046B40051D8002A7FF47DAF76083FF47AAFE3E166
:1046C4000327A0E77600B1E71646B5E70ABB6148C1
:1046D400012630F8021F11B1069D8D4217D2B3FB9B
:1046E400F6F565459BBF05EB4505013502356D08BB
:1046F4008CBF6D00033505F2FF154FF020018CBF10
:10470400022701276D0A01914FF0010BA5E77600FE
:10471400DFE71646E3E7022F17D1F0450BD9002A4D
:1047240040F0AC817600402E40F2AE81049900291D
:1047340040F0A88105E0E0450DD8002A7FF439AFA8
:104744007600802E3FF635AF9EE140F6F57398452E
:104754003FF62FAF01274FF4007200212046FEF7E9
:1047640053FE0B223C492046FEF725FF0B9984F8A3
:104774000EB000230222032FE3722273CBF3072B24
:104784004FF00102637418BF0223B1F5803F6673D2
:1047940084F80FB02274A37462D2E174C1F30721C8
:1047A4002175F82363753F2323764FF0000BFF2315
:1047B40084F819B0A37684F81BB0494604F11C00B0
:1047C400FEF71AFE032F50D100F066FA014604F1F9
:1047D4004300FEF711FE294604F12400FEF70CFE07
:1047E400022384F82C30012384F83030062384F823
:1047F4003230802384F84030184984F82DB02923BE
:1048040084F82EB084F82FB084F831B084F833B033
:1048140084F84230132204F14700FEF7CCFE4FF037
:10482400550384F8FE316FF0550384F8FF314A468E
:10483400012321465046FEF7BBFD834658B30120B1
:10484400AAE600BF2C00002000FEFF001C5C00084C
:10485400FFFFFE0F0E5C00082C5C0008385C0008AB
:1048640004F12000FEF7C8FD9BE700F015FA0146AD
:1048740004F12700FEF7C0FDC5F30723E375802389
:1048840084F824302923A57584F8263013227F491F
:1048940004F12B00C1E7032F41D1012309F10602E2
:1048A40021465046FEF784FD4FF4007259462046D7
:1048B400FEF7AAFD52234122722123706370612303
:1048C400A370E27084F8E41184F8E51184F8E62119
:1048D40084F8E73108F1FF3104F5F470FEF78CFD3C
:1048E400022384F8EC314FF0550384F8FE316FF065
:1048F400550384F8FF3109F107020123214684F8A6
:10490400EDB184F8EEB184F8EFB15046FEF750FDF6
:10491400012309EB030221465046FEF749FD039AA1
:1049240000212046FEF770FD032F58D1F823237091
:10493400FF236370A370E37023716371A371E37148
:1049440023726372A3720F23E372169B4FEA532BF5
:104954005D45A84628BFD84621464346009A50469E
:10496400FEF726FD014600287FF469AF4FF400727C
:104974002046FEF749FD009BB5EB08054344009330
:10498400E6D1019B032F08BF33460193019B009A94
:104994005B4528BF5B46214650461D46FEF708FD91
:1049A40000287FF44CAF009B2B440093019B5B1BBE
:1049B4000193EBD1032F1BD00B9BB3F5803F19D28E
:1049C400022F14BF01230423029AAAB10022114624
:1049D4005046FEF7FBFC003018BF0120DCE5012F38
:1049E4002B49204618BF6FF00701FEF705FDACE721
:1049F4000C23E9E70623E7E74FF400720299204607
:104A0400FEF702FD552284F8FE21AA2284F8FF2134
:104A14009DF8082084F8BE2184F8C1210B9A84F8FB
:104A2400C2314A4443F6C163B2FBF3F2FE2384F875
:104A3400C331930843F03F03012584F8C43184F85B
:104A4400C521494604F5E37084F8BF5184F8C05188
:104A5400FEF7D2FC0B9904F5E570FEF7CDFC2B466E
:104A6400029A21465046FEF7A3FC0028AED0E6E6A3
:104A74000B2091E503208FE50A208DE50499002998
:104A84003FF497AD164603273246C9E54C5C00084F
:104A9400F8FFFF0030B50F4B5D7A05F0FF04B5B9A0
:104AA4005D7A5C555D7A03EB85056860587A184435
:104AB40002725A7AD2B2501CC0B258723A233032BF
:104AC4004B702F230A708B70CC70204630BD0120B0
:104AD40030BD00BF540000200022FFF7DBBF000000
:104AE4000A4A537A7BB10378303BDBB202EB830191
:104AF400486840B1134400201872537A4860013B5F
:104B0400DBB2537270470120704700BF540000208D
:104B14000021FFF7E5BF000007B501208DF807006D
:104B24009DF8073083420BD10748FDF7C9FA38B91D
:104B34004FF400610448FDF7EFFA003018BF01207C
:104B440003B05DF804FB00BF300E002007B50093EE
:104B540013460A4601460448FCF74FFF003018BFCD
:104B6400012003B05DF804FB300E002007B500936C
:104B740013460A4601460448FDF71CF8003018BFE6
:104B8400012003B05DF804FB300E002008B5034893
:104B9400FDF746FB043818BF012008BD300E002085
:104BA40001460148FDF7A6BA300E002070B5294B26
:104BB4008AB002AA03F11805164618685968144603
:104BC40003C40833AB422246F7D118689B8820609F
:104BD400A38021492148FFF77FFF024648B91E49B7
:104BE4001F48FFF73FFA024640B11E211D4800F05E
:104BF400F7FB1948FFF78CFF012028E04FF40073FE
:104C040000930721184B1448FFF790FC08B12521A5
:104C1400ECE70A2215491648FFF758FA08B12D2186
:104C2400E4E7144D12482B461E223146FFF760FB81
:104C3400114B18702B68044603B108B13721D5E72E
:104C44000B48FFF762FC0448FFF762FF20460AB0F6
:104C540070BD00BF8C5C000872020020AC5C0008D0
:104C6400780200206F5C000860000020845C00086B
:104C7400A804002064020020D806002008B50349D7
:104C84000348FFF729FF034B187008BD7202002088
:104C9400AC5C0008DC0600200020704710B5ACB006
:104CA40000222B4B0192196C41F0805119641B6C4A
:104CB400284903F080530193019B02920B6823F46B
:104CC400404343F480430B600B680F9203F440436A
:104CD40008220293012110924822029B0B91022385
:104CE4001021119208A803220C9108930E93129399
:104CF40013921493FCF782FC014600B1FEE70F23E4
:104D0400049005900690079003A80393FCF766F9B6
:104D140000B1FEE74FF440732A90269015A815932E
:104D2400FCF71CFA044600B1FEE7FCF7F1F94FF476
:104D34007A73B0FBF3F0FBF7E1FF0420FBF7F4FF19
:104D4400224621464FF0FF30FBF7A4FF2CB010BDE4
:104D5400003802400070004030B51D481D4C092346
:104D64004FF4402284E809008BB00023226101251E
:104D74004FF480122046A360E36062612376637679
:104D8400A376E57623776377FBF762FD00B1FEE750
:104D940005900690009001900290039004900E23D9
:104DA40069462046079508950993FBF7CDFD00B1A8
:104DB400FEE72046FBF752FE00B1FEE7064B082251
:104DC4001D605D60D86098601A6118750BB030BDC5
:104DD40000640040041000202C1000202DE9F04154
:104DE4009AB0FBF7B9FBFFF759FF914B914C924EE8
:104DF40000220192196B41F004011963196B01F04F
:104E04000401019101990292196B41F08001196327
:104E1400196B01F08001029102990392196B41F020
:104E240001011963196B01F00101039103990492C3
:104E3400196B41F002011963196B01F0020104912D
:104E440004990592196B41F0080119631B6B6260A8
:104E540003F008030593059B784B23600125204646
:104E6400A2602261A2612262E262A662E260E5615E
:104E740022636561FBF7B0FB00B1FEE702231590E6
:104E840013A9204613931495FBF74AFC00B1FEE7DF
:104E94006B4C6C4B6060A0602061A0612062E0629A
:104EA400E060206320462360A662E5616561FBF74C
:104EB40093FB00B1FEE70423159013A92046139336
:104EC4001495FBF72DFC00B1FEE75F4B5F4A986039
:104ED4001025D86018615861187658769876D87677
:104EE40018775877184683E82400FBF7B1FC00B123
:104EF400FEE7574B574A584C986083E81400D86033
:104F04004FF4804258619861D861186218461A615A
:104F1400FBF7F6FF00B1FEE7504B514998604FF4A0
:104F2400827283E806004FF40072D86018615861F9
:104F34009A61D8611862586298620A221846DA6245
:104F4400FDF782F900B1FEE7464C474B6060A06074
:104F5400E0602061606120462360FDF7CBFB00B177
:104F6400FEE71AAD4FF4805345F8483D20462946E4
:104F7400FDF783FA00B1FEE72046FDF7D5FB00B14B
:104F8400FEE7002306A9374806930793FDF720FDA3
:104F940000B1FEE70C900D900E90109011901290BD
:104FA4000C220CA92F48FDF7E5FC00B1FEE7139095
:104FB40014901590169017904FF40053199013A95C
:104FC40028481893FDF726FD064600B1FEE7274C56
:104FD400244800F06FFC4FF08043204684E84800EA
:104FE400A660E6602661FDF785FB00B1FEE74FF49D
:104FF40080530CA920460C93FDF73FFA00B1FEE75D
:105004002046FDF791FB00B1FEE708900990294680
:105014002046FDF7DDFC024600B1FEE71390149034
:105024001590179013A92046FDF7A4FC00B3FEE7E2
:1050340000380240640D00200100000F00200140F0
:10504400A40C002000210140041000200064004052
:10505400400B0020005C0040A0860100940B00205F
:1050640000380040F40D002000000140C80F00206B
:10507400042213A92046FDF77DFC064600B1FEE795
:10508400204600F017FC8B488B4B866080E8480074
:10509400C6600661FDF72EFB00B1FEE78548FDF70B
:1050A4005DFB00B1FEE7072313931590502317907F
:1050B40013A980481493FDF799FA00B1FEE708900C
:1050C400099029467B48FDF783FC00B1FEE70C906C
:1050D40001230E900F9004220CA976480D93FDF73E
:1050E40091FB00B1FEE7754C754B6060A060E06019
:1050F400206120462360FDF7FDFA00B1FEE74FF47E
:1051040080530CA920460C93FDF7B7F900B1FEE7D4
:105114002046FDF709FB00B1FEE7089009902946F7
:105124002046FDF755FC00B1FEE71390149015904E
:105134001790042213A92046FDF71CFC064600B173
:10514400FEE7204600F0B6FB5E485F4B866080E8D1
:105154004800C6600661FDF7CDFA00B1FEE74FF4E2
:1051640080570CA957480C97FDF787F900B1FEE763
:105174005448FDF7D9FA00B1FEE708900990294692
:105184005048FDF725FC024600B1FEE71390149049
:105194001590179013A94B48FDF7ECFB00B1FEE7FF
:1051A400042213A94748FDF7E5FB064600B1FEE7D4
:1051B400464C444800F07EFB454BA660204684E8FC
:1051C4004800E66026616661FDF794FA00B1FEE7E7
:1051D400294620460897FDF750F900B1FEE720461E
:1051E400FDF7A2FA00B1FEE70690079006A9204653
:1051F400FDF7EEFB024600B1FEE70C900D900E9019
:105204000F901090119012900CA92046FDF7B2FB5C
:1052140000B1FEE704220CA92C48FDF7ABFB00B15A
:10522400FEE708220CA92948FDF7A4FB00B1FEE71C
:10523400139014901590169017904FF400531990F2
:1052440013A922481893FDF7E5FB044600B1FEE7D5
:105254001E4800F02FFB1F481F4B84604FF4E136BB
:105264000C2580E84800C460046145618461C46120
:10527400FDF710FD00B1FEE7184B194A9860D8609D
:1052840018619861D861184683E844005D61FDF7B0
:1052940001FD00B1FEE7134B134A9860D860186112
:1052A4009861D861184683E844005D61FDF7F2FC1B
:1052B400E0B1FEE7280D002000040040280C002087
:1052C40000080040EC0C0020000C0040EC0B002017
:1052D40000040140AC0D002000100140640C0020CB
:1052E40000480040B80E002000140140344B354AF9
:1052F4001A6058609860D860186158619861FFF727
:10530400BDFCFFF729FDFFF751FC01282E4E2F4C61
:1053140017D1DFF8C8802746354609233360237048
:105324006370A370E37023716371A371E3713A46F0
:10533400434629462648FBF7BCFB0A20FBF738F90D
:10534400EBE7234D234FDFF89080FBF72BF9030C99
:105354006371E071030A00212846A371FBF776FC10
:10536400C8B11C4B1C4A00212846FBF7F1FB07235C
:1053740033603B7823707B786370BB78A370FB78D1
:10538400E370D8F800302371104A144B0E492846B4
:10539400FBF78FFBD9E7012333602370022363708B
:1053A4000323A3700423E37005232371074A0B4BE3
:1053B40005492846FBF77DFB0A20FBF7F9F8C4E70B
:1053C400300E0020002C01402C100020EC0D002099
:1053D40004100020C00F002044100020B40E002050
:1053E400FEE7000010B5064C01232370FFF7CEFB47
:1053F400234618B9227802F0FE022270187810BDF4
:105404000800002010B5054C01232370FFF784FB2E
:1054140010B9FFF7E7FF2070207810BD08000020C6
:10542400FFF7E0BF08B5084611461A464FF0FF33B0
:10543400FFF78CFB20B9FFF7A9FB0028FBD108BDBF
:10544400012008BD10B5124B1B78DB0788B0144649
:105454001BD4032903D8DFE801F010050B12042044
:1054640008B010BD6846FFF79BFB069B236004E071
:105474006846FFF795FB079B23800020F0E768460A
:10548400FFF78EFB079B5B0AF0E70320E8E700BF0A
:105494000800002008B5084611461A464FF0FF33AD
:1054A400FFF764FB20B9FFF771FB0028FBD108BDAF
:1054B400012008BD13B5224B002400945A6C42F419
:1054C40080425A645A6C02F480420092009A019419
:1054D4001A6C42F080521A641B6C03F080530193DF
:1054E4000320019BFBF7C4FB224621466FF00B000F
:1054F400FBF7D0FB224621466FF00A00FBF7CAFBFC
:10550400224621466FF00900FBF7C4FB22462146E0
:105514006FF00400FBF7BEFB224621466FF0030048
:10552400FBF7B8FB224621466FF00100FBF7B2FB04
:10553400224621464FF0FF30FBF7ACFB02B010BD12
:105544000038024030B50368204A934289B01FD125
:1055540000241F4B01945A6C1E4842F480725A6412
:105564005B6C059403F480730193019B0C230DEB96
:105574000301032503930495FBF7E8FB1023164866
:1055840003930495059403A9FBF7E0FB09B030BD30
:10559400124A9342FAD100240D4B02945A6C0E48DD
:1055A40042F400725A645B6C059403F4007303259F
:1055B400029303A9029B03950495FBF7C7FB3023D1
:1055C40003930495059403A90248DDE700200140F4
:1055D400003802400000024000080240002101405F
:1055E400F0B50268154B9A4287B025D1002403F523
:1055F400EA3300941A6C124842F000721A641B6C6D
:10560400039403F000730093009B02274FF480532C
:105614000326092501A90193029704960595FBF732
:1056240095FB4FF4807301A90648019302970394F4
:1056340004960595FBF78AFB07B0F0BD00640040B3
:105644000000024000040240F0B50268164B9A4282
:1056540087B026D104244FF4807312270126032532
:105664000DEB0401114801930297039604950594E8
:10567400FBF76CFB10230DEB04010D48019302971B
:10568400039604950594FBF761FB00230093094BF3
:105694001A6C42F400021A641B6C03F400030093B6
:1056A400009B07B0F0BD00BF005C0040000002405A
:1056B4000004024000380240F0B502681A4B9A42D6
:1056C40087B02FD1002403F5863300945A6C174811
:1056D40042F400625A645B6C039403F40063009325
:1056E400022703260C25009B0297072301A9019397
:1056F40004960595FBF72AFB4FF4106301A90C48A7
:1057040001930297039404960595FBF71FFB04236A
:105714000DEB030107480193029703940496059542
:10572400FBF714FB07B0F0BD002C0140000402405D
:1057340000080240000C0240F0B50268154B9A4282
:1057440087B024D1002403F5003300941A6C124866
:1057540042F480421A641B6C039403F48043009364
:10576400009B02270C230326052501A90193029718
:1057740004960595FBF7EAFA4FF4005301A907488C
:1057840001930297039404960595FBF7DFFA07B09B
:10579400F0BD00BF00380040000802400004024091
:1057A40030B503683B4A93428BB00DD1002300937C
:1057B400394B5A6C42F001025A645B6C03F00103EA
:1057C4000093009B0BB030BDB3F1804F0CD100238C
:1057D4000193314B1A6C42F001021A641B6C03F002
:1057E40001030193019BEDE72C4A934221D100244C
:1057F400294B02941A6C2A4842F002021A641B6C68
:10580400079403F0020302930225029B06954023AA
:1058140005A9059308940995FBF798FA202305A98F
:10582400204805930695079408940995FBF78EFA8A
:10583400C8E71D4A93420CD100230393164B1A6CFC
:1058440042F004021A641B6C03F004030393039BE9
:10585400B8E7164A93420CD1002304930E4B1A6CFA
:1058640042F008021A641B6C03F008030493049BBF
:10587400A8E70F4A9342A5D100230593064B5A6C1F
:1058840042F002025A645B6C03F002030593059B29
:1058940098E700BF000001400038024000040040C7
:1058A400000002400004024000080040000C0040D8
:1058B4000004014070B503682C4A934286B00FD1AE
:1058C4004FF4006301930223029300230393049390
:1058D40001232748059301A9FBF738FA06B070BDE8
:1058E400B3F1804F15D14FF4004300240226012563
:1058F40001A91F4801930296039404940595FBF7AC
:1059040025FA4FF4007301930296039404940595C9
:105914000AE0184A93420AD1802300220193022309
:10592400029303920492059301A91348D4E7134AFE
:10593400934207D10323002201930223029303928B
:105944000492C6E70E4A9342C8D18023002402265B
:10595400032501A90648019302960394049405952E
:10596400FBF7F4F94FF44043CDE700BF00000140DA
:10597400000002400008004000040240000C004007
:1059840000040140F0B50368314A934289B01CD148
:10599400002300932F4B30485A6C42F010025A6493
:1059A4005B6C03F010030093009B4FF4C0630393FC
:1059B40002230493012305930323069307230793E8
:1059C40003A9FBF7C3F909B0F0BD244A934223D1DC
:1059D400002301931F4B22481A6C42F480221A645C
:1059E4001B6C03F480230193019B022720230126CF
:1059F4000325072403A903930497059606950794A2
:105A0400FBF7A4F94FF48063039304970596069576
:105A1400079403A91348D4E7134A9342D3D100232C
:105A240002930C4B0E485A6C42F020025A645B6C91
:105A340003F020030293029BC023039302230493E5
:105A440001230593032306930823079303A9B8E7C7
:105A540000100140003802400000024000480040AD
:105A64000008024000040240001401407047FEE7B1
:105A7400FEE7FEE7FEE770477047704708B5FAF7A0
:105A840085FDBDE80840FBF75CB900000F49D1F87B
:105A9400883043F47003C1F888300D4B1A68002035
:105AA40042F001021A6098601A6822F0847222F4AB
:105AB40080321A60074A5A601A6822F480221A60F7
:105AC400D8604FF000638B60704700BF00ED00E0CA
