:020000040800F2
:1000000000000220792E0008FD2D0008FF2D0008B9
:10001000012E0008032E0008052E00080000000035
:10002000000000000000000000000000072E000893
:10003000092E0008000000000B2E00080D2E0008FD
:10004000C92E0008C92E0008C92E0008C92E0008B4
:10005000C92E0008C92E0008C92E0008C92E0008A4
:10006000C92E0008C92E0008C92E0008C92E000894
:10007000C92E0008C92E0008C92E0008C92E000884
:10008000C92E0008C92E0008C92E0008C92E000874
:10009000292E00081D2E0008C92E0008C92E0008B0
:1000A000C92E0008C92E0008C92E0008C92E000854
:1000B000C92E0008C92E0008C92E0008C92E000844
:1000C000C92E0008C92E0008C92E0008C92E000834
:1000D000C92E0008C92E0008C92E0008C92E000824
:1000E000C92E0008C92E0008C92E0008C92E000814
:1000F000C92E0008C92E0008C92E0008C92E000804
:10010000C92E0008C92E0008C92E0008C92E0008F3
:10011000C92E0008C92E0008C92E0008C92E0008E3
:10012000C92E0008C92E0008C92E0008C92E0008D3
:10013000C92E00080000000000000000C92E0008C1
:10014000C92E0008C92E0008C92E0008C92E0008B3
:10015000C92E0008C92E0008C92E0008C92E0008A3
:10016000C92E0008C92E0008C92E0008C92E000893
:10017000C92E0008C92E0008C92E00080000000082
:1001800000000000C92E0008000000000000000070
:10019000C92E00080000000000000000C92E000861
:1001A000000000000000000000000000C92E000850
:1001B000C92E0008C92E0008C92E0008C92E000843
:0401C000C92E00083C
:1001C40010B5054C237833B9044B13B10448AFF38D
:1001D40000800123237010BD0C00002000000000EB
:1001E400142F000808B5034B1BB103490348AFF3B0
:1001F400008008BD0000000010000020142F00083B
:1002040053B94AB9002908BF00281CBF4FF0FF3179
:100214004FF0FF3000F07AB9ADF1080C6DE904CE6F
:1002240000F006F8DDF804E0DDE9022304B07047CD
:100234002DE9F0478C460D460446089E002B51D10B
:100244008A4217466DD9B2FA82FEBEF1000F0BD076
:10025400CEF1200C01FA0EF520FA0CFC02FA0EF78E
:100264004CEA050C00FA0EF44FEA174A250CBCFBC5
:10027400FAF81FFA87F90AFB18CC45EA0C4508FB83
:1002840009F3AB420AD9ED1908F1FF3280F023815A
:10029400AB4240F22081A8F102083D44ED1AA4B219
:1002A400B5FBFAF00AFB105544EA054400FB09F9D2
:1002B400A14509D9E41900F1FF3380F00A81A14571
:1002C40040F2078102383C44A4EB090440EA0840A8
:1002D4000021002E61D024FA0EF4002334607360F0
:1002E400BDE8F0878B4207D9002E54D0002186E860
:1002F40021000846BDE8F087B3FA83F1002940F0F5
:100304008E80AB4202D3824200F2FA80841A65EBFB
:1003140003050120AC46002E3FD086E81010BDE84E
:10032400F08712B90127B7FBF2F7B7FA87FEBEF1DF
:10033400000F34D1EB1B3A0C1FFA87FC0121B3FBED
:10034400F2F8250C02FB183345EA03450CFB08F3CD
:10035400AB4207D9ED1908F1FF3002D2AB4200F2EB
:10036400D1808046ED1AA3B2B5FBF2F002FB105522
:1003740043EA05440CFB00FCA44507D9E41900F149
:10038400FF3302D2A44500F2B8801846A4EB0C0453
:1003940040EA08409DE731463046BDE8F087CEF19B
:1003A400200405FA0EF307FA0EF720FA04F83A0CC3
:1003B40025FA04F448EA0308B4FBF2F14FEA1845BD
:1003C40002FB11441FFA87FC45EA044501FB0CF3C8
:1003D400AB4200FA0EF409D9ED1901F1FF3080F0B7
:1003E4008A80AB4240F2878002393D44EB1A1FFAFF
:1003F40088F5B3FBF2F002FB103345EA034500FB3A
:100404000CF3AB4207D9ED1900F1FF386FD2AB42C0
:100414006DD902383D44EB1A40EA01418FE7C1F13E
:10042400200722FA07F88B4005FA01F448EA03038F
:1004340020FA07FE4FEA134CFD404EEA040EB5FBCA
:10044400FCF94FEA1E440CFB19551FFA83F844EAE1
:10045400054509FB08F4AC4202FA01F200FA01FA7C
:1004640008D9ED1809F1FF3043D2AC4241D9A9F1C2
:1004740002091D442D1B1FFA8EFEB5FBFCF00CFB7C
:1004840010554EEA054400FB08F8A04507D9E418C6
:1004940000F1FF3529D2A04527D902381C4440EA8F
:1004A4000940A4EB0804A0FB02894C45C6464D460E
:1004B40015D312D056B1BAEB0E0364EB050404FA5B
:1004C40007F7CB401F43CC40376074600021BDE880
:1004D400F0871846F8E69046E0E6C245EAD2B8EB63
:1004E400020E69EB03050138E4E72846D7E74046E6
:1004F40091E78146BEE7014678E702383C4445E788
:10050400084608E7A8F102083D442BE7704700BFFE
:1005140038B50E4A0E4B054618784FF47A73B3FB80
:10052400F0F31068B0FBF3F000F000FD044658B996
:100534000F2D09D8024629464FF0FF3000F0B6FCD3
:10054400044B20461D6038BD012038BD0800002042
:10055400000000200400002008B50B4B1A6842F488
:1005640000721A601A6842F480621A601A6842F4CF
:1005740080721A60032000F087FC0020FFF7C8FF98
:1005840002F08EF9002008BD003C0240034A044BEF
:1005940011681B780B441360704700BF28000020CB
:1005A40000000020014B1868704700BF280000209D
:1005B40038B50446FFF7F6FF631C1CBF054B1B78D8
:1005C400054618BFE418FFF7EDFF401B8442FAD834
:1005D40038BD00BF0000002010B50446002800F01C
:1005E4009980036C23B9436480F83C3002F0A0F98D
:1005F400236CDB0600F18C80236C23F4885323F0F6
:10060400020343F002032364434B5A6822F440324A
:100614005A605A6861680A435A60236821695A68B3
:1006240022F480725A605A6842EA01225A605A6877
:10063400A16822F040725A605A680A435A609A6864
:10064400E16822F400629A609A680A439A60334926
:10065400A26A8A4250D0996821F0706199609968C1
:100664000A439A609A68E16A22F040529A609A6852
:100674000A439A609A68A16922F002029A609A6811
:1006840042EA41029A60226A002A3DD05A68616AAD
:1006940042F400625A605A6822F460425A605A680E
:1006A400013942EA41325A60DA6AE16922F470029D
:1006B400DA62DA6A013942EA0152DA629A68216B33
:1006C40022F400729A609A6842EA41229A609A6817
:1006D400616922F480629A609A68002042EA812269
:1006E4009A606064236C23F0030343F001032364E2
:1006F400002384F83C3010BD9A6822F070629A603E
:100704009A6822F04052B4E75A6822F40062CAE7B9
:100714000120EDE7012010BD002301400100000F7E
:10072400F7B50023019390F83C30012B6AD00D6893
:1007340004688A680123092D80F83C30AEB22AD9B6
:1007440006EB4603E7681E3B4FF0070E0EFA03FE66
:1007540027EA0E07E760E76802FA03F33B43E36026
:100764004A68062A4FEA820325D81344676B591F47
:100774001F238B4027EA03036363626B06FA01F1CC
:10078400114361632D4B9C4234D0002380F83C30EC
:10079400184603B0F0BD276905EB45034FF0070E7B
:1007A4000EFA03FE27EA0E072761276902FA03F30C
:1007B4003B432361D4E70C2A0ED81344216BA3F1E5
:1007C40023021F23934021EA03032363236B06FAC6
:1007D40002F21A432263D5E71344E16A413B1F2224
:1007E4009A4021EA0202E262E26A06FA03F1114344
:1007F400E162C7E7122D07D1114A536843F480031D
:100804005360C2E70220C4E70E4B9D4201D0112D74
:10081400BBD10B494A689D4242F400024A60B4D1FC
:10082400094B0A4A1B68B3FBF2F20A2353430193B0
:10083400019B002BA9D0019B013BF8E7002001405C
:1008440000230140120000100800002040420F0065
:1008540038B5044600286ED090F820300BB902F069
:10086400B5F82268136823F002031360FFF79AFEB9
:10087400054623685A68910751D41A6842F0010268
:100884001A60FFF78FFE054623685A68D20754D5CD
:10089400227E012A1A680CBF42F0800222F08002F4
:1008A4001A60627E012A1A680CBF42F0400222F0EC
:1008B40040021A60A27E012A1A680CBF42F020028C
:1008C40022F020021A60E27E012A1A680CBF22F08C
:1008D400100242F010021A60227F012A1A680CBF2B
:1008E40042F0080222F008021A60627F012A1A68A4
:1008F4000CBF42F0040222F004021A60E168A2680C
:100904000A4321690A4361690A43616801390A4358
:10091400DA6100200123606284F8203038BDFFF7DB
:1009240041FE401B0A28A4D9636A43F4003363627E
:10093400052384F82030012038BDFFF733FE401B27
:100944000A28A1D9F0E7000090F82030012B30B537
:1009540003D090F82030022B77D13F4BD3F80022FC
:1009640042F00102C3F80022D3F8002222F47C52A0
:10097400C3F80022D3F80022486A42EA0022C3F8EE
:1009840000224869D3F81C5201248440E2431540F4
:10099400C3F81C52CD69002D36D1D3F80C52154042
:1009A400C3F80C52C000CD688B8800F1804000F57C
:1009B400C84043EA0543C0F840328D680B8843EAD7
:1009C4000543C0F844328869234B002835D1D3F855
:1009D40004021040C3F80402086990BBD3F814025F
:1009E4000240C3F814220B6A1B4A012B02BFD2F83F
:1009F4001C322343C2F81C32D2F8003223F0010324
:100A0400C2F80032002030BD012DDCD1D3F80C52E5
:100A14002543C3F80C520B688D8845EA0345C3008F
:100A240003F1804303F5C8438889C3F840528D68B5
:100A340040EA0540C3F84402C5E7D3F80402204362
:100A4400C8E7D3F814222243CBE7436A43F4802354
:100A54004362012030BD00BF0064004038B590F807
:100A64002030012B04461FD10268022380F8203075
:100A7400136823F001031360FFF794FD0546236810
:100A8400586810F0010001D1606238BDFFF78AFD9B
:100A9400401B0A28F3D9636A43F4003363620523D5
:100AA40084F82030012038BD436A43F400234362B4
:100AB400F8E7F0B590F82040012C03D090F82040DE
:100AC400022C41D10468A5686F0105D4A5682E01E4
:100AD40002D4A568ED0031D5A0680125C0F30160FA
:100AE40085401D608D68CF6800F118030DBB0D684B
:100AF40047EA45551B010001E55023180D69097D9E
:100B0400C3F88451012902BFD3F8841141F48071E0
:100B1400C3F8841104445168C4F88C111268C4F8F1
:100B24008821D3F8802142F00102C3F880210020FB
:100B3400F0BD4E683D4345EAC605DBE7436A43F42E
:100B4400001343620120F0BD436A43F48023F8E7B5
:100B5400F0B590F82040012C03D090F82040022CEE
:100B640070D1066841B9F468A40709D1436A43F413
:100B7400001343620120F0BD012901D13469F3E778
:100B84000C013519D5F8B07107F004079760002FF0
:100B94004BD1D5F8B0717F0D1760D5F8B071C7F39C
:100BA4004007D760D5F8B47107F00F071761D5F87F
:100BB400B471D5F8B4512644C7F307272D0C9761B7
:100BC4005561D6F8B8211A7002682244D2F8B821C7
:100BD400120A5A7002682244D2F8B821120C9A7090
:100BE40002682244D2F8B821120EDA700268224454
:100BF400D2F8BC211A7102682244D2F8BC21120A2C
:100C04005A7102682244D2F8BC21120C9A7102680B
:100C14001444D4F8BC21120EDA7159B90268D368AD
:100C240043F02003D3600020F0BDD5F8B071FF0875
:100C34005760B2E70129F6D10268136943F0200333
:100C44001361F0E7436A43F4802392E790F820307D
:100C5400012B03D090F82030022B07D1036819B977
:100C6400D86800F0030070471869FAE7002070475D
:100C740070477047704770477047704770477047B8
:100C8400704770477047704770472DE9F84F036805
:100C94005E69D3F804909F68D3F80CB0D3F810A021
:100CA400D3F8188016F00104054622D017F0010489
:100CB40007D00122B9079A6040F1A380FFF7D8FF5B
:100CC4000024FB0509D52B684FF48072B8059A609F
:100CD40040F1A5802846FFF7CCFFFB0309D52B681C
:100CE4004FF48032B8039A6040F1A7802846FFF79A
:100CF400C1FF330707D51BF0100F1FBF2B6810224D
:100D040044F40074DA60770708D51BF0080F05D0A7
:100D14002B680822DA602846FFF7B1FFB00706D532
:100D24002B68DB68990702D02846FFF7A7FF7206F5
:100D340007D51AF0100F1FBF2B68102244F48064EB
:100D44001A61B30608D51AF0080F05D02B680822DB
:100D54001A612846FFF795FFF70606D52B681B692D
:100D6400980702D02846FFF78BFFB10308D519F086
:100D7400100F05D02B6810225A602846FFF782FF17
:100D8400F20308D519F0080F05D02B6808225A6021
:100D94002846FFF778FF33042AD519F0040F2A6890
:100DA40024D0F70504D518F0010F18BF44F001044E
:100DB400B00504D518F0020F18BF44F00204710501
:100DC40004D518F0040F18BF44F0040433050DD5FE
:100DD40018F070030AD0302B4CD03CD8102B43D0E1
:100DE400202B44D0936923F0700393610423536050
:100DF4002CB16B6A1C436C622846FFF745FFBDE8C3
:100E0400F88F7A0705D417F0080405D1FFF733FFEC
:100E140057E74FF4006454E74FF4805451E77905E1
:100E240002D544F4005458E73A0502D544F480440A
:100E340053E72846FFF720FF4FE7790302D544F430
:100E4400004456E73A0302D544F4803451E7284677
:100E5400FFF713FF4DE7502B0FD0602B10D0402B22
:100E6400C0D144F04004BDE744F00804BAE744F0BC
:100E74001004B7E744F02004B4E744F08004B1E779
:100E840044F48074AEE70000074AD36823F4E063B7
:100E94001B041B0C43F0BF63000243F4003300F453
:100EA400E0600343D360704700ED00E0174B30B5BA
:100EB400DC68C4F30224C4F10703251D042B28BFF6
:100EC4000423062D4FF0010505FA03F303F1FF3364
:100ED4008CBF033C00241940A14005FA04F4013CF2
:100EE4002240002842EA01024FEA0212AFBF00F199
:100EF400604000F00F00064BD2B2A5BF00F5614080
:100F0400D2B21A5480F8002330BD00BF00ED00E0D7
:100F140014ED00E04209012300F01F0003FA00F081
:100F2400014B43F82200704700E100E00138B0F1C2
:100F3400807F0AD2064B074A5860F02182F82310BA
:100F44000020072298601A6070470120704700BF94
:100F540010E000E000ED00E0044B1A6804280CBF28
:100F640042F0040222F004021A60704710E000E02C
:100F7400704708B5FFF7FCFF08BD00002DE9F04FEE
:100F840085B00B68DFF8A081654ADFF8A091019372
:100F940000234FF0010E019C0EFA03FE0EEA040634
:100FA400B64540F0AA804C6824F01007022F16D1F1
:100FB4004FEAD30A00EB8A0A03F0070BDAF8205051
:100FC4004FEA8B0B4FF00F0C0CFA0BFC25EA0C0CC0
:100FD4000D6905FA0BF545EA0C05CAF820504FEAED
:100FE400430A0325D0F800B005FA0AF5ED4304F0EE
:100FF400030C0BEA050B0CFA0AFC013F4CEA0B0C40
:10100400012FC0F800C011D8876807EA050BCF6824
:1010140007FA0AFC4CEA0B078760476827EA0E0EBA
:10102400C4F300179F4047EA0E074760C7683D4076
:101034008F6807FA0AF73D43C560E5005DD54FF0B8
:10104400000BCDF80CB0D8F84470364D47F4804707
:10105400C8F84470D8F8447007F480470397039F96
:1010640023F0030707F1804707F59C3703F0030CCF
:10107400D7F808A04FEA8C0C4FF00F0E0EFA0CFEB6
:10108400A8422AEA0E0E3FD005F58065A8423DD05D
:1010940005F58065A8423BD005F58065A84239D0A6
:1010A40005F58065A84237D0484537D005F5006579
:1010B400A84214BF0725062505FA0CF545EA0E05D6
:1010C400BD601568F74314F4803F0CBF3D403543C1
:1010D4001560556814F4003F0CBF3D40354355601E
:1010E400956814F4801F0CBF3D4035439560D56866
:1010F400A40254BF3D403543D5600133102B7FF427
:1011040048AF05B0BDE8F08F5D46D5E70125D3E7CC
:101114000225D1E70325CFE70425CDE70525CBE755
:10112400003C01400000024000380240001402402C
:1011340070B50446002862D090F83D3003F0FF02F9
:101144001BB980F83C2001F085FC22682D4E2E4D01
:10115400242384F83D30136823F00103136000F066
:10116400F5F863682268B0FBF5F5B34284BF4FF429
:1011740096716943556091BF691C4FF47A75B1FB50
:10118400F5F10131B342116221D85B00B0FBF3F0F9
:10119400C0F30B03032B98BF0420216AE369D061D9
:1011A4000B431360E16823690B439360A16963698E
:1011B4000B43D360136843F0010313600020202322
:1011C400206484F83D30206384F83E0070BDA1683B
:1011D40049B903EB4303B0FBF3F0C0F30B0363B172
:1011E40040F40040D9E719214B43B0FBF3F0C0F3BE
:1011F4000B0313B140F44040CFE70120CDE70120B9
:1012040070BD00BFA086010040420F002DE9F041EF
:101214000D46044610B90120BDE8F081444B1A681C
:1012240002F00F028A4228D321688F072DD4C80701
:1012340040D43F4B1A6802F00F02954266D32268ED
:1012440051076CD4130707D53A4A2169936823F4EC
:10125400604343EAC103936000F098F8354B364A83
:101264009B68C3F30313D35CD840344B186000204D
:10127400FFF74EF90020BDE8F081CAB21A701B686E
:1012840003F00F039942C6D1CEE72A4B11F0040FA5
:101294001EBF9A6842F4E0529A600E0742BF9A68F1
:1012A40042F460429A609A68A06822F0F002024315
:1012B4009A60BCE762681F4B012A1DD11B6813F4B6
:1012C400003FA8D01B4EB36823F003031343B3605D
:1012D400FFF768F941F288380746B368626803F09B
:1012E4000C03B3EB820FA4D0FFF75CF9C01B40459D
:1012F400F3D90320BDE8F081911E01291B6802D8AF
:1013040013F0007FDDE713F0020FDAE7EAB21A7098
:101314001B6803F00F039D427FF47DAF8FE70549FF
:10132400E0688B6823F4E05303438B608AE700BFD3
:10133400003C0240003802402C2F00080800002026
:10134400014B1868704700BF08000020044B054A91
:101354009B68C3F38223D35C034A1068D840704768
:10136400003802403C2F000808000020044B054AC6
:101374009B68C3F34233D35C034A1068D840704778
:10138400003802403C2F000808000020204908B51E
:101394008B6803F00C03082B07D00C2B20D01D4ABC
:1013A4001D48042B18BF104608BD4A684B6849689D
:1013B40013F4800314BF18481648C1F3881118BFEA
:1013C400002302F03F02A1FB0001FEF719FF104BBE
:1013D4005B68C3F3014301335B00B0FBF3F008BD6A
:1013E4004A684B68496813F4800314BF0A480948E3
:1013F400C1F3881118BF002302F03F02A1FB0001D2
:10140400FEF7FEFE024B5B68C3F30273E5E700BF21
:10141400003802400024F40000127A0003682DE929
:10142400F341DF07044610D423689E0767D423687A
:101434001A0700F1B28023685B0700F1D080A2692B
:10144400002A40F0398100201EE0974B9A6802F090
:101454000C02042A10D09A6802F00C02082A02D165
:101464005B685D0208D4904B9A6802F00C020C2A67
:101474000DD15A6850020AD58B4B1B689903D3D5FA
:101484006368002BD0D1012002B0BDE8F08162680E
:10149400B2F5803F11D11A6842F480321A60FFF726
:1014A40081F8814D06462B689A03BDD4FFF77AF87C
:1014B400801B6428F7D90320E6E77B4DB2F5A02F03
:1014C4002B6807D143F480232B602B6843F48033CB
:1014D4002B60E4E723F480332B602B6823F4802310
:1014E4002B60002ADBD1FFF75DF806462B689B03CF
:1014F4009AD5FFF757F8801B6428F7D9DBE76A4BC6
:101504009A6812F00C0F10D09A6802F00C02082AA4
:1015140002D15B685F0208D5634A936803F00C0349
:101524000C2B11D153685E020ED45F4B1A689507D9
:1015340002D5E268012AA6D11A68216922F0F802CC
:1015440042EAC1021A6072E7E268584BB2B1012262
:101554001A60FFF727F8544D06462B68980707D5FD
:101564002B68226923F0F80343EAC2032B605EE789
:10157400FFF718F8801B0228EFD99CE71A60FFF7E1
:1015840011F8494D06462B6899077FF550AFFFF7D0
:1015940009F8801B0228F6D98DE76269444B7AB1B9
:1015A40001221A60FEF7FEFF3F4D06466B6F9F0750
:1015B4003FF541AFFEF7F6FF801B0228F6D97AE724
:1015C4001A60FEF7EFFF384D06466B6F98077FF5FC
:1015D40032AFFEF7E7FF801B0228F6D96BE7324BE8
:1015E4001A6C12F0805228D101921A6C42F0805287
:1015F4001A641B6C03F080530193019B01262D4D4B
:101604002B68D9051BD5A368274D012B27D12B6F38
:1016140043F001032B67FEF7C5FF234D074641F254
:1016240088382B6F9B0739D5002E3FF408AF1E4A2C
:10163400136C23F08053136401E70026DFE72B6863
:1016440043F480732B60FEF7ADFF07462B68DA0581
:10165400D9D4FEF7A7FFC01B0228F7D92BE7052B27
:1016640004D12B6F43F004032B67D0E72A6F22F0D9
:1016740001022A672A6F22F004022A67002BCAD1CA
:10168400FEF790FF41F2883807462B6F9807CBD5B9
:10169400FEF788FFC01B4045F7D90CE7FEF782FF31
:1016A400C01B4045BDD906E7003802400000474250
:1016B400800E474200700040234DAB6803F00C03DA
:1016C400082B3FF4E0AE214E0023022A33602DD1D3
:1016D400FEF768FF07462B68990121D4226AE36963
:1016E4001343626A43EA8213E26A43EA0263226BA7
:1016F40043EA0273A26A144C5208013A43EA0243D1
:101704006B6001233360FEF74DFF054623689A01A1
:101714003FF599AEFEF746FF401B0228F6D9CAE60C
:10172400FEF740FFC01B0228D5D9C4E6FEF73AFFF6
:1017340004462B689B017FF586AEFEF733FF001B42
:101744000228F6D9B7E600BF0038024060004742DD
:1017540010B50446002836D00023836290F8513037
:1017640003F0FF021BB980F8502001F0ABF92168A7
:10177400A068A269022384F851300B6823F0400367
:101784000B6063680343E0680343206903436069B3
:101794000343E0690343206A0343A06A034302F45A
:1017A400007003430B60120C636A02F004021A43D4
:1017B4004A60CB6923F40063CB6100200123606598
:1017C40084F8513010BD012010BD0000036A23F0DD
:1017D40001030362036A426870B584690D6824F0EA
:1017E400730425438C6823F0020323430C4CA0426A
:1017F40009D004F58064A04205D042604A6885613E
:101804004263036270BDCC688E6923F008032343EE
:101814004C6922F44072344323F004032243ECE77E
:1018240000000140036A23F480730362036A426880
:1018340070B5C4690D6824F0730425438C6823F4DF
:10184400007343EA04230E4CA04209D004F58064DB
:10185400A04205D042604A68C561C263036270BD9C
:10186400CC688E6923F4006343EA04234C6922F4B0
:101874004052344323F4806342EA0412EAE700BF8F
:1018840000000140036A23F48053036230B5046A04
:101894004368C2690D6822F4E64242EA05228D6873
:1018A40024F4005444EA0534094DA84209D005F54E
:1018B4008065A84205D043604B68C261036404623A
:1018C40030BD4D6923F4804343EA8513F3E700BF39
:1018D40000000140036848689A6822F0700230B53D
:1018E40002430C6822F00702224350289A6021D058
:1018F40002D8402810D030BD60282DD070283DD1AA
:10190400CA688C6898680969224320F47F4042EAD7
:10191400012202439A6030BD186A1A6A096922F0EA
:1019240001021A629A6922F0F00242EA01129A61F3
:10193400186230BD88680D69196A1C6A24F00104B4
:101944001C629A6921F00A0122F0F00242EA0512AF
:1019540001439A61196230BD186A8C680D6920F0E0
:101964001000186299691A6A21F4704122F0A002E9
:1019740041EA053142EA041299611A6230BD7047A6
:10198400704790F83830012B70B54FF002031CD02B
:1019940080F839300368012280F838209A6822F4EC
:1019A4007F4222F077029A600A68402A79D019D8D7
:1019B400102A00F093800AD8002A00F089800123BD
:1019C40080F83930002380F83830184670BD202A5A
:1019D40000F08A80302AF2D19A6822F0700242F034
:1019E400370236E0702A36D01BD8502A42D0602AFB
:1019F400E5D11C6A4D68CE6824F010041C62996914
:101A04001A6A21F4704122F0A00242EA051241EA66
:101A1400063199611A629A6822F0700242F06702F4
:101A240017E0B2F5805F11D0B2F5005FC7D18A68C4
:101A34004D689C68C9682A4324F47F4442EA012221
:101A440022439A609A6842F4804202E09A6822F043
:101A540007029A60B3E78A684D689C68C9682A439C
:101A640024F47F4442EA012222439A609A6842F0B5
:101A74007702EEE74C68CE68196A1D6A25F0010505
:101A84001D629A6921F00A0122F0F00242EA06126C
:101A940021439A6119629A6822F0700242F0570257
:101AA400D7E74C68CE68196A1D6A25F001051D62E6
:101AB4009A6921F00A0122F0F00242EA0612214357
:101AC4009A6119629A6822F0700242F04702C0E7F4
:101AD4009A6822F0700242F00702BAE79A6822F08C
:101AE400700242F01702B4E79A6822F0700242F0E2
:101AF4002702AEE738B590F83830012B04464FF092
:101B0400020315D0012580F8385080F83930FFF7EA
:101B1400E1FE2368DA6822F04002DA60DA68002025
:101B240022F48042DA6084F8395084F8380038BDF1
:101B3400184638BD2E4A0368904212D0B0F1804F47
:101B44000FD0A2F57C4290420BD002F58062904205
:101B540007D002F58062904203D002F578429042A9
:101B64001DD14A6823F070031343214A904204D1E3
:101B7400CA6823F44073134328E0B0F1804FF7D0D0
:101B84001C4A9042F4D002F580629042F0D002F5F3
:101B940080629042ECD002F578429042E8D0164A36
:101BA4009042E5D002F580629042E1D002F5806275
:101BB4009042DDD0A2F598329042D9D002F58062ED
:101BC4009042D5D002F580629042D1D003608B68F8
:101BD400C3620B688362064B984206D003F58063A8
:101BE400984202D00123436170470B690363F9E70C
:101BF40000000140000400400040014010B50446CC
:101C0400A0B190F8393003F0FF021BB980F83820F6
:101C140000F08CFF022384F839302068211DFFF77F
:101C240089FF012384F83930002010BD012010BD44
:101C340010B50446A0B190F8393003F0FF021BB987
:101C440080F83820FFF79BFE022384F8393020689F
:101C5400211DFFF76FFF012384F83930002010BDE8
:101C6400012010BD10B50446A0B190F8393003F03E
:101C7400FF021BB980F83820FFF782FE022384F8A4
:101C840039302068211DFFF755FF012384F83930CE
:101C9400002010BD012010BD70B5046A1A4E24F056
:101CA400010404628469056AB04224F003041AD072
:101CB400B0F1804F17D0A6F57C46B04213D006F59C
:101CC4008066B0420FD006F58066B0420BD006F5B0
:101CD4007846B04207D006F57056B04203D0A6F558
:101CE4009436B0420DD122431B0122F0F002DBB244
:101CF40025F00A0501F00A011A43294382610162B1
:101D040070BD44F00102EFE700000140F8B590F81F
:101D14003830012B04460D464FF0020019D0012340
:101D240084F8383084F83900A2B9CB68206806C931
:101D3400FFF7B2FF2368A9689A6922F00C029A613E
:101D44009A690A439A610123002084F8393084F89F
:101D54003800F8BD042A8E682368E86882C91FD158
:101D64001A6A22F010021A629A691D6A22F44072F9
:101D740042EA0722000380B222F4704209010243BE
:101D840001F0A00125F0A00001439A6119629A694B
:101D940022F440629A619A6942EA06269E61D2E779
:101DA400082A1A6A1CD122F480721A62DA691D6A3E
:101DB40022F003023A430001C0B222F0F002090209
:101DC400024301F4206125F420600143DA611962C1
:101DD400DA6922F00C02DA61DA691643DE61B2E7ED
:101DE40022F480521A62DA691D6A22F4407242EACD
:101DF4000722000322F4704280B20903104301F465
:101E0400204125F420421143D8611962DA6922F491
:101E14004062DA61DA6942EA0626DFE7036A23F000
:101E240010030362036A426870B584690D6824F480
:101E3400E64444EA05258C6823F0200343EA0413AE
:101E44000D4CA04209D004F58064A04205D0426044
:101E54004A6885618263036270BDCC688E6923F031
:101E6400800343EA04134C6922F44062344323F0B0
:101E7400400342EA8402EAE70000014038B590F8E2
:101E84003830012B04464FF0020018D0012384F8A7
:101E9400383084F839001D460C2A0BD8DFE802F0EC
:101EA400070A0A0A100A0A0A140A0A0A1800206809
:101EB400FFF78CFC002084F8395084F8380038BDD2
:101EC4002068FFF7ABFFF5E72068FFF7ABFCF1E70D
:101ED4002068FFF7D7FCEDE790F83830012B10B5F8
:101EE4004FF0020318D080F8393003680C685A6840
:101EF400496822F070025A605A6822435A609A680C
:101F040022F080029A609A680A439A60012380F85A
:101F14003930002380F83830184610BD90F8383036
:101F2400012B1FD0CB688A6823F4407313434A689B
:101F340023F4806313430A6823F4006313430A6998
:101F440023F4805313434A6923F4005313438A69E7
:101F540023F44043134302685364002380F8383069
:101F640018467047022070472DE9F0470668C2689A
:101F74003369C16923F440531343336104468368CE
:101F84000069F2680343606922F41642034322F0B5
:101F94000C020B431343F3607369A26923F4407387
:101FA4001343B1F5004F73617A4B7CD19E4203D049
:101FB40003F580639E4244D1FFF7D8F9192505FB48
:101FC40000F360684FF064094000B3FBF0F3B3FB27
:101FD400F9F34FEA0318FFF7C9F9636868435B0034
:101FE400B0FBF3F7FFF7C2F9636868435B00B0FB2B
:101FF400F3F3B3FBF9F309FB1373DB003233B3FBE5
:10200400F9F35B0003F4F877FFF7B0F9626868430B
:102014005200B0FBF2FAFFF7A9F9636868435B006A
:10202400B0FBF3F3B3FBF9F309FB13A3DB00323387
:10203400B3FBF9F303F0070343443B44B360BDE847
:10204400F087FFF783F9192505FB00F360684FF06B
:1020540064094000B3FBF0F3B3FBF9F34FEA031850
:10206400FFF774F9636868435B00B0FBF3F7FFF7AD
:102074006DF9636868435B00B0FBF3F3B3FBF9F3FA
:1020840009FB1373DB003233B3FBF9F35B0003F496
:10209400F877FFF75BF9626868435200B0FBF2FA25
:1020A400FFF754F9B9E79E4202D03B4B9E4240D120
:1020B400FFF75CF9676819254FF0640905FB00F325
:1020C400BF00B3FBF7F3B3FBF9F31F01FFF74EF9BE
:1020D400636868439B00B0FBF3F8FFF747F9636854
:1020E40068439B00B0FBF3F3B3FBF9F309FB1383E1
:1020F4001B013233B3FBF9F303F0F008FFF736F9B1
:10210400626868439200B0FBF2FAFFF72FF9636844
:1021140068439B00B0FBF3F3B3FBF9F309FB13A390
:102124001B013233B3FBF9F303F00F0343EA080353
:1021340083E7FFF70BF9676819254FF0640905FB7E
:1021440000F3BF00B3FBF7F3B3FBF9F31F01FFF791
:10215400FDF8636868439B00B0FBF3F8FFF7F6F8FB
:10216400636868439B00B0FBF3F3B3FBF9F309FB2B
:1021740013831B013233B3FBF9F303F0F008FFF7C9
:10218400E5F8626868439200B0FBF2FAFFF7DEF804
:10219400BDE700BF001001400014014010B5044623
:1021A40040B390F8393003F0FF021BB980F83820AF
:1021B40000F0AEFD2268242384F83930D36823F478
:1021C4000053D3602046FFF7CFFE23681A6922F438
:1021D40090421A615A6922F02A025A61DA6842F47A
:1021E4000052DA6000202023E06384F8393084F858
:1021F4003A3010BD012010BD10B594B00022274B19
:102204000092196C41F0805119641B6C244903F04D
:1022140080530093009B01920B6823F4404343F4E2
:1022240080430B600B680E9203F440430193019BBF
:1022340001230A9310230B9308230F9348230224AA
:10224400109307A8032307940D94119412931394E5
:10225400FFF7E4F800B1FEE70F23029304904FF474
:1022640080530690214602A803940593FEF7CEFFFF
:10227400044600B1FEE7FFF763F84FF47A73B0FB4E
:10228400F3F0FEF753FE0420FEF766FE22462146D5
:102294004FF0FF30FEF70AFE14B010BD00380240C4
:1022A4000070004030B51D481D4C09234FF44022F6
:1022B40084E809008BB00023226101254FF48012C9
:1022C4002046A360E360626123766376A376E576B5
:1022D40023776377FEF7BCFA00B1FEE7059006901A
:1022E400009001900290039004900E2369462046CA
:1022F400079508950993FEF727FB00B1FEE72046F2
:10230400FEF7ACFB00B1FEE7064B08221D605D60E2
:10231400D86098601A6118750BB030BD0064004035
:102324006C040020940400202DE9F04198B0FEF7DD
:1023340013F9FFF761FF00238F4A0093116B8F4C51
:102344008F4E41F004011163116B01F004010091FF
:1023540000990193116B41F080011163116B01F03D
:102364008001019101990293116B41F00101116304
:10237400116B01F00101029102990393116B41F079
:1023840002011163126BA36002F002020392039A2A
:102394007C4A23610125204684E80C00A361236262
:1023A400E362A662E360E56123636561FEF714F905
:1023B40000B1FEE70223139011A920461193129550
:1023C400FEF7AEF900B1FEE76F4C704B6060A060A1
:1023D4002061A0612062E062E06020632046236007
:1023E400A662E5616561FEF7F7F800B1FEE7042334
:1023F400139011A9204611931295FEF791F900B19B
:10240400FEE7634B634A644C986083E81400D86029
:102414004FF4804258619861D861186218461A6175
:10242400FEF786FE00B1FEE75C4B5D4998604FF411
:10243400827283E806004FF40072D8601861586114
:102444009A61D8611862586298620A221846DA6260
:10245400FFF77EF900B1FEE7524C534B6060A06079
:10246400E0602061606120462360FFF7C7FB00B194
:10247400FEE718AD4FF4805345F8483D2046294601
:10248400FFF77FFA00B1FEE72046FFF7D1FB00B16A
:10249400FEE70490059004A92046FFF71DFD00B156
:1024A400FEE700230C220AA93E480A930B930C93DF
:1024B4000E930F931093FFF7E1FC00B1FEE7119028
:1024C40012901390149015904FF40053179011A983
:1024D40034481693FFF722FD064600B1FEE7334C5D
:1024E400304800F0ADFB4FF08043204684E84800BC
:1024F400A660E6602661FFF781FB00B1FEE74FF4BA
:1025040080530AA920460A93FFF73BFA00B1FEE77D
:102514002046FFF78DFB00B1FEE7069007902946A1
:102524002046FFF7D9FC024600B1FEE71190129055
:102534001390159011A92046FFF7A0FC00B1FEE707
:10254400042211A92046FFF799FC064600B1FEE7D4
:102554002046174C00F074FB164BA660204684E816
:102564004800E6602661FFF749FB00B1FEE720461C
:10257400FFF778FB00B3FEE700380240500200206A
:102584000100000F002001409001002000210140C3
:102594002C000020005C0040A08601008000002088
:1025A40000380040E0020020000001403004002018
:1025B40014020020000400400723119350231293B7
:1025C40011A90023814813931593FFF793FA00B1DF
:1025D400FEE70690079029467C48FFF77DFC00B192
:1025E400FEE70A9001230C900D9004220AA9774873
:1025F4000B93FFF78BFB00B1FEE7754C754B6060E6
:10260400A060E060206120462360FFF7F7FA00B184
:10261400FEE74FF480570AA920460A97FFF7B1F95D
:1026240000B1FEE72046FFF703FB00B1FEE706908A
:10263400079029462046FFF74FFC00B1FEE71190B2
:10264400129013901590042211A92046FFF716FC4E
:10265400064600B1FEE720465F4C00F0F1FA5F4BFE
:10266400A660204684E84800E6602661FFF7C6FAC3
:1026740000B1FEE70AA920460A97FFF782F900B1E4
:10268400FEE75548FFF7D4FA00B1FEE7069007903D
:1026940029465148FFF720FC024600B1FEE711909D
:1026A40012901390159011A94B48FFF7E7FB00B166
:1026B400FEE7042211A94848FFF7E0FB064600B1F3
:1026C400FEE7474C444800F0BBFA464BA660204660
:1026D40084E84800E66026616661FFF78FFA00B17E
:1026E400FEE74FF48053294620460693FFF749F945
:1026F40000B1FEE72046FFF79BFA00B1FEE7049025
:10270400059004A92046FFF7E7FB024600B1FEE767
:102714000A900B900C900D900E900F9010900AA9B7
:102724002046FFF7ABFB00B1FEE704220AA92046CE
:10273400FFF7A4FB00B1FEE708220AA92848FFF727
:102744009DFB00B1FEE71190129013901490159028
:102754004FF40053179011A921481693FFF7DEFB9D
:10276400044600B1FEE71E4800F06AFA1E481F4BFB
:1027740084604FF4E1360C2580E84800C4600461AD
:1027840045618461C461FFF709FD00B1FEE7184BA0
:10279400184A9860D86018619861D861184683E82F
:1027A40044005D61FFF7FAFC00B1FEE7124B134AE7
:1027B4009860D86018619861D861184683E844002D
:1027C4005D61FFF7EBFCD8B1FEE700BF1402002007
:1027D4001401002000080040D8010020000C004033
:1027E400D80000200004014098020020001001409D
:1027F4005001002000480040200300200014014044
:10280400FFF750FD204C214E214FFDF7CBFE030C6A
:102814006371E071030A00213046A371FEF716FAD2
:10282400E0B11C4DDFF874802B464246002130464F
:10283400FEF78EF907233B602B7823706B78637067
:10284400AB78A370EB78E370D8F80030237122469C
:10285400114B39463046FEF72CF9D6E701233B608D
:102864002370022363700323A3700423E3700523FE
:1028740023712246084B39463046FEF71AF90A20DE
:10288400FDF796FEC1E700BFD80200206C040020CB
:1028940094040020280400201C030020AC04002021
:1028A40013B5224B002400945A6C42F480425A64BB
:1028B4005A6C02F480420092009A01941A6C42F01D
:1028C40080521A641B6C03F0805301930320019B14
:1028D400FEF7DAFA224621466FF00B00FEF7E6FA1D
:1028E400224621466FF00A00FEF7E0FA224621460E
:1028F4006FF00900FEF7DAFA224621466FF0040071
:10290400FEF7D4FA224621466FF00300FEF7CEFA12
:10291400224621466FF00100FEF7C8FA22462146FE
:102924004FF0FF30FEF7C2FA02B010BD003802408B
:1029340030B50368204A934289B01FD100241F4B4D
:1029440001945A6C1E4842F480725A645B6C05947C
:1029540003F480730193019B0C230DEB0301032506
:1029640003930495FEF70AFB10231648039304957A
:10297400059403A9FEF702FB09B030BD124A934245
:10298400FAD100240D4B02945A6C0E4842F40072A2
:102994005A645B6C059403F400730325029303A942
:1029A400029B03950495FEF7E9FA302303930495FB
:1029B400059403A90248DDE70020014000380240E5
:1029C400000002400008024000210140F0B5026806
:1029D4001D4B9A4287B035D1002403F5EA330094A5
:1029E4001A6C1A4842F000721A641B6C039403F0C8
:1029F40000730093009B02274FF48053032609259C
:102A040001A90193029704960595FEF7B7FA4FF4CE
:102A1400807301A90E4801930297039404960595C7
:102A2400FEF7ACFA224621461420FEF73FFA1420A2
:102A3400FEF770FA152022462146FEF737FA1520D4
:102A4400FEF768FA07B0F0BD0064004000000240E1
:102A540000040240F0B50268164B9A4287B026D1B2
:102A640004244FF480731227012603250DEB04017F
:102A7400114801930297039604950594FEF77EFA94
:102A840010230DEB04010D4801930297039604955E
:102A94000594FEF773FA00230093094B1A6C42F471
:102AA40000021A641B6C03F400030093009B07B03C
:102AB400F0BD00BF005C0040000002400004024082
:102AC40000380240F0B50268154B9A4287B024D111
:102AD400002403F5003300941A6C124842F4804237
:102AE4001A641B6C039403F480430093009B022735
:102AF4000C230326052501A9019302970496059545
:102B0400FEF73CFA4FF4005301A9074801930297DA
:102B1400039404960595FEF731FA07B0F0BD00BFA3
:102B240000380040000802400004024030B5036849
:102B34003B4A93428BB00DD100230093394B5A6C1E
:102B440042F001025A645B6C03F001030093009BA2
:102B54000BB030BDB3F1804F0CD100230193314B46
:102B64001A6C42F001021A641B6C03F00103019316
:102B7400019BEDE72C4A934221D10024294B029476
:102B84001A6C2A4842F002021A641B6C079403F080
:102B9400020302930225029B0695402305A905938F
:102BA40008940995FEF7EAF9202305A9204805931E
:102BB4000695079408940995FEF7E0F9C8E71D4ABD
:102BC40093420CD100230393164B1A6C42F0040277
:102BD4001A641B6C03F004030393039BB8E7164ABF
:102BE40093420CD1002304930E4B1A6C42F008025A
:102BF4001A641B6C03F008030493049BA8E70F4AB0
:102C04009342A5D100230593064B5A6C42F002026D
:102C14005A645B6C03F002030593059B98E700BFBD
:102C2400000001400038024000040040000002405F
:102C34000004024000080040000C00400004014071
:102C440070B503682C4A934286B00FD14FF40063E9
:102C5400019302230293002303930493012327483F
:102C6400059301A9FEF78AF906B070BDB3F1804F50
:102C740015D14FF4004300240226012501A91F4861
:102C840001930296039404940595FEF777F94FF4A3
:102C94000073019302960394049405950AE0184A7C
:102CA40093420AD1802300220193022302930392C8
:102CB4000492059301A91348D4E7134A934207D118
:102CC4000323002201930223029303920492C6E792
:102CD4000E4A9342C8D1802300240226032501A969
:102CE400064801930296039404940595FEF746F969
:102CF4004FF44043CDE700BF000001400000024014
:102D04000008004000040240000C004000040140A0
:102D1400F0B50368314A934289B01CD10023009373
:102D24002F4B30485A6C42F010025A645B6C03F02B
:102D340010030093009B4FF4C06303930223049396
:102D440001230593032306930723079303A9FEF79F
:102D540015F909B0F0BD244A934223D1002301930D
:102D64001F4B22481A6C42F480221A641B6C03F431
:102D740080230193019B0227202301260325072496
:102D840003A903930497059606950794FEF7F6F8AE
:102D94004FF480630393049705960695079403A95B
:102DA4001348D4E7134A9342D3D1002302930C4B24
:102DB4000E485A6C42F020025A645B6C03F0200304
:102DC4000293029BC02303930223049301230593DC
:102DD400032306930823079303A9B8E700100140CF
:102DE4000038024000000240004800400008024051
:102DF40000040240001401407047FEE7FEE7FEE7CE
:102E0400FEE770477047704708B5FDF7BFFBBDE8A4
:102E14000840FEF7AEB800000148FDF736BF00BF1A
:102E24006C040020FFF7F8BF0F49D1F8883043F451
:102E34007003C1F888300D4B1A68002042F001027B
:102E44001A6098601A6822F0847222F480321A6040
:102E5400074A5A601A6822F480221A60D8604FF038
:102E640000638B60704700BF00ED00E00038024053
:102E740010300024DFF834D0002103E00C4B5B5801
:102E8400435004310B480C4B42189A42F6D30B4A78
:102E940002E0002342F8043B094B9A42F9D3FFF7BE
:102EA400C3FF00F011F8FFF73FFA7047000002205B
:102EB400542F0008000000200C0000200C0000200B
:102EC400C8040020FEE7000070B50D4E0D4CA41B95
:102ED400A4100025A54209D10B4E0C4C00F018F8A3
:102EE400A41BA4100025A54205D170BD56F82530B9
:102EF40098470135EEE756F8253098470135F2E753
:102F04004C2F00084C2F00084C2F0008502F0008AD
:102F1400F8B500BFF8BC08BC9E467047F8B500BFC2
:082F2400F8BC08BC9E46704792
:102F2C00000000000000000001020304060708096D
:082F3C00000000000102030483
:082F4400F0D2FF7F0100000044
:042F4C00E90100088F
:042F5000C5010008AF
:0C2F540001000000100000000024F40048
:0400000508002E7948
:00000001FF
