:020000040800F2
:1000000000000220999E0008A58F0008A78F000815
:10001000A98F0008AB8F0008AD8F0008000000001A
:10002000000000000000000000000000E16C00087B
:10003000AF8F000800000000816D0008E56D00082A
:10004000E99E0008E99E0008E99E0008E99E000874
:10005000E99E0008E99E0008E99E0008E99E000864
:10006000E99E0008E99E0008E99E0008E99E000854
:10007000B18F0008C18F0008E99E0008D18F0008E9
:10008000E99E0008E99E0008E99E0008E99E000834
:10009000E99E0008E99E0008E99E0008E99E000824
:1000A000E99E0008E99E0008E99E0008E99E000814
:1000B000E99E0008E99E0008E99E0008E99E000804
:1000C000E99E0008E99E0008E99E0008E99E0008F4
:1000D000E99E0008E18F0008E99E0008E99E0008FB
:1000E000E99E0008E99E0008E99E0008E99E0008D4
:1000F000E99E0008F18F0008E99E0008E99E0008CB
:10010000E99E000801900008E99E0008E99E0008A9
:10011000E99E0008E99E0008E99E0008E99E0008A3
:10012000E99E0008E99E0008E99E00081190000879
:10013000E99E00080000000000000000E99E0008A1
:10014000E99E0008E99E0008E99E0008E99E000873
:10015000E99E00082190000831900008E99E0008FF
:10016000E99E0008E99E0008E99E0008E99E000853
:10017000E99E0008E99E0008E99E000800000000D2
:1001800000000000E99E00080000000000000000E0
:10019000E99E00080000000000000000E99E000841
:1001A000000000000000000000000000E99E0008C0
:1001B000E99E0008E99E0008E99E0008E99E000803
:0401C000E99E0008AC
:1001D00010B5054C237833B9044B13B10448AFF381
:1001E00000800123237010BDE80100200000000002
:1001F000F0BF000808B5034B1BB103490348AFF338
:10020000008008BD00000000EC010020F0BF0008E5
:1002100053B94AB9002908BF00281CBF4FF0FF316D
:100220004FF0FF3000F072B9ADF1080C6DE904CE6B
:1002300000F006F8DDF804E0DDE9022304B07047C1
:100240002DE9F047089E04468846002B4BD18A4290
:10025000154667D9B2FA82F24AB1C2F1200701FA13
:1002600002F320FA07F7954047EA030894404FEA63
:10027000154E230CB8FBFEF71FFA85FC0EFB178802
:1002800043EA084307FB0CF1994209D9EB1807F13F
:10029000FF3080F01B81994240F21881023F2B44CD
:1002A0005B1AA4B2B3FBFEF00EFB103344EA034426
:1002B00000FB0CFCA44509D92C1900F1FF3380F098
:1002C0000781A44540F2048102382C4440EA0740EB
:1002D000A4EB0C0400271EB1D4400023C6E9004360
:1002E0003946BDE8F0878B4209D9002E00F0EB803B
:1002F0000027C6E9000138463946BDE8F087B3FA61
:1003000083F7002F47D18B4202D3824200F2FA805A
:10031000841A61EB030301209846002EE0D0C6E961
:100320000048DDE702B9FFDEB2FA82F2002A40F0AF
:100330008F80491B4FEA154E1FFA85F80127B1FB44
:10034000FEFC230C0EFB1C1143EA014308FB0CF1DD
:10035000994207D9EB180CF1FF3002D2994200F212
:10036000CD808446591AA3B2B1FBFEF00EFB1014E7
:1003700043EA044408FB00F8A04507D92C1900F112
:10038000FF3302D2A04500F2B6801846A4EB080461
:1003900040EA0C409FE7C7F1200CBB4022FA0CFE5C
:1003A0004EEA030E01FA07F420FA0CF521FA0CF3D9
:1003B0004FEA1E482543B3FBF8F92C0C08FB193310
:1003C0001FFA8EFA44EA034309FB0AF49C4202FA3C
:1003D00007F200FA07F10BD91EEB030309F1FF3016
:1003E00080F087809C4240F28480A9F10209734426
:1003F0001B1BADB2B3FBF8F008FB103345EA034416
:1004000000FB0AFAA24508D91EEB040400F1FF33F1
:100410006BD2A24569D90238744440EA0940A0FB76
:100420000289A4EB0A044C45C2464B4654D351D032
:10043000002E69D0B1EB0A0564EB030404FA0CFC4E
:10044000FD40FC404CEA0505C6E90054002747E79B
:10045000C2F1200320FA03F7954001FA02F021FAD5
:1004600003F34FEA154E3843010CB3FBFEF71FFAB6
:1004700085F80EFB173341EA034107FB08F38B4273
:1004800004FA02F407D9691807F1FF3C2FD28B4216
:100490002DD9023F2944CB1A81B2B3FBFEF00EFBEB
:1004A000103341EA034100FB08F38B4207D9691876
:1004B00000F1FF3C17D28B4215D902382944C91AE2
:1004C00040EA07473BE73746304609E70746E7E695
:1004D0001846FBE64145ABD2B8EB020A69EB0E02C7
:1004E00001381346A4E76046E9E7184695E76746F2
:1004F000D1E781467CE702382C4447E7ACF1020C97
:100500002B442FE7384608E73746E9E6704700BF37
:10051000034613F8012B002AFBD1181A0138704743
:1005200001F0FF01102A2BDB10F0070F08D010F8A4
:10053000013B013A8B422DD010F0070F42B3F6D1A8
:10054000F0B441EA012141EA014122F007047FF0C1
:1005500000070023F0E80256083C85EA010586EA18
:10056000010685FA47F5A3FA87F586FA47F6A5FA54
:1005700087F68EB9EED1F0BC01F0FF0102F0070260
:1005800032B110F8013B013A83EA010313B1F8D10B
:100590000020704701387047002D06BF35460338EC
:1005A000073815F0010F07D1013015F4807F02BF25
:1005B000013015F4C03F0130F0BC0138704700BF76
:1005C00081F0004102E000BF83F0004330B54FEA04
:1005D00041044FEA430594EA050F08BF90EA020F71
:1005E0001FBF54EA000C55EA020C7FEA645C7FEA04
:1005F000655C00F0E2804FEA5454D4EB5555B8BF27
:100600006D420CDD2C4480EA020281EA030382EA97
:10061000000083EA010180EA020281EA0303362D29
:1006200088BF30BD11F0004F4FEA01314FF4801CFC
:100630004CEA113102D0404261EB410113F0004F0E
:100640004FEA03334CEA133302D0524263EB4303C5
:1006500094EA050F00F0A780A4F10104D5F1200E63
:100660000DDB02FA0EFC22FA05F2801841F10001BE
:1006700003FA0EF2801843FA05F359410EE0A5F192
:1006800020050EF1200E012A03FA0EFC28BF4CF0C3
:10069000020C43FA05F3C01851EBE37101F0004579
:1006A00007D54FF0000EDCF1000C7EEB00006EEB86
:1006B0000101B1F5801F1BD3B1F5001F0CD3490810
:1006C0005FEA30004FEA3C0C04F101044FEA445267
:1006D00012F5800F80F09A80BCF1004F08BF5FEAEE
:1006E000500C50F1000041EB045141EA050130BDCE
:1006F0005FEA4C0C404141EB010111F4801FA4F171
:100700000104E9D191F0000F04BF01460020B1FAC5
:1007100081F308BF2033A3F10B03B3F120020CDAFD
:100720000C3208DD02F1140CC2F10C0201FA0CF0DB
:1007300021FA02F10CE002F11402D8BFC2F1200C40
:1007400001FA02F120FA0CFCDCBF41EA0C019040F6
:10075000E41AA2BF01EB0451294330BD6FEA04043F
:100760001F3C1CDA0C340EDC04F11404C4F120022A
:1007700020FA04F001FA02F340EA030021FA04F33C
:1007800045EA030130BDC4F10C04C4F1200220FA93
:1007900002F001FA04F340EA0300294630BD21FAD1
:1007A00004F0294630BD94F0000F83F4801306BF97
:1007B00081F480110134013D4EE77FEA645C18BF8B
:1007C0007FEA655C29D094EA050F08BF90EA020F22
:1007D00005D054EA000C04BF1946104630BD91EA1A
:1007E000030F1EBF0021002030BD5FEA545C05D11D
:1007F0004000494128BF41F0004130BD14F580045C
:100800003CBF01F5801130BD01F0004545F0FE41CF
:1008100041F470014FF0000030BD7FEA645C1ABF04
:10082000194610467FEA655C1CBF0B46024650EA3B
:10083000013406BF52EA033591EA030F41F4002167
:1008400030BD00BF90F0000F04BF0021704730B5ED
:100850004FF4806404F132044FF000054FF00001C2
:1008600050E700BF90F0000F04BF0021704730B583
:100870004FF4806404F1320410F0004548BF404258
:100880004FF000013EE700BF42004FEAE2014FEAAD
:1008900031014FEA02701FBF12F07F4393F07F4F88
:1008A00081F06051704732F07F4208BF704793F08B
:1008B0007F4F04BF41F40021704730B54FF460749E
:1008C00001F0004521F000411CE700BF50EA0102A1
:1008D00008BF704730B54FF000050AE050EA01024A
:1008E00008BF704730B511F0004502D5404261EBBA
:1008F00041014FF4806404F132045FEA915C3FF4FB
:10090000D8AE4FF003025FEADC0C18BF03325FEA97
:10091000DC0C18BF033202EBDC02C2F1200300FA48
:1009200003FC20FA02F001FA03FE40EA0E0021FA6D
:1009300002F11444BDE600BF70B54FF0FF0C4CF45B
:10094000E06C1CEA11541DBF1CEA135594EA0C0F0D
:1009500095EA0C0F00F0DEF82C4481EA030621EA48
:100960004C5123EA4C5350EA013518BF52EA033583
:1009700041F4801143F4801338D0A0FB02CE4FF035
:100980000005E1FB02E506F00042E0FB03E54FF065
:100990000006E1FB03569CF0000F18BF4EF0010E5D
:1009A000A4F1FF04B6F5007F64F5407404D25FEA59
:1009B0004E0E6D4146EB060642EAC62141EA55510C
:1009C0004FEAC52040EA5E504FEACE2EB4F1FD0C4E
:1009D00088BFBCF5E06F1ED8BEF1004F08BF5FEACC
:1009E000500E50F1000041EB045170BD06F000467E
:1009F00046EA010140EA020081EA0301B4EB5C042B
:100A0000C2BFD4EB0C0541EA045170BD41F4801122
:100A10004FF0000E013C00F3AB8014F1360FDEBF47
:100A2000002001F0004170BDC4F10004203C35DA23
:100A30000C341BDC04F11404C4F1200500FA05F3A6
:100A400020FA04F001FA05F240EA020001F0004247
:100A500021F0004110EBD37021FA04F642EB0601BD
:100A60005EEA430E08BF20EAD37070BDC4F10C04E7
:100A7000C4F1200500FA04F320FA05F001FA04F2AB
:100A800040EA020001F0004110EBD37041F1000197
:100A90005EEA430E08BF20EAD37070BDC4F12005A2
:100AA00000FA05F24EEA020E20FA04F301FA05F20A
:100AB00043EA020321FA04F001F0004121FA04F2B2
:100AC00020EA020000EBD3705EEA430E08BF20EA82
:100AD000D37070BD94F0000F0FD101F000464000BC
:100AE00041EB010111F4801F08BF013CF7D041EA3E
:100AF000060195F0000F18BF704703F00046520042
:100B000043EB030313F4801F08BF013DF7D043EA12
:100B10000603704794EA0C0F0CEA135518BF95EAC8
:100B20000C0F0CD050EA410618BF52EA4306D1D14F
:100B300081EA030101F000414FF0000070BD50EA6E
:100B4000410606BF1046194652EA430619D094EAF8
:100B50000C0F02D150EA013613D195EA0C0F05D1E2
:100B600052EA03361CBF104619460AD181EA030136
:100B700001F0004141F0FE4141F470014FF00000EE
:100B800070BD41F0FE4141F4780170BD70B54FF089
:100B9000FF0C4CF4E06C1CEA11541DBF1CEA135509
:100BA00094EA0C0F95EA0C0F00F0A7F8A4EB0504EB
:100BB00081EA030E52EA03354FEA013100F08880E2
:100BC0004FEA03334FF0805545EA131343EA1263AB
:100BD0004FEA022245EA111545EA10654FEA002660
:100BE0000EF000419D4208BF964244F1FD0404F519
:100BF000407402D25B084FEA3202B61A65EB030575
:100C00005B084FEA32024FF480104FF4002CB6EB31
:100C1000020E75EB030E22BFB61A754640EA0C00B1
:100C20005B084FEA3202B6EB020E75EB030E22BFF1
:100C3000B61A754640EA5C005B084FEA3202B6EB32
:100C4000020E75EB030E22BFB61A754640EA9C00F1
:100C50005B084FEA3202B6EB020E75EB030E22BFC1
:100C6000B61A754640EADC0055EA060E18D04FEA7F
:100C7000051545EA16754FEA06164FEAC30343EA1F
:100C800052734FEAC2025FEA1C1CC0D111F4801FEC
:100C90000BD141EA00014FF000004FF0004CB6E7E5
:100CA00011F4801F04BF01430020B4F1FD0C88BF84
:100CB000BCF5E06F3FF6AFAEB5EB030C04BFB6EB8F
:100CC000020C5FEA500C50F1000041EB045170BD82
:100CD0000EF0004E4EEA113114EB5C04C2BFD4EBAF
:100CE0000C0541EA045170BD41F480114FF0000E33
:100CF000013C90E645EA060E8DE60CEA135594EAAF
:100D00000C0F08BF95EA0C0F3FF43BAF94EA0C0FB1
:100D10000AD150EA01347FF434AF95EA0C0F7FF426
:100D200025AF104619462CE795EA0C0F06D152EA7A
:100D300003353FF4FDAE1046194622E750EA41065E
:100D400018BF52EA43067FF4C5AE50EA41047FF46F
:100D50000DAF52EA43057FF4EBAE12E74FF0FF3CD4
:100D600006E000BF4FF0010C02E000BF4FF0010CA5
:100D70004DF804CD4FEA410C7FEA6C5C4FEA430C1E
:100D800018BF7FEA6C5C1BD001B050EA410C0CBF6D
:100D900052EA430C91EA030F02BF90EA020F0020CF
:100DA000704710F1000F91EA030F58BF994208BF36
:100DB00090422CBFD8176FEAE37040F001007047F3
:100DC0004FEA410C7FEA6C5C02D150EA013C07D14A
:100DD0004FEA430C7FEA6C5CD6D152EA033CD3D095
:100DE0005DF8040B704700BF8446104662468C468F
:100DF0001946634600E000BF01B5FFF7B7FF0028C2
:100E000048BF10F1000F01BD4DF808EDFFF7F4FFEA
:100E10000CBF012000205DF808FB00BF4DF808ED75
:100E2000FFF7EAFF34BF012000205DF808FB00BF98
:100E30004DF808EDFFF7E0FF94BF012000205DF8BA
:100E400008FB00BF4DF808EDFFF7CEFF94BF01206F
:100E500000205DF808FB00BF4DF808EDFFF7C4FF68
:100E600034BF012000205DF808FB00BF4FEA410CB1
:100E70007FEA6C5C02D150EA013C0AD14FEA430C94
:100E80007FEA6C5C02D152EA033C02D14FF00000D1
:100E900070474FF0010070474FEA410212F500120F
:100EA00015D211D56FF47873B3EB625212D94FEAB1
:100EB000C12343F0004343EA505311F0004F23FA9B
:100EC00002F018BF404270474FF00000704750EAF0
:100ED000013005D111F0004008BF6FF000407047AD
:100EE0004FF00000704700BF08B50B4B1A6842F482
:100EF00000721A601A6842F480621A601A6842F43A
:100F000080721A60032000F0D5F8002008F00CF879
:100F100007F0E8FF002008BD003C0240034A1168CA
:100F2000034B1B780B441360704700BF78FF002011
:100F300000000020014B1868704700BF78FF0020B8
:100F400038B50446FFF7F6FF0546B4F1FF3F02D07F
:100F5000044B1B781C44FFF7EDFF401BA042FAD363
:100F600038BD00BF00000020002800F0A18038B587
:100F7000044690F82030D3B12268136823F00203AE
:100F80001360FFF7D7FF054623685A6812F0020F77
:100F900010D0FFF7CFFF401B0A28F5D9636A43F44E
:100FA00000336362052384F82030012038BD07F048
:100FB00047FAE1E71A6842F001021A60FFF7BAFF48
:100FC000054623685A6812F0010F0DD1FFF7B2FFF2
:100FD000401B0A28F5D9636A43F400336362052392
:100FE00084F820300120E1E7227E012A3DD01A68F2
:100FF00022F080021A60637E012B3BD022681368C6
:1010000023F040031360A37E012B39D022681368BC
:1010100023F020031360E37E012B37D0226813688E
:1010200043F010031360237F012B35D0226813682F
:1010300023F008031360637F012B33D02268136809
:1010400023F004031360A368E26813432269134387
:10105000626913436268013A21681343CB6100203F
:101060006062012384F82030A0E71A6842F0800211
:101070001A60C0E72268136843F040031360C2E7B8
:101080002268136843F020031360C4E722681368E2
:1010900023F010031360C6E72268136843F00803C7
:1010A0001360C8E72268136843F004031360CAE7BB
:1010B00001207047074AD36823F4E0631B041B0C2C
:1010C000000200F4E060184340F0BF6040F40030DC
:1010D000D060704700ED00E030B4174BDB68C3F31D
:1010E0000223C3F10704042C28BF04241D1D062D70
:1010F00018D9033B4FF0FF3505FA04F421EA040147
:10110000994005FA03F322EA0303194300280BDB95
:101110000901C9B200F1604000F5614080F8001398
:1011200030BC70470023E5E700F00F000901C9B2A9
:10113000024B1954F4E700BF00ED00E014ED00E0AD
:1011400000F01F02400901239340024A42F8203078
:10115000704700BF00E100E030B405682C6824F45B
:1011600080242C60046863608368402B05D003688A
:1011700099600368DA6030BC704703689A6003685E
:10118000D960F8E70268D3B2103B0B49A1FB031307
:101190001B090A49C95CC165032B06D822F47F727A
:1011A00022F003028265806D704722F47F7222F084
:1011B000030204328265F6E7ABAAAAAA08C00008B7
:1011C000836A826992B9012B0AD01BB1022B01D02C
:1011D00000207047C36A13F0807F2CD10020704735
:1011E000C36AB3F1C07F28D000207047B2F5005F1A
:1011F00005D0022B29D9032B15D000207047032BD3
:1012000003D8DFE803F01C041C0A00207047C36AFF
:1012100013F0807F15D100207047C36AB3F1C07FFF
:1012200011D000207047C36A13F0807F01D00120E5
:10123000704700207047012070470120704701204F
:10124000704701207047012070470120704700005F
:1012500070B50446FFF76EFE002C5BD005460023F8
:1012600084F83430022384F835302268136823F080
:101270000103136023681A6812F0010F0AD0FFF708
:1012800059FE401B0528F5D920236365032084F807
:10129000350070BD1A68204810406168A2680A4392
:1012A000E1680A4321690A4361690A43A1690A4363
:1012B000E1690A43216A0A430243616A04291ED094
:1012C0001A602668756925F00705636A1D43042BBB
:1012D00007D1A36A1D43E36A1BB12046FFF770FFE5
:1012E00090B975612046FFF74DFFE26D3F239340B3
:1012F000836000206065012384F83530C9E7E16A26
:10130000206B01430A43DBE740236365012084F837
:101310003500BEE70120BCE73F8010F038B5856D91
:1013200090F83440012C31D0012480F8344090F8FA
:101330003540E4B2012C04D0002380F83430022080
:1013400038BD0446022084F8350000206065204640
:10135000FFF702FFE26D3F239340AB602268136802
:1013600043F0160313602268536943F0800353610E
:10137000236C23B12268136843F0080313602268CA
:10138000136843F0010313600020D9E70220D7E778
:1013900090F83530DBB2022B03D080234365012067
:1013A0007047052380F835300268136823F0010385
:1013B0001360002070470000F0B583B0044600239E
:1013C0000193724B1D68724BA3FB0535AD0A876D07
:1013D0003E68C26D08239340334210D003681A68F8
:1013E00012F0040F0BD01A6822F004021A60C26DCA
:1013F00008239340BB60436D43F001034365E26DF6
:1014000001239340334209D02268526912F0800FC1
:1014100004D0BB60636D43F002036365E26D042397
:101420009340334209D02268126812F0020F04D0B0
:10143000BB60636D43F004036365E26D102393406A
:10144000334224D02268126812F0080F1FD0BB600C
:1014500023681A6812F4802F0DD01B6813F4002F34
:1014600004D1236C9BB12046984710E0A36C73B164
:10147000204698470BE01A6812F4807F03D11A685F
:1014800022F008021A60236C0BB120469847E26DE7
:1014900020239340334255D02268126812F0100F77
:1014A00050D0BB6094F83530DBB2052B0ED02368EA
:1014B0001A6812F4802F33D01B6813F4002F2AD13E
:1014C000636C002B3ED0204698473BE022681368AF
:1014D00023F0160313602268536923F080035361DD
:1014E000236CA3B12268136823F008031360E26D34
:1014F0003F239340BB60002384F83430012384F8F9
:101500003530236D002B3FD0204698473CE0A36C3C
:10151000002BE7D1EBE7E36BA3B12046984711E03E
:101520001A6812F4807F09D11A6822F010021A603A
:10153000002384F83430012384F83530E36B0BB199
:1015400020469847636DFBB1636D13F0010F17D010
:10155000052384F835302268136823F001031360F3
:10156000019B01330193AB4204D823681B6813F03D
:10157000010FF5D1002384F83430012384F835308D
:10158000E36C0BB12046984703B0F0BD1400002077
:10159000B5814E1B00230F2B00F2D180F0B482B036
:1015A00039E0062200E00022B2403A430234644EA1
:1015B00046F82420634A1468EA4302EA04064F68A6
:1015C00017F4803F01D045EA04065E4C266064684B
:1015D00002EA04064F6817F4003F01D045EA04060A
:1015E000584C6660A46802EA04064F6817F4801F2E
:1015F00001D045EA0406534CA660E46822404E68D8
:1016000016F4001F01D045EA04024E4CE26001339B
:101610000F2B00F2918001229A400C6804EA020527
:10162000AA42F4D14C68022C01D0122C10D1DE0851
:10163000083650F826C003F00704A7000F24BC406A
:101640002CEA040C0C69BC4044EA0C0440F8264027
:1016500004685F000326BE40F64306EA040C4C68AB
:1016600004F00304BC4044EA0C0404604C6804F138
:10167000FF3CBCF1010F03D9112C01D0122C10D169
:10168000846806EA040CCC68BC4044EA0C0484601C
:10169000446824EA02024C68C4F300149C401443DA
:1016A0004460C26816408A68BA403243C2604A68E1
:1016B00012F0805FABD000220192234A546C44F4B4
:1016C00080445464526C02F480420192019A9C0856
:1016D000A61C1B4A52F8267003F0030296000F2244
:1016E000B24027EA0207194A90423FF45CAF02F584
:1016F0008062904216D002F58062904214D002F5CA
:101700008062904212D002F58062904210D002F5C1
:10171000806290420ED002F5806290423FF441AF69
:10172000072241E701223FE702223DE703223BE790
:10173000042239E7052237E702B0F0BC7047704752
:1017400000380140003C01400038024000000240E7
:10175000002800F0828010B5044690F83D30002B40
:1017600041D0242384F83D302268136823F001031C
:10177000136000F0B9F93A4BA3FB00239B0C2268DD
:1017800053606168374A914232D80133226813624C
:101790006368344A934235D85B00B0FBF3F0C0F382
:1017A0000B03032B00D804202368D861E369216A66
:1017B00022680B4313602369E16822680B4393603E
:1017C0006369A16922680B43D3602268136843F000
:1017D0000103136000202064202384F83D3020633F
:1017E00084F83E0010BD80F83C3006F0BDFFB8E73D
:1017F0004FF4967202FB03F31B4AA2FB03239B09DF
:101800000133C3E7A16889B903EB4302B0FBF2F2ED
:10181000C2F30B02B2FA82F25209E2B991B903EBB8
:101820004303B0FBF3F040F40040BDE703EB830259
:1018300002EB8202B0FBF2F2C2F30B02B2FA82F2C6
:101840005209EAE703EB830303EB8303B0FBF3F0F6
:1018500040F44040A8E70120A6E70120704700BF00
:1018600083DE1B43A0860100D34D62102DE9F041B9
:1018700005460F4616469846069C2B689B683B42D9
:1018800014BF01230023B34212D0B4F1FF3FF4D0C0
:101890002CB1FFF74FFBA0EB0800A042EDD90423C9
:1018A00085F841306B6C43F001036B64012000E06C
:1018B0000020BDE8F08181647047000030B583B03E
:1018C0000446FFF737FB002C56D0054694F840300D
:1018D000DBB2012B52D0012384F8403094F8413020
:1018E000002B3ED021680B6823F4F853A268013A1C
:1018F00043EA02230B60A36C00932B4600222021B5
:101900002046FFF7B3FF014628BB2068036823F099
:101910007F4323F0D0036568E26842EA0562E56927
:101920002A43256A2A431343036020684268144B04
:1019300013402569626942EA0542A5692A431343B7
:1019400043602268136843F001031360002363645B
:10195000012384F84130002384F84030084603B066
:1019600030BD84F84030204607F028F841F2883135
:101970002046FFF7A0FFB5E70121EFE70221EDE7E1
:10198000FEF8E0FF002800F09D8070B504464F4B44
:101990001B6803F00F038B4209D2CBB24B4A137082
:1019A000136803F00F038B4201D0012070BD236840
:1019B00013F0020F17D013F0040F04D0444A9368B9
:1019C00043F4E0539360236813F0080F04D0404AB7
:1019D000936843F4604393603D4A936823F0F003B7
:1019E000A068034393600D46236813F0010F32D0C3
:1019F0006368012B21D09A1E012A25D9344A126826
:101A000012F0020F60D032498A6822F003021343B9
:101A10008B60FFF78FFA06462D4B9B6803F00C0393
:101A20006268B3EB820F16D0FFF784FA801B41F295
:101A300088339842F0D90320B8E7254A126812F497
:101A4000003FE0D10120B1E7214A126812F0007F87
:101A5000D9D10120AAE71D4B1B6803F00F03AB424D
:101A600009D9EAB2194B1A701B6803F00F03AB4295
:101A700001D001209AE7236813F0040F06D0144A1E
:101A8000936823F4E053E1680B439360236813F0F9
:101A9000080F07D00E4A936823F46043216943EA94
:101AA000C103936000F09CFA094B9B68C3F30313D6
:101AB000084AD35CD840084B1860002007F034FA7D
:101AC000002073E70120704701206FE7003C0240CF
:101AD0000038024030C1000814000020014B186893
:101AE000704700BF1400002008B5FFF7F7FF044B54
:101AF0009B68C3F38223034AD35CD84008BD00BF70
:101B00000038024040C1000808B5FFF7E7FF044B6A
:101B10009B68C3F34233034AD35CD84008BD00BF7F
:101B20000038024040C100080F2303600B4B9A6845
:101B300002F0030242609A6802F0F00282609A6842
:101B400002F4E052C2609B68DB0803F4E0530361D7
:101B5000034B1B6803F00F030B6070470038024013
:101B6000003C0240F0B583B00446036813F0010F57
:101B70000CD0964AD2F88C3023F0C063816B0B43B3
:101B8000C2F88C30836B3BB3002600E0002623684C
:101B900013F0020F0BD08D4AD2F88C3023F0C053D3
:101BA000E16B0B43C2F88C30E36B03B90126236869
:101BB00013F0040F14D0854AD2F88C3023F440136C
:101BC000216B0B43C2F88C30236BB3F5801F05D01B
:101BD000002B7BD0002504E00126D8E70126F7E79B
:101BE0000025236813F0080F0ED0784AD2F88C3005
:101BF00023F44003616B0B43C2F88C30636BB3F585
:101C0000800F65D003B90125236813F0200F61D13F
:101C1000236813F0100F03D094F858206C4B1A600F
:101C2000236813F0800F08D0684AD2F8943023F468
:101C30004003E16C0B43C2F89430236813F0400F6B
:101C400008D0624AD2F8943023F08063A16C0B4331
:101C5000C2F89430236813F4807F0DD05B4AD2F829
:101C6000943023F00063616D0B43C2F89430636DD0
:101C7000B3F1006F00F09580236813F4007F08D063
:101C8000524AD2F8943023F08053616C0B43C2F86F
:101C90009430236813F4806F0CD04C4AD2F89430FF
:101CA00023F00053216D0B43C2F89430236DB3F140
:101CB000005F78D0002E76D12368B3F5006F72D024
:101CC000002D40F02281002003B0F0BD012588E7FF
:101CD000012697E7002301933C4B1A6C42F0805297
:101CE0001A641B6C03F080530193019B394A1368FB
:101CF00043F480731360FFF71DF90746354B1B68EB
:101D000013F4807F06D1FFF715F9C01B0228F5D91F
:101D10000320D9E72D4B1B6F13F4407312D0226CB4
:101D200002F440729A420DD0284B1A6F22F440728E
:101D3000294901200860002008601A671B6F13F012
:101D4000010F12D1236C03F44072B2F5407F1DD015
:101D50001E4A936823F4F81393601C490B6F226C9E
:101D6000C2F30B0213430B6752E7FFF7E3F8074692
:101D7000164B1B6F13F0020FE4D1FFF7DBF8C01B0B
:101D800041F288339842F3D903209DE70F498A68CE
:101D900022F4F81223F0704323F4407313438B6052
:101DA000DBE7012568E70D4B00221A60FFF7C2F858
:101DB0000646064B1B6813F0006F11D0FFF7BAF808
:101DC000801B0228F5D903207EE700BF00380240BF
:101DD000E011474200700040400E47426800474211
:101DE000236813F0010F01D0A26B22B113F0020F90
:101DF00015D0E36B9BB9774AD2F88400D2F88410EF
:101E00006368A66843EA861300F44030034301F098
:101E100070610B43616943EA0173C2F8843023683F
:101E200013F0040F03D0226BB2F5801F06D013F01D
:101E3000080F20D0636BB3F5800F1CD1654AD2F830
:101E40008400D2F884106368A66843EA861300F41D
:101E500040300343206943EA006301F0E0410B4353
:101E6000C2F88430D2F88C3023F01F03A16A013904
:101E70000B43C2F88C30236813F4806F03D0236DBA
:101E8000B3F1005F28D0236813F4006F11D06368AA
:101E9000A26843EA8213E2685208013A43EA024325
:101EA000226943EA0263626943EA0273494AC2F85B
:101EB0008430494B01221A60FFF73CF80646454B37
:101EC0001B6813F0006F7FF4FBAEFFF733F8801B45
:101ED0000228F4D90320F7E63E48D0F88430C3F353
:101EE00001435A1CD0F884606368A16843EA8113F7
:101EF000E1684908013943EA014343EA426306F0D5
:101F0000E0421343C0F88430BDE7344B00221A602E
:101F1000FFF710F805462F4B1B6813F0005F06D043
:101F2000FFF708F8401B0228F5D90320CCE6236808
:101F300013F0040F01D0226B22B113F0080F1AD056
:101F4000636BC3B9234AD2F88810A369E06943EAF6
:101F5000801301F440310B43616A43EA0163C2F824
:101F60008830D2F88C3023F4F853E16A013943EA1F
:101F70000123C2F88C30236813F4807F03D0636D93
:101F8000B3F1006F11D0154B01221A60FEF7D2FF9A
:101F90000446104B1B6813F0005F18D1FEF7CAFF10
:101FA000001B0228F5D903208EE60A48D0F88810D5
:101FB000A369E26943EA8213226A5208013A43EABA
:101FC000024301F070621343C0F88830DBE7002061
:101FD0007AE600BF0038024068004742700047427E
:101FE0002DE9F04B5C4B9B6803F00C03082B07D0EA
:101FF0000C2B5BD0042B00F0AD805848BDE8F08B73
:10200000554B5A6802F03F025B6813F4800F2AD0E8
:10201000514B5B68C3F388131E4600275C01002503
:10202000E41A65EB0705A90141EA9461A001001BD0
:1020300061EB0501CB0043EA5073C400A01943EBE8
:1020400007014B0243EAD0534402204619460023BD
:10205000FEF7DEF8404B5B68C3F3014301335B00DE
:10206000B0FBF3F0CAE73C4B5B68C3F388131E4632
:1020700000275C010025E41A65EB0705A90141EA88
:102080009461A001001B61EB0501CB0043EA507392
:10209000C400A01943EB07018B0243EA905384026A
:1020A000204619460023FEF7B3F8D3E72A4B5A68B7
:1020B00002F03F025B6813F4800F28D0264B5B6868
:1020C000C3F388131E4600275C010025E41A65EB64
:1020D0000705A90141EA9461A001001B61EB05011C
:1020E000CB0043EA5073C400A01943EB07014B0235
:1020F00043EAD0534402204619460023FEF788F8ED
:10210000154B5B68C3F30273B0FBF3F076E7124B39
:102110005B68C3F388131E4600275C010025E41AA0
:1021200065EB0705A90141EA9461A001001B61EB81
:102130000501CB0043EA5073C400A01943EB07012B
:102140008B0243EA90538402204619460023FEF78F
:102150005FF8D5E7024851E7003802400024F40058
:1021600000127A0070B582B00446036813F0010FC4
:1021700041D0A64B9B6803F00C03042B32D0A34B39
:102180009B6803F00C03082B27D0A04B9B6803F03F
:102190000C030C2B59D06368B3F5803F5BD0B3F5CB
:1021A000A02F5ED0994B1A6822F480321A601A6808
:1021B00022F480221A606368002B5CD0FEF7BAFE1E
:1021C0000546924B1B6813F4003F14D1FEF7B2FE94
:1021D000401B6428F5D903209DE18C4B5B6813F408
:1021E000800FD2D0894B1B6813F4003F03D0636883
:1021F000002B00F08D81236813F0020F67D0834B12
:102200009B6813F00C0F4AD0804B9B6803F00C03C3
:10221000082B3FD07D4B9B6803F00C030C2B48D060
:10222000E368002B74D07A4B01221A60FEF782FE1D
:102230000546764B1B6813F0020F60D1FEF77AFE5D
:10224000401B0228F5D9032065E1704B5B6813F44D
:10225000800FA0D0C6E76D4A136843F48033136043
:10226000A9E76A4B1A6842F480221A601A6842F49D
:1022700080321A609FE7FEF75DFE0546634B1B68E0
:1022800013F4003FB7D0FEF755FE401B6428F5D984
:10229000032040E15D4B5B6813F4800FBAD15B4BC8
:1022A0001B6813F0020F0AD0E368012B07D001204E
:1022B00031E1564B5B6813F4800FB1D1EFE7534A1D
:1022C000136823F0F803216943EAC103136023680C
:1022D00013F0080F40D0636963B34E4B01221A60BC
:1022E000FEF728FE0546494B5B6F13F0020F33D112
:1022F000FEF720FE401B0228F5D903200BE1434ADC
:10230000136823F0F803216943EAC1031360DEE791
:102310003F4B00221A60FEF70DFE05463B4B1B6843
:1023200013F0020FD3D0FEF705FE401B0228F5D9AB
:102330000320F0E0374B00221A60FEF7FBFD054654
:10234000324B5B6F13F0020F06D0FEF7F3FD401B1C
:102350000228F5D90320DEE0236813F0040F79D0BA
:102360002A4B1B6C13F0805F33D100230193274B62
:102370001A6C42F080521A641B6C03F08053019374
:10238000019B0125244B1B6813F4807F23D0A36895
:10239000012B34D0052B41D01C4B1A6F22F00102C7
:1023A0001A671A6F22F004021A67A368002B3FD045
:1023B000FEF7C0FD0646154B1B6F13F0020F48D108
:1023C000FEF7B8FD801B41F288339842F3D9032011
:1023D000A1E00025D6E7104A136843F48073136028
:1023E000FEF7A8FD06460C4B1B6813F4807FCED188
:1023F000FEF7A0FD801B0228F5D903208BE0034ADD
:10240000136F43F001031367CFE700BF00380240AA
:1024100000004742800E474200700040404B1A6F58
:1024200042F004021A671A6F42F001021A67BCE711
:10243000FEF780FD06463A4B1B6F13F0020F08D0E3
:10244000FEF778FD801B41F288339842F3D90320D0
:1024500061E0E5B9A369002B5CD0314A926802F0D3
:102460000C02082A59D0022B17D02E4B00221A60DA
:10247000FEF760FD04462A4B1B6813F0007F45D031
:10248000FEF758FD001B0228F5D9032043E0244A3B
:10249000136C23F080531364DCE7224B00221A6094
:1024A000FEF748FD05461E4B1B6813F0007F06D063
:1024B000FEF740FD401B0228F5D903202BE0E3691D
:1024C000226A1343626A43EA8213A26A5208013AFB
:1024D00043EA0243E26A43EA0263226B43EA02737D
:1024E0000F4A53600F4B01221A60FEF723FD04468A
:1024F0000B4B1B6813F0007F06D1FEF71BFD001B82
:102500000228F5D9032006E0002004E0002002E0C4
:10251000012000E0002002B070BD0120FBE700BFF9
:102520000038024060004742836B1A68D36B43F463
:102530008073D363704770B582B004460023019363
:10254000006802F087FA054610B1284602B070BD57
:10255000206802F092FA064610B30023A3642E46C8
:10256000DEB9019B5A1C01924FF6FF72934244D090
:102570000021206802F098FA002841D1002120684B
:1025800002F0AAFA064600283DD10021206802F098
:10259000A0F8C00FE4D00646E2E700236364D4E766
:1025A0000123A3640546EDB9019B5A1C01924FF625
:1025B000FF7293422AD00021206802F075FA054686
:1025C0000028C2D14FF08041206802F085FA05460C
:1025D0000028BAD10021206802F07BF8C30FE2D0B6
:1025E0001D46E0E710F0804F03D1002363643546B9
:1025F000ABE7012363643546A7E74FF08075A4E796
:102600004FF08055A1E74FF080559EE74FF0807561
:102610009BE770B50546866A002405E0286802F04D
:1026200033F846F824000134072CF7D9AB6A20337D
:10263000AB62002070BD70B50546066A002405E057
:1026400006EB8401286802F022F80134072CF7D940
:102650002B6A20332B62002070BD2DE9F04188B039
:1026600004460F46FEF766FC0646002300930193DE
:102670000821206802F044F9054618B1284608B040
:10268000BDE8F081216D0904206802F00DFA0546CD
:102690000028F3D14FF0FF33029308230393302334
:1026A000049302230593002306930123079302A9B1
:1026B000206802F013F9206802F03FFA054600286E
:1026C000DCD1804605E0FEF735FC801BB0F1FF3F12
:1026D00043D02068426B40F22A431A420AD1436B2E
:1026E00013F4001FEFD001F0CFFF4DF8280008F1E0
:1026F0000108E8E7436B13F0080F25D1436B13F093
:10270000020F24D1436B13F0200F23D140F2FF536B
:102710008363009A130203F47F0343EA0263110AFE
:1027200001F47F410B4343EA12637B60019A130279
:1027300003F47F0343EA0263110A01F47F410B4370
:1027400043EA12633B6099E70825856396E7022513
:10275000856393E72025856390E74FF000458DE77B
:1027600010B582B00446002100910191006801F08B
:10277000B0FF10F0007F16D169462046FFF76DFFCD
:10278000034690B9019B13F4802F11D0216D0904E9
:10279000206802F089F9034638B90221206802F066
:1027A000B4F9034601E04FF40063184602B010BDCF
:1027B0004FF08063F9E710B582B004460021009124
:1027C0000191006801F085FF10F0007F16D1694685
:1027D0002046FFF742FF034690B9019B13F4803F68
:1027E00011D0216D0904206802F05EF9034638B962
:1027F0000021206802F089F9034601E04FF40063EC
:10280000184602B010BD4FF08063F9E770B581B192
:102810000D460446016D0904006802F0E8F9064619
:1028200008B1304670BD0021206801F052FF2860D9
:10283000F7E74FF00066F4E7F0B587B0044699B1CA
:1028400015461E460A4690F83430DBB2012B6FD194
:1028500000238363AB19C16D8B420BD9836B43F0AB
:1028600000738363012064E0836B43F00063836340
:1028700001205EE0032380F8343003680021D96230
:102880000068C36B43F49573C363E36B2B48D86351
:10289000E36B2B48D864E36B196521687702BB08AA
:1028A0008031E06BFEF73AFD264B01221A60636C23
:1028B000934200D06D024FF0FF33009301979023B5
:1028C0000293022303930023049301230593694693
:1028D000206802F003F84FF40071206802F010F84D
:1028E000034698B9012E1CD9822323632946206808
:1028F00002F036F8F8B1236840F2FF529A63A36BF6
:102900001843A063012084F8340012E0226840F2EA
:10291000FF519163A06B1843A063012084F8340039
:1029200007E0812323632946206802F001F8E1E7EC
:10293000022007B0F0BD0020FBE700BF632A0008BB
:10294000152F00088C8525422DE9F04186B00446FC
:1029500000293FD015461E460F4690F83430DBB2B2
:10296000012B73D1002383639319C26D934237D82F
:10297000032380F8343003680022DA620168CB6BED
:1029800043F01A03CB63036C3249D963036C3249B9
:10299000D964036C1A65436C012B00D06D024FF4AF
:1029A0000071206801F0ACFF0346F8B9012E28D968
:1029B000A02323632946206802F002F840B323686D
:1029C00040F2FF529A63A36B1843A063012084F87E
:1029D00034003CE0836B43F000638363012036E006
:1029E000836B43F000738363012030E0226840F280
:1029F000FF519163A06B1843A063012084F8340059
:102A000025E0902323632946206801F0C1FFD5E724
:102A10004FF00108114BC3F8008022687602B3081A
:102A200080323946206CFEF779FC4FF0FF3300937B
:102A3000019690230293002503950495CDF8148008
:102A40006946206801F04AFF284600E0022006B0EF
:102A5000BDE8F08129250008152F00088C85254246
:102A6000704710B5846B236B822B0FD02268D36A1A
:102A700023F00803D362236840F2FF529A630123D4
:102A800084F83430204605F094FC10BD206801F035
:102A9000AFFF03460028E9D0A06B1843A06320468F
:102AA000FFF7DEFFE2E730B4436E9A0F0A70C3F31C
:102AB00083624A70C3F301638B7090F86630CB7009
:102AC00090F865300B7190F864304B7190F86B3072
:102AD0001B01CB80B0F86A30CC88C3F303122243C9
:102AE000CA8003F00F030B7290F86930DA094A725A
:102AF000C3F380128A72C3F34012CA72C3F3001286
:102B00000A7300224A73426C002A40F092809B02B2
:102B100003F440630B61836E0A699B0003F47F73C7
:102B200013430B61C36E0A6942EA93720A61C3F3ED
:102B3000C2620A75C3F302634B75C26EC2F30743E8
:102B4000C2F342548C75C2F38242CA755B0003F033
:102B500006030B76C26EC2F307230C7EC2F3C032AB
:102B600022430A760A69013242650C7E023402FA77
:102B700004F444650A7AD5B20122AA408265520A59
:102B800002FB04F2C2654FF400720266C3F38012C6
:102B90004A765B0003F07E038B76C36E8A7EC3F3B6
:102BA000C01422438A7603F07F03CB76036F1A0E9C
:102BB000DC0F0C77C3F341744C77C3F382638B77DC
:102BC000930003F00C03CB77036FCA7FC3F38154E8
:102BD0002243CA77C3F3405281F82020002281F8B3
:102BE0002120C3F3004381F82230036FC3F3C034C4
:102BF00081F82340C3F3803481F82440C3F3403488
:102C000081F82540C3F3003481F82640C3F38124C2
:102C100081F82740C3F3012381F82830036FC3F301
:102C2000460381F82930012381F82A30104630BC50
:102C30007047012A0CD0036840F2FF529A63836BFD
:102C400043F080538363012280F834201046EEE77E
:102C5000836E1B0403F47C130B6190F86F200B69E7
:102C600043EA02230B610A6990F86E3013430B614B
:102C700090F86D300A69013292024265C2654FF4E4
:102C800000728265026681E770B590B00446012348
:102C9000ADF81230006801F003FD00286AD0636CC3
:102CA000032B43D1636C032B5BD1636C032B1DD0CF
:102CB000BDF8121021650904206801F06BFF05467C
:102CC000002859D10021206801F003FD606604212D
:102CD000206801F0FEFCA0660821206801F0F9FCE4
:102CE000E0660C21206801F0F4FC206704212068D4
:102CF00001F0EFFC000DE06405A92046FFF7D3FECC
:102D0000226D12040023206801F08CFE054698BB5A
:102D1000234653F8106B93E807008DE8070004344E
:102D200094E80E00304601F093FC25E0206801F0A5
:102D30001CFF054600BB0021206801F0CAFC60674B
:102D40000421206801F0C5FCA0670821206801F07B
:102D5000C0FCE0670C21206801F0BBFCC4F88000D7
:102D6000A0E70DF11201206801F029FF05460028B7
:102D70009BD001E04FF08065284610B070BD000088
:102D800070B58AB00546002404940594069407940F
:102D90000894762309930AAB13E907008DE807002E
:102DA00004AB0ECB286801F053FC124E3460286847
:102DB00001F072FC012333600220FEF7C1F82846BF
:102DC000FFF7B9FB40B10246012085F83400AB6B38
:102DD0001343AB630AB070BD2846FFF755FF0246A8
:102DE00030B1012085F83400AB6B1343AB63F1E7DE
:102DF0000020EFE7A0802542A8B110B5044690F866
:102E0000343063B1032384F834302046FFF7B8FF31
:102E10000020A0632063012384F8343010BD0377C1
:102E200005F026FFEEE701207047436C0B60836CD2
:102E30004B60C36C8B60036DCB60436D0B61836D26
:102E40004B61C36D8B61036ECB610020704730B561
:102E50008BB004460D46032380F83430436C032BBB
:102E60001CD0B1F5805F08D0B1F5006F0AD079B100
:102E7000836B43F00063836314E0836B43F0805300
:102E800083630FE0FFF76CFCA36B1843A06309E0BA
:102E9000FFF791FCA36B1843A06303E0836B43F03F
:102EA00080538363A36B43B1236840F2FF529A635C
:102EB000012084F834000BB030BD63680493A3682C
:102EC0000593E3680693079563690893A3690993DB
:102ED0000AAB13E907008DE8070004AB0ECB2068AE
:102EE00001F0B6FB012384F834300020E3E710B58D
:102EF00082B0044602A9002341F8043DFFF786FC96
:102F000018B10346A06B1843A0630198C0F3432097
:102F100002B010BD10B5846BE36B5B6D012B03D069
:102F2000236C5B6D012B16D1236840F2FF529A632C
:102F30002268D36B23F49D73D363A36B43F0804368
:102F4000A3632046FFF7D3FF0538C0B2012806D996
:102F5000012384F834302046FFF782FD10BD20683D
:102F600001F046FDA36B1843A063F1E710B5846B35
:102F7000236C0BB100232364E36B03B110BD204627
:102F8000FFF7B5FF0023A363012384F8343005382D
:102F9000C0B29842F2D8206801F02AFDA36B184312
:102FA000A063A36B1BB92046FFF75AFDE6E7204656
:102FB00005F0F7F9E2E710B5846BE36B0BB1002382
:102FC000E363236C03B110BD2046FFF790FF00239D
:102FD000A363012384F834300538C0B29842F2D894
:102FE000206801F005FDA36B1843A063A36B1BB918
:102FF0002046FFF735FDE6E7204605F0D2F9E2E787
:1030000010B5044603685A6B12F4807F5FD04FF40A
:1030100080729A630268D36B23F49D73D363036B4E
:1030200013F0080F2AD0036B13F0020F03D1036BC8
:1030300013F0200F04D0206801F0DAFC034690B9A9
:10304000236840F2FF529A63012384F83430236BE3
:1030500013F0010F03D1236B13F0020F0AD02046A7
:1030600005F0A7F910BDA26B1343A3632046FFF739
:10307000F7FCE5E7204605F098F9F3E7036B13F05A
:10308000800FEFD0036B13F0200F13D1236B13F0DD
:10309000010FE7D1236B13F0020FE3D12268D36A4B
:1030A00023F00803D362012384F83430204605F06E
:1030B0007CF9D7E7006801F09BFC03460028E5D0C7
:1030C000A26B1343A3632046FFF7CAFCDEE75A6BEB
:1030D00012F4804F40D15A6B12F4004F42D15A6B18
:1030E00012F03A0FBED05A6B12F0020F03D0826B6F
:1030F00042F0020282635A6B12F0080F03D0A26BF7
:1031000042F00802A2635A6B12F0200F03D0A26BA8
:1031100042F02002A2635A6B12F0100F03D0A26B90
:1031200042F01002A26340F2FF529A632268D36B0E
:1031300023F49D73D363236B13F0800F2FD0236C84
:10314000B3B11D4A1A65206CFEF722F9002889D018
:10315000206CFFF70BFF85E74FF480429A63FFF77F
:103160006AFA7FE74FF400429A63FFF752FA79E771
:10317000E36B5BB1114A1A65E06BFEF709F90028B1
:103180003FF470AFE06BFFF716FF6BE70023A3631C
:10319000012384F83430204605F003F962E7236BFD
:1031A00013F0080F3FF45EAF012384F8343020465B
:1031B000FFF756FC56E700BF6D2F0008B72F000839
:1031C00000283BD010B504460023836290F85130AC
:1031D000002B2ED0022384F851302268136823F08C
:1031E000400313606368A2681343E26813432269D3
:1031F000134362691343A26902F400721343E26944
:103200001343226A1343A16A22680B431360638B42
:1032100003F00403616A22680B4353602268D36998
:1032200023F40063D36100206065012384F85130EA
:1032300010BD80F8503005F007FECBE70120704745
:1032400070B4036A23F001030362036A426884696D
:1032500024F073040D6845EA040623F002048B6829
:1032600023430C4DA84202D00B4CA0420BD123F0BB
:103270000803CD682B4323F0040322F440724D6908
:1032800015438A692A43426086614A684263036241
:1032900070BC7047000001400004014030B4036A74
:1032A00023F480730362036A4268C46924F07304E0
:1032B0000D682C4323F400738D6843EA05230E4DFB
:1032C000A84203D005F58065A8420ED123F400631F
:1032D000CD6843EA052323F4806322F440524D690C
:1032E00042EA05128D6942EA05124260C4614A68E9
:1032F000C263036230BC70470000014030B4036A0F
:1033000023F480530362036A4468C26922F4E642EC
:103310000D6842EA052223F400538D6843EA053321
:10332000094DA84203D005F58065A84204D124F4D4
:1033300080444D6944EA85144460C2614A6802646D
:10334000036230BC704700BF0000014010B4036A44
:10335000046A24F001040462846924F0F00444EA5D
:10336000021223F00A030B43826103625DF8044BEF
:10337000704730B4046A24F0100404628469056A5A
:1033800024F4407444EA022222F470421B039BB2EC
:103390001A4325F0A005090101F0A001294382612B
:1033A000016230BC704710B4036A23F0100303625B
:1033B0008469036A24F4704444EA023223F0A003CF
:1033C00043EA0113826103625DF8044B704730B435
:1033D000046A24F480740462C469056A24F0030456
:1033E000224322F0F0021B01DBB21A4325F42065D0
:1033F000090201F420612943C261016230BC7047B7
:1034000030B4046A24F480540462C469056A24F464
:10341000407444EA022222F470421B039BB21A4316
:1034200025F42045090301F420412943C2610162CA
:1034300030BC7047836823F0700341F007011943E3
:103440008160704710B4846824F47F4442EA032307
:103450000B43234383605DF8044B704710B5046849
:10346000A26822F070024B68134323F007030A6836
:103470001343A3604B68502B1ED00AD9602B21D078
:10348000702B05D10B698A68C9680068FFF7DAFFFD
:1034900010BD402BFCD103681C6A1A6A22F001029D
:1034A0001A620268936923F0F003096943EA011381
:1034B000936103681C62EBE70A6989680068FFF79B
:1034C00045FFE5E70A6989680068FFF76CFFDFE7F9
:1034D0000268D36843F00103D3600268136843F0C5
:1034E00001031360002070477047704790F8383030
:1034F000012B7DD010B50446012380F8383002231B
:1035000080F839300268936823F47F4323F077030F
:1035100093600B68402B57D010D9702B3ED01FD82A
:10352000502B47D0602B32D1CA6849680068FFF73A
:103530003AFF60212068FFF77DFF28E0102B4DD077
:1035400008D9202B4FD0302B21D130210068FFF734
:1035500071FF1CE0DBB900210068FFF76BFF16E08C
:10356000B3F5805F0ED0B3F5005F10D1CB684A6829
:1035700089680068FFF766FF2268936843F4804318
:10358000936004E00268936823F0070393600123CB
:1035900084F83930002084F8380010BDCB684A68C0
:1035A00089680068FFF74EFF2268936843F077034D
:1035B0009360ECE7CA6849680068FFF7C7FE5021CE
:1035C0002068FFF737FFE2E7CA6849680068FFF73D
:1035D000BDFE40212068FFF72DFFD8E710210068CD
:1035E000FFF728FFD3E720210068FFF723FFCEE78E
:1035F0000220704738B590F83830012B18D00446B7
:10360000012580F83850022380F83930FFF726FF73
:103610002268D36823F04003D3602268D36823F480
:103620008043D36084F83950002084F8380038BDD6
:103630000220FCE7704770477047704710B504469A
:1036400003681A6912F0020F11D0DA6812F0020F43
:103650000DD06FF002021A610123037603689B69A3
:1036600013F0030F70D0FFF7E6FF002323762368E3
:103670001A6912F0040F12D0DA6812F0040F0ED09B
:103680006FF004021A610223237623689B6913F406
:10369000407F5FD02046FFF7CEFF002323762368CC
:1036A0001A6912F0080F12D0DA6812F0080F0ED063
:1036B0006FF008021A61042323762368DB6913F094
:1036C000030F4ED02046FFF7B6FF00232376236872
:1036D0001A6912F0100F12D0DA6812F0100F0ED023
:1036E0006FF010021A61082323762368DB6913F454
:1036F000407F3DD02046FFF79EFF002323762368BE
:103700001A6912F0010F03D0DA6812F0010F36D1F6
:1037100023681A6912F0800F03D0DA6812F0800F64
:1037200034D123681A6912F0400F03D0DA6812F01E
:10373000400F32D123681A6912F0200F03D0DA68E3
:1037400012F0200F30D110BDFFF774FF2046FFF7B5
:1037500073FF8AE72046FFF76DFF2046FFF76CFFF7
:103760009BE72046FFF766FF2046FFF765FFACE7C3
:103770002046FFF75FFF2046FFF75EFFBDE76FF0D3
:1037800001021A61204605F0F1F8C1E76FF08002EE
:103790001A61204600F011FAC3E76FF040021A6187
:1037A0002046FFF74AFFC5E76FF020021A61204666
:1037B00000F002FAC7E7000003682E4A904212D0D8
:1037C000B0F1804F0FD0A2F57C4290420BD002F5B1
:1037D0008062904207D002F58062904203D002F5E9
:1037E0007842904203D123F070034A681343214A80
:1037F00090422AD0B0F1804F27D0A2F57C4290426F
:1038000023D002F5806290421FD002F58062904280
:103810001BD002F57842904217D002F570529042C8
:1038200013D002F5806290420FD002F58062904280
:103830000BD0A2F59832904207D002F580629042F8
:1038400003D002F58062904203D123F44073CA682A
:10385000134303608B68C3620B688362054B984215
:1038600003D003F58063984201D10B690363012300
:103870004361704700000140A8B110B5044690F8BC
:1038800039305BB1022384F83930211D2068FFF7FD
:1038900093FF012384F83930002010BD80F83830C0
:1038A00005F014FDEEE701207047A8B110B50446FD
:1038B00090F839305BB1022384F83930211D20683B
:1038C000FFF77AFF012384F83930002010BD80F81B
:1038D0003830FFF709FEEEE701207047A8B110B5B8
:1038E000044690F839305BB1022384F83930211D49
:1038F0002068FFF761FF012384F83930002010BDF4
:1039000080F83830FFF7F1FDEEE701207047000046
:1039100070B4046A24F0010404628469056A1A4ED2
:10392000B0421FD0B0F1804F1CD0A6F57C46B0420B
:1039300018D006F58066B04214D006F58066B04215
:1039400010D006F57846B0420CD006F57056B0425D
:1039500008D0A6F59436B04204D024F0030242F019
:10396000010202E024F00304224322F0F0021B01D2
:10397000DBB2134325F00A0201F00A01114383610F
:10398000016270BC704700BF0000014038B590F87C
:103990003830012B58D00D460446012380F83830CA
:1039A000022380F83930DAB1042A2AD0082A3AD022
:1039B000CB684A6809680068FFF722FD2268D3696E
:1039C00023F44063D3612268D369A96843EA0123E1
:1039D000D361012384F83930002084F8380038BDE1
:1039E000CB684A6809680068FFF792FF226893690C
:1039F00023F00C03936122689369A9680B439361D8
:103A0000E7E7CB684A6809680068FFF7B2FC2268FC
:103A1000936923F44063936122689369A96843EA38
:103A200001239361D5E7CB684A6809680068FFF70E
:103A3000CEFC2268D36923F00C03D3612268D369DA
:103A4000A9680B43D361C4E70220C8E730B4036A16
:103A500023F010030362036A4468826922F4E64299
:103A60000D6842EA052223F020038D6843EA05131E
:103A70000E4DA84203D005F58065A8420ED123F073
:103A80008003CD6843EA051323F0400324F4406427
:103A90004D6944EA85048D6944EA85044460826185
:103AA0004A688263036230BC704700BF0000014077
:103AB00090F83830012B28D010B50446012380F847
:103AC0003830022380F839300C2A0BD8DFE802F0B6
:103AD000070A0A0A110A0A0A150A0A0A19000068DE
:103AE000FFF7AEFB012384F83930002084F838005A
:103AF00010BD0068FFF7AAFFF4E70068FFF7CEFBF0
:103B0000F0E70068FFF7FAFBECE70220704790F857
:103B10003830012B22D030B4012280F83820022323
:103B200080F839300468636823F0700363600468C8
:103B300063680D682B4363600468A36823F0800307
:103B4000A3600468A36849680B43A36080F8392028
:103B5000002380F83830184630BC70470220704788
:103B600090F83830012B25D0012380F83830CB680D
:103B700023F440738A68134323F480634A68134331
:103B800023F400630A68134323F480530A69134340
:103B900023F400534A69134323F480438A6913438F
:103BA00023F40043134302685364002380F8383041
:103BB0001846704702207047704770470268D36804
:103BC00023F49073D3600268536923F001035361B7
:103BD000202380F83A30704790F83930DBB2212B3F
:103BE0002AD18368B3F5805F16D0036A5A1C02623B
:103BF0001A7803685A60C38C013B9BB2C384EBB94B
:103C00000268D36823F08003D3600268D36843F06E
:103C10004003D36000207047036A1B880268C3F327
:103C20000803536003691BB9036A02330362E2E7C6
:103C3000036A01330362DEE7022070470020704709
:103C40002DE9F843044601680A6922F44052C3682A
:103C500013430B610168CA6822F4164222F00C0279
:103C600083680069034360690343E06903431343C6
:103C7000CB6021684A6922F44072A36913434B6107
:103C8000E369B3F5004F60D02368B84A934200F06F
:103C9000148102F58062934200F00F81FDF724FF4A
:103CA00000EB800000EB80006568AD00B0FBF5F52F
:103CB000AF4FA7FB05356D092E01FDF715FF00EB92
:103CC000800000EB80006568AD00B0FBF5F9FDF702
:103CD0000BFF00EB800000EB80006568AD00B0FBDF
:103CE000F5F5A7FB05356D094FF0640808FB159540
:103CF0002D013235A7FB05356D0905F0F00535447A
:103D0000FDF7F2FE00EB800000EB80006668B60075
:103D1000B0FBF6F6FDF7E8FE00EB800000EB80005C
:103D200063689B00B0FBF3F0A7FB0030400908FB81
:103D300010684FEA081808F13208A7FB0837C7F3E4
:103D4000431723682F449F600DE12368874A9342FD
:103D50005BD002F58062934257D0FDF7C5FE00EBC1
:103D6000800000EB800065686D00B0FBF5F5804FCA
:103D7000A7FB05356D092E01FDF7B6FE00EB8000AF
:103D800000EB800065686D00B0FBF5F9FDF7ACFE57
:103D900000EB800000EB800065686D00B0FBF5F57E
:103DA000A7FB05356D094FF0640808FB1595ED007C
:103DB0003235A7FB05356D096D0005F4F8753544FE
:103DC000FDF792FE00EB800000EB80006668760055
:103DD000B0FBF6F6FDF788FE00EB800000EB8000FC
:103DE00063685B00B0FBF3F3A7FB03235B0908FBED
:103DF00013684FEAC80808F13208A7FB0837C7F371
:103E0000421723682F449F60ADE0FDF77DFE00EB75
:103E1000800000EB800065686D00B0FBF5F5544F45
:103E2000A7FB05356D092E01FDF76EFE00EB800046
:103E300000EB800065686D00B0FBF5F9FDF764FEEE
:103E400000EB800000EB800065686D00B0FBF5F5CD
:103E5000A7FB05356D094FF0640808FB1595ED00CB
:103E60003235A7FB05356D096D0005F4F87535444D
:103E7000FDF74AFE00EB800000EB800066687600EC
:103E8000B0FBF6F6FDF740FE00EB800000EB800093
:103E900063685B00B0FBF3F3A7FB03235B0908FB3C
:103EA00013684FEAC80808F13208A7FB0837C7F3C0
:103EB000421723682F449F6055E0FDF725FE00EB75
:103EC000800000EB80006568AD00B0FBF5F5284F81
:103ED000A7FB05356D092E01FDF716FE00EB8000EE
:103EE00000EB80006568AD00B0FBF5F9FDF70CFE56
:103EF00000EB800000EB80006568AD00B0FBF5F5DD
:103F0000A7FB05356D094FF0640808FB15952D01D9
:103F10003235A7FB05356D0905F0F0053544FDF791
:103F2000F3FD00EB800000EB80006668B600B0FB9C
:103F3000F6F6FDF7E9FD00EB800000EB800063681A
:103F40009B00B0FBF3F0A7FB0030400908FB1068B2
:103F50004FEA081808F13208A7FB0837C7F34317E0
:103F600023682F449F60BDE8F88300BF0010014024
:103F70001F85EB512DE9F04105460F461646984640
:103F8000069C2B681B6837EA03030CBF0123002340
:103F9000B3421DD1B4F1FF3FF3D02CB1FCF7CAFFFF
:103FA000A0EB0800A042ECD92A68D36823F4D073B0
:103FB000D3602A68536923F001035361202385F8F5
:103FC000393085F83A30002385F83830032000E096
:103FD0000020BDE8F08158B310B5044690F83930A0
:103FE0000BB3242384F839302268D36823F40053B8
:103FF000D3602046FFF724FE2268136923F4904320
:1040000013612268536923F02A0353612268D3683D
:1040100043F40053D3600020E063202384F8393058
:1040200084F83A3010BD80F8383005F017FCD8E736
:10403000012070472DE9F04182B01E4690F83930DA
:10404000DBB2202B55D104460D469046002955D0B1
:10405000002A55D090F83830012B53D0012380F836
:1040600038300023C363212380F83930FCF762FF26
:104070000746A4F82480A4F8268010E000963B466A
:10408000002280212046FFF775FF00283CD12B88B5
:104090002268C3F3080353602369C3B90235E38C74
:1040A0009BB2B3B1E38C013B9BB2E384A368B3F54D
:1040B000805FE3D000963B46002280212046FFF738
:1040C00059FF18BB2A7823685A600135E7E70135A4
:1040D000E5E700963B46002240212046FFF74AFFD5
:1040E0000346A8B9202284F83920002284F8382019
:1040F00000E00223184602B0BDE8F0810123F9E791
:104100000123F7E70223F5E70323F3E70323F1E7AE
:104110000323EFE708B50168CB6823F04003CB60C9
:10412000202380F8393005F0EBFC002008BD7047F3
:1041300008B590F83A30DBB2222B40D18368B3F552
:10414000805F0ED0036903BB03685A68836A591CF9
:1041500081621A70C38D013B9BB2C385F3B100200D
:104160002EE0826A036943B903685B68C3F30803FE
:104170001380836A02338362ECE703685B68DBB217
:104180001380836A01338362E4E703685B68826AB1
:10419000511C816203F07F031370DBE70268D36870
:1041A00023F49073D3600268536923F001035361D1
:1041B000202380F83A30FFF7BAFF002000E0022009
:1041C00008BD704710B5044602681368D16852698B
:1041D00013F00F0005D113F0200F02D011F0200FC3
:1041E00053D1002867D012F0010202D111F4907F60
:1041F00061D013F0010F06D011F4807F03D0E06B83
:1042000040F00100E06313F0040F04D01AB1E06B3A
:1042100040F00200E06313F0020F04D01AB1E06B2B
:1042200040F00400E06313F0080F04D01AB1E26B11
:1042300042F00802E263E26B002A48D013F0200F3C
:1042400002D011F0200F24D123685B6903F04003F2
:10425000E26B12F0080F00D13BB32046FFF7AEFC33
:1042600023685A6912F0400F1BD05A6922F04002AD
:104270005A61636B8BB11A4A1A65606BFDF788F857
:1042800028B3606B036D984721E02046FFF750FF8D
:104290001DE02046FFF74CFFD6E72046FFF791FFD1
:1042A00015E02046FFF78DFF11E02046FFF789FF5C
:1042B0000023E3630BE013F0800F02D011F0800FB6
:1042C00006D113F0400F02D011F0400F04D110BD01
:1042D0002046FFF781FCFAE72046FFF71BFFF6E7D1
:1042E000E542000808B5806B0023C385C384FFF74F
:1042F00068FF08BD30B44A68124B9D6803F58073AF
:104300009B68114CA4682B43234313F0010F15D174
:104310003AB942680D4B13400A68134343600120C9
:104320000DE04468094B23400C6822438C6822430B
:10433000C9680A431A434260012000E0002030BCF3
:10434000704700BF0020014000220140E010FCFF48
:10435000836813F0010F14D110B4436823F0407345
:1043600023F480730A688C68224313434360836894
:1043700023F400634A681343836001205DF8044B13
:1043800070470020704700004B68826812F0010FF0
:1043900024D110B4E3B1426822F468428C6823430C
:1043A0001343436083680E4A1A400B6803F070633E
:1043B000CC6823430C692343134383604B68C26A70
:1043C00022F470021343C36201205DF8044B70476E
:1043D000426822F4684213434360E3E700207047D9
:1043E000FDFCFFC0F0B40A6892FAA2F2B2FA82F2BF
:1043F00018E00E69C46893FAA3F5B5FA85F56D0067
:10440000032707FA05F524EA050493FAA3F5B5FA9C
:1044100085F56D0006FA05F52C43C4604C68022C46
:1044200036D001320B6833FA02F464D00124944090
:104430002340F6D04E68046893FAA3F5B5FA85F5E3
:104440006D00032707FA05F524EA050493FAA3F59E
:10445000B5FA85F56D0006FA05F52C4304604C6845
:10446000013C012CC5D88E68846893FAA3F5B5FA8F
:1044700085F56D0007FA05F524EA050493FAA3F51E
:10448000B5FA85F56D0006FA05F52C438460B0E7B2
:1044900093FAA3F4B4FA84F4072C15D84D69046A8E
:1044A00093FAA3F6B6FA86F6B6000F2707FA06F6D1
:1044B00024EA060493FAA3F3B3FA83F39B0005FA04
:1044C00003F323430362ACE74C69456A1B0A93FA82
:1044D000A3F6B6FA86F6B6000F2707FA06F625EA1F
:1044E000060593FAA3F3B3FA83F39B0004FA03F3EC
:1044F0002B43436295E74A68013A012A02D9012019
:10450000F0BC7047C968426822EA030201FB03F36A
:1045100013434360F3E700000C4B1B680C4AA2FBFB
:1045200003235A0A41F2883303FB02F35A1E4BB1AC
:10453000416B134611F0800FF8D040F2FF538363B4
:10454000002070474FF00040704700BF140000206B
:10455000D34D6210144B1B68144AA2FB03235A0A62
:1045600041F2883303FB02F35A1ECBB1416B134671
:1045700011F0450FF8D0436B13F0040F08D1436BD3
:1045800013F0010F08D140F2FF53836300207047FE
:1045900004238363184670470123836318467047DA
:1045A0004FF00040704700BF14000020D34D621050
:1045B000104B1B68104AA2FB03235A0A41F28833AE
:1045C00003FB02F35A1E8BB1416B134611F0450FEA
:1045D000F8D0436B13F0040F04D140F2FF53836310
:1045E0000020704704238363184670474FF0004053
:1045F000704700BF14000020D34D6210124B1B689F
:10460000124AA2FB03235A0A41F2883303FB02F346
:104610005A1EA3B1416B134611F0450FF8D0436BFE
:1046200013F0040F07D1436B13F0400F0AD040235F
:1046300083630020704740238363042070474FF05A
:10464000004070470020704714000020D34D6210D6
:1046500084B010B402AC84E80E000B46039A1343F6
:10466000049A1343059A1343069A1343079A134374
:10467000426822F4FD4222F07F021343436000208F
:104680005DF8044B04B07047D0F8800070470B68A9
:10469000C0F880300020704703230360002070477B
:1046A000006800F0030070470B6883604B688A68FD
:1046B0001343CA6813430A691343C26822F47F6232
:1046C00022F00F021343C360002070470069C0B29C
:1046D000704782B000230193143001440191019B83
:1046E000186802B07047000038B5514B1B68514C38
:1046F000A4FB03435B0A02FB03F2531E002A5ED0B5
:10470000446B1A4614F0450FF7D0436B13F0040FB7
:1047100007D1436B13F0010F07D0012383631846C1
:104720004FE00423836318464BE00D460446FFF731
:10473000CDFFA84201D0012043E040F2FF53A36324
:1047400000212046FFF7C5FF3B4B0340D3B30028B1
:104750003ADB10F0804F3AD110F0005F39D110F001
:10476000805F38D110F0006F38D110F0806F38D1F1
:1047700010F0807F38D110F4000F38D110F4800F82
:1047800038D110F4001F38D110F4801F38D110F444
:10479000802F38D110F4003F38D110F4803F38D149
:1047A00010F4004F38D110F4804F38D110F4005F6E
:1047B00038D110F0080F38D04FF4000001E04FF06E
:1047C000004038BD0020FCE74FF00070F9E74020C2
:1047D000F7E78020F5E74FF48070F2E74FF40070C0
:1047E000EFE74FF48060ECE74FF40060E9E74FF447
:1047F0008050E6E74FF40050E3E74FF48040E0E7F5
:104800004FF40040DDE74FF40030DAE74FF480204A
:10481000D7E74FF40020D4E74FF48010D1E74FF4EE
:104820000010CEE74FF48000CBE74FF48030C8E7AC
:1048300014000020D34D621008E0FFFD70B5254B39
:104840001B68254CA4FB03435C0A41F2883303FB3D
:1048500004F35C1EA3B3456B234615F0450FF8D057
:10486000436B13F0040F07D1436B13F0010F07D014
:1048700001238363184625E004238363184621E05F
:1048800016460D460446FFF721FFA84201D001203D
:1048900018E040F2FF53A36300212046FFF719FF01
:1048A00010F4604F08D010F4804F0CD110F4004F7A
:1048B0000CD04FF4805005E0000C3080002001E067
:1048C0004FF0004070BD4FF40050FBE74FF48030D4
:1048D000F8E700BF14000020D34D62100B6843625C
:1048E0004B6883628B68CA6813430A6913434A6939
:1048F0001343C26A22F0F7021343C36200207047D9
:1049000030B587B0054601911024029440230393EB
:10491000002304934FF48063059301A9FFF7C4FEBD
:1049200041F2883221462846FFF7DEFE07B030BD4F
:1049300030B587B0054601911124029440230393BA
:10494000002304934FF48063059301A9FFF7ACFEA5
:1049500041F2883221462846FFF7C6FE07B030BD37
:1049600030B587B005460191122402944023039389
:10497000002304934FF48063059301A9FFF794FE8D
:1049800041F2883221462846FFF7AEFE07B030BD1F
:1049900030B587B005460191182402944023039353
:1049A000002304934FF48063059301A9FFF77CFE75
:1049B00041F2883221462846FFF796FE07B030BD07
:1049C00030B587B005460191192402944023039322
:1049D000002304934FF48063059301A9FFF764FE5D
:1049E00041F2883221462846FFF77EFE07B030BDEF
:1049F00030B587B00546002301930C240294402271
:104A0000039204934FF48063059301A9FFF74CFED2
:104A1000034A21462846FFF767FE07B030BD00BFB6
:104A200000E1F50530B587B00546019207240294F0
:104A300040230393002304934FF48063059301A95B
:104A4000FFF732FE41F2883221462846FFF74CFE3E
:104A500007B030BD10B586B0044600230193029321
:104A6000039304934FF48063059301A9FFF71CFEA1
:104A70002046FFF751FD06B010BD10B586B00446C4
:104A80004FF4D5730193082302934023039300232B
:104A900004934FF48063059301A9FFF705FE2046B8
:104AA000FFF7ACFD06B010BD30B587B005460191EB
:104AB0003724029440230393002304934FF480632C
:104AC000059301A9FFF7F0FD41F2883221462846FF
:104AD000FFF70AFE07B030BD10B586B0044641F0BE
:104AE000004141F480110191292302934023039353
:104AF000002304934FF48063059301A9FFF7D4FDCD
:104B00002046FFF755FD06B010BD30B587B005460D
:104B100001910624029440230393002304934FF44D
:104B20008063059301A9FFF7BFFD41F2883221465A
:104B30002846FFF7D9FD07B030BD30B587B0054630
:104B400000230193332402944022039204934FF4F0
:104B50008063059301A9FFF7A7FD41F28832214642
:104B60002846FFF7C1FD07B030BD10B586B004463A
:104B70000023019302220292C022039204934FF475
:104B80008063059301A9FFF78FFD2046FFF7E2FC44
:104B900006B010BD10B586B00446019109230293FA
:104BA000C0230393002304934FF48063059301A96A
:104BB000FFF77AFD2046FFF7CDFC06B010BD70B5BB
:104BC00086B005460E46002301930324029440223A
:104BD000039204934FF48063059301A9FFF764FDEA
:104BE000324621462846FFF729FE06B070BD30B593
:104BF00087B0054601910D240294402303930023BE
:104C000004934FF48063059301A9FFF74DFD41F232
:104C1000883221462846FFF767FD07B030BD000007
:104C200030B4036A23F001030362036A42688469B3
:104C300024F073040D682C4323F002030D692B4309
:104C400023F001034D682B43104DA84203D005F516
:104C50008065A84212D123F008034D6943EA850319
:104C600023F004038D6843EA850322F480728D6982
:104C70002A4322F40072CD6942EA4502426084610F
:104C8000CA6842630362012030BC704700000140E3
:104C900030B4036A23F010030362036A4268846934
:104CA00024F4E6440D6844EA052423F020030D694A
:104CB00043EA051323F010034D6843EA0513114D31
:104CC000A84203D005F58065A84213D123F08003E4
:104CD0004D6943EA851323F040038D6843EA851349
:104CE00022F480628D6942EA850222F40062CD6975
:104CF00042EAC50242608461CA688263036201209D
:104D000030BC70470000014030B4036A23F4807364
:104D10000362036A4268C46924F073040D682C437B
:104D200023F400730D6943EA052323F480734D686F
:104D300043EA0523114DA84203D005F58065A8423A
:104D400013D123F400634D6943EA852323F4806380
:104D50008D6843EA852322F480528D6942EA051268
:104D600022F40052CD6942EA45124260C461CA6829
:104D7000C2630362012030BC704700BF00000140E5
:104D800030B4036A23F480530362036A4468C2693F
:104D900022F4E6420D6842EA052223F400530D692D
:104DA00043EA053323F480534D6843EA05330A4D43
:104DB000A84203D005F58065A84204D124F48044BC
:104DC0008D6944EA85144460C261CA680264036262
:104DD000012030BC704700BF000001400368304A2A
:104DE000904212D0B0F1804F0FD0A2F57C42904299
:104DF0000BD002F58062904207D002F580629042AB
:104E000003D002F57842904203D123F070034A6840
:104E10001343234A90422AD0B0F1804F27D0A2F505
:104E20007C42904223D002F5806290421FD002F56E
:104E3000806290421BD002F57842904217D002F572
:104E40007052904213D002F5806290420FD002F56A
:104E5000806290420BD0A2F59832904207D002F5C2
:104E60008062904203D002F58062904203D123F425
:104E70004073CA68134303608B68C3620B88836204
:104E8000074B984203D003F58063984201D10B7C15
:104E90000363436943F0010343610120704700BF8E
:104EA0000000014008B5102910D009D9B1F5807F64
:104EB00010D0B1F5805F11D11146FFF761FF04E01A
:104EC00001290BD11146FFF7ABFE08BD1146FFF7D4
:104ED000DFFEFAE71146FFF717FFF6E70020F4E7D9
:104EE0000B7B8A68134323F480634A68134323F4DB
:104EF00000630A68134323F48053CA89134323F4DD
:104F000000530A69134323F480434A69134323F48B
:104F100000431343436401207047000008B5044B6D
:104F200003EB8002526852680344187A904708BD28
:104F30002C02002008B5084B1B5C53B9064B01221C
:104F40001A5403EB8002526812681844007A9047A2
:104F500008BD0020FCE700BF2C02002038B5044C3F
:104F600004EB80056D68AD680444207AA84738BD1D
:104F70002C02002038B5044C04EB80056D68ED6808
:104F80000444207AA84738BD2C02002010B5044BF9
:104F900003EB8004646824690344187AA04710BDB9
:104FA0002C0200204278007840EA02207047C27844
:104FB000837843EA0222437843EA0223007840EAF6
:104FC000032070470170090A417070470170C1F3F6
:104FD00007234370C1F307438370090EC170704704
:104FE00013462AB10A78027001300131013BF9D130
:104FF000704701700130013AFBD1704730B4451C55
:10500000037808781B1A013A04D04C1C2846214624
:10501000002BF4D0184630BC704700E00130037814
:105020000BB18B42FAD118467047000030B400250E
:105030002B4601E001250133012B15D81A01174C2D
:10504000A258002AF6D00468A242F4D1134A02EB17
:105050000312546882689442EDD1104A02EB0312A5
:10506000946842699442E6D1022B0AD0A1B90B4A56
:1050700002EB03139B89B3F5807F07D0002030BC7F
:1050800070472DB9022905D10020F8E71020F6E776
:105090000020F4E71220F2E71020F0E704020020DD
:1050A000002000E00130012804D80301034AD3584E
:1050B000002BF7D1023818BF0120704704020020EE
:1050C00070B4002300E00133012B13D81A01244CE3
:1050D000A45802689442F6D1214A02EB03125468A4
:1050E00082689442EFD11E4A02EB0312946842692F
:1050F0009442E8D1022B29D021B1194A02EB0312C4
:10510000928952BB21BB164A02EB031291890131ED
:1051100089B2134A02EB03129181581C70BC70478C
:105120000133012B04D81A010D4CA258002AF7D1E3
:10513000022B10D006680A4D1C012A192E518468D2
:1051400054604069906000209081D5E70023E8E733
:105150004FF48071DDE70020E0E70020DEE700BFCC
:1051600004020020002303E05DF8044B7047013384
:10517000012B11D81A0109498A588242F7D110B47B
:105180001A0100248C500133012BEDD81A01034978
:105190008A588242F7D1F3E7704700BF040200202B
:1051A00002398369023B8B4204D94389C06A01FBFF
:1051B00003007047002070470268C36A0433490A3D
:1051C0005289B1FBF2F1186830B1814202D3091A59
:1051D0000833F8E758680844704770B506460D462E
:1051E00001F11A00FFF7DEFE3378032B00D070BD0B
:1051F000044605F11400FFF7D5FE44EA0040F6E747
:1052000070B506460C46154691B204F11A00FFF738
:10521000D9FE3378032B00D070BD290C04F11400A3
:10522000FFF7D0FEF8E700234B72C36973B370B584
:105230000022134605E0092C0ED08D186B72013246
:1052400023460A2B0DD8056A5C1CEB5C202BF7D09B
:10525000052BF0D1E523EEE78D182E266E72013274
:10526000EBE70D4604460A4400235372036ADB7AD7
:105270000B72006A1C30FFF79AFE2860206A163015
:10528000FFF795FEE880000CA88070BD7047000015
:105290002DE9F84F82468B460F6800F124090B2256
:1052A00020214846FFF7A5FE002633464FF00808A8
:1052B0002CE001357B5D2F2BFBD05C2BF9D03D44DE
:1052C000CBF80050002E43D09AF82430E52B35D08F
:1052D000202C37D804238AF82F30002028E0082615
:1052E0004FF00B0811E014F0800F23D1214619482C
:1052F000FFF793FE50BBA4F16103DBB2192B01D879
:10530000203CE4B209F8064001362B465D1CFC5CEB
:10531000202CD4D92F2CCDD05C2CCBD02E2C01D04E
:10532000B045E0D8B8F10B0F0ED02E2CD7D0062008
:10533000BDE8F88F803C084B1C5DD7E705238AF851
:105340002430C5E70023C6E70620F1E70620EFE793
:105350000620EDE790C1000810C00008016809B1FF
:105360000A4603E04FF0FF3308E001321378202BA8
:1053700001D93A2BF9D13A2B02D0002318467047B5
:1053800010B44C1C0B78303B092B08D8A24209D131
:105390005BB90132026018465DF8044B70474FF06C
:1053A000FF33F8E74FF0FF33F5E74FF0FF33F2E755
:1053B00008B530B1C06801F097F9034610B1012378
:1053C00000E00023184608BD38B50D4640B104463C
:1053D00003682BB11A781AB1D9888288914203D018
:1053E00000232B60092038BD5878FFF797FD10F097
:1053F000010FF5D123682B602068FFF7D9FF08B1B2
:105400000020F0E70F20EEE7F8B5C3780BB90020D5
:10541000F8BD0446056B00F1340701232A463946DE
:105420004078FFF7A7FDA8B90023E370636AEB1A81
:10543000E269934210D2A678012E09D9E3691D448E
:1054400001232A4639466078FFF794FD013EF3E7D1
:105450000020DDE70120DBE70020D9E770B5036B12
:105460008B4212D004460D46FFF7CEFF064668B9C0
:1054700001232A4604F134016078FFF76FFD10B173
:1054800001264FF0FF35256300E00026304670BD51
:1054900010B504460023C3704FF0FF330363FFF7DA
:1054A000DDFF18BB04F23220FFF77CFD4AF65523DE
:1054B00098421DD194F83430E92B05D0636B03F08A
:1054C000FF130F4A934215D104F16A00FFF76FFDF5
:1054D00020F07F400B4B98420ED004F18600FFF77E
:1054E00066FD094B984209D1002002E0042000E04B
:1054F000032010BD0220FCE70020FAE70220F8E7B5
:10550000EB00900046415400464154332DE9F047EA
:1055100084B00E46174600230B60FFF71FFF051EE1
:10552000C0F24B81BB4B03EB85031C6A002C00F0DF
:1055300046812046FFF73CFF002800F0448134609C
:1055400007F0FE07237873B16078FFF7E7FC10F0EF
:10555000010F08D1002F00F0388110F0040F40F047
:10556000368100202CE100232370E8B26070FFF741
:10557000E1FC10F0010F40F02C811FB110F0040F7E
:1055800040F0298100212046FFF782FF022800F029
:10559000B6800026042800F02081012800F21F8137
:1055A00004F13F00FFF7FEFCB0F5007F40F01981E9
:1055B00004F14A00FFF7F6FC074620B904F1580051
:1055C000FFF7F5FC0746E76194F84420A270531EEC
:1055D000DBB2012B00F2078107FB02F594F8418052
:1055E000A4F80A80B8F1000F00F0FF8008F1FF3343
:1055F00018EA030F40F0FB8004F14500FFF7D2FCEE
:105600008246208110F00F0F40F0F38004F1470034
:10561000FFF7C8FC814620B904F15400FFF7C7FC2E
:10562000814604F14200FFF7BDFC0146002800F06E
:10563000E280421902EB1A129145C0F0DE80A9EB1C
:105640000203B3FBF8F3002B00F0D9804FF6F5709E
:1056500083426CD94FF0030940F6F570834201D8BC
:105660004FF0010903F10208C4F8188026628B1973
:1056700063623244E262B9F1030F5BD0BAF1000F0A
:1056800000F0C3802B44A362B9F1020F63D008EB92
:10569000480208F0010303EB520303F2FF13B7EBD8
:1056A000532FC0F0B4804FF0FF3363612361802338
:1056B0002371B9F1030F51D084F80090554A938CAF
:1056C00001339BB29384E3802046FFF74BFD00201B
:1056D00076E0002004AB03EB850343F8100C0135A2
:1056E000032D0ED804F134002B0103F5DF731844A9
:1056F0000379002BEDD00830FFF759FCEAE70025CD
:10570000EEE700250AE031462046FFF7C1FE0128FA
:105710007FF640AF0135032D3FF63CAF04AB03EB02
:10572000850353F8106C002EEDD10320F2E74FF003
:10573000020991E704F15E00FFF734FC002860D114
:10574000BAF1000F5FD104F16000FFF730FCA062F6
:105750004FEA8803A1E74FEA48039EE704F164009B
:10576000FFF720FC0128A7D1711C2046FFF776FE29
:105770000028A1D10023237104F23220FFF712FC8C
:105780004AF65523984297D104F13400FFF70FFCF5
:10579000214B984290D104F50670FFF708FC1F4B8F
:1057A000984289D104F50770FFF701FC606104F5A8
:1057B0000870FFF7FCFB20617EE70B2000E00C2067
:1057C00004B0BDE8F0870F20FAE70020F8E70A20D0
:1057D000F6E70320F4E70A20F2E70120F0E70D20C6
:1057E000EEE70D20ECE70D20EAE70D20E8E70D20BD
:1057F000E6E70D20E4E70D20E2E70D20E0E70D20CD
:10580000DEE70D20DCE70D20DAE70D20D8E70D20DC
:10581000D6E700BF0402002052526141727241611A
:105820002DE9F04701297AD983698B4279D9174646
:105830000C4606460378022B43D0032B54D0012B91
:1058400001D002256EE001EB5108416A01EB5821BD
:10585000FFF704FE0546002864D106F1340A08F17A
:105860000109C8F3080814F001041FD01AF9083020
:1058700003F00F033A0102F47F621343DBB20AF82C
:1058800008300123F370716A01EB59213046FFF7AC
:10589000E5FD0546002845D1C9F3080944B1C7F321
:1058A00007120AF809200123F3703BE0FBB2E6E798
:1058B0001AF9092022F00F02C7F303273A43D2B2A4
:1058C000EFE7416A01EB1421FFF7C8FD054648BB2D
:1058D00006F13400640004F4FF74B9B22044FFF709
:1058E00071FB0123F3701DE0416A01EBD411FFF756
:1058F000B5FD0546B0B927F0704706F13403A100A5
:1059000001F4FE715C182046FFF751FB00F0704176
:1059100039432046FFF75AFB0123F37002E00225CA
:1059200000E002252846BDE8F087F8B506680129A1
:1059300053D9B3698B4252D90C463378022B2BD002
:10594000032B39D0012B01D0012047E001EB510599
:10595000716A01EB55213046FFF780FD002840D1E8
:105960006F1CC5F30805354495F83450716A01EB96
:1059700057213046FFF772FDB0BBC7F3080333442D
:1059800093F8340045EA002014F0010F01D000091B
:1059900024E0C0F30B0021E0716A01EB14213046D2
:1059A000FFF75CFD18BB06F13400610001F4FF71E4
:1059B0000844FFF7F7FA11E0716A01EBD4113046A1
:1059C000FFF74CFDB0B93436A10001F4FE7030444D
:1059D000FFF7EDFA20F0704000E00120F8BD012053
:1059E000FCE74FF0FF30F9E74FF0FF30F6E74FF0FC
:1059F000FF30F3E74FF0FF30F0E72DE9F0410768A3
:105A0000B1F5001F3BD206460D4611F01F0F39D1EC
:105A1000716184681CB93B78022B00D9BC6A94B9C7
:105A20003B89B3EB551F2FD9BB6AF361B461F369AE
:105A300093B303EB5523F3613437C5F308053D44B5
:105A4000356200201CE0B7F80A804FEA4828454537
:105A50000FD321463046FFF768FF0446B0F1FF3F01
:105A600014D0012814D9BB69834213D9A5EB0805CA
:105A7000EDE721463846FFF793FBF061D6E70220B9
:105A8000BDE8F0810220FBE70220F9E70120F7E7FB
:105A90000220F5E70220F3E70220F1E72DE9F041CB
:105AA00007460668884631B935698DB1B369AB429E
:105AB0000FD801250DE0FFF738FF0346012847D92D
:105AC000B0F1FF3F49D0B269824246D8454600E076
:105AD00001252C460CE021463846FFF726FF0346F9
